
weater_rec_CM7.elf:     file format elf32-littlearm

Sections:
Idx Name          Size      VMA       LMA       File off  Algn
  0 .isr_vector   00000298  08000000  08000000  00010000  2**0
                  CONTENTS, ALLOC, LOAD, READONLY, DATA
  1 .text         00008a34  08000298  08000298  00010298  2**2
                  CONTENTS, ALLOC, LOAD, READONLY, CODE
  2 .rodata       00000038  08008ccc  08008ccc  00018ccc  2**2
                  CONTENTS, ALLOC, LOAD, READONLY, DATA
  3 .ARM          00000008  08008d04  08008d04  00018d04  2**2
                  CONTENTS, ALLOC, LOAD, READONLY, DATA
  4 .init_array   00000004  08008d0c  08008d0c  00018d0c  2**2
                  CONTENTS, ALLOC, LOAD, DATA
  5 .fini_array   00000004  08008d10  08008d10  00018d10  2**2
                  CONTENTS, ALLOC, LOAD, DATA
  6 .data         00000010  20000000  08008d14  00020000  2**2
                  CONTENTS, ALLOC, LOAD, DATA
  7 .bss          000006a4  20000010  08008d24  00020010  2**2
                  ALLOC
  8 ._user_heap_stack 00000604  200006b4  08008d24  000206b4  2**0
                  ALLOC
  9 .ARM.attributes 0000002e  00000000  00000000  00020010  2**0
                  CONTENTS, READONLY
 10 .debug_info   0002f4c0  00000000  00000000  0002003e  2**0
                  CONTENTS, READONLY, DEBUGGING
 11 .debug_abbrev 00004434  00000000  00000000  0004f4fe  2**0
                  CONTENTS, READONLY, DEBUGGING
 12 .debug_aranges 000018f0  00000000  00000000  00053938  2**3
                  CONTENTS, READONLY, DEBUGGING
 13 .debug_ranges 00001748  00000000  00000000  00055228  2**3
                  CONTENTS, READONLY, DEBUGGING
 14 .debug_macro  0003e74a  00000000  00000000  00056970  2**0
                  CONTENTS, READONLY, DEBUGGING
 15 .debug_line   000192f0  00000000  00000000  000950ba  2**0
                  CONTENTS, READONLY, DEBUGGING
 16 .debug_str    0019bd3c  00000000  00000000  000ae3aa  2**0
                  CONTENTS, READONLY, DEBUGGING
 17 .comment      0000007b  00000000  00000000  0024a0e6  2**0
                  CONTENTS, READONLY
 18 .debug_frame  00006aec  00000000  00000000  0024a164  2**2
                  CONTENTS, READONLY, DEBUGGING

Disassembly of section .text:

08000298 <__do_global_dtors_aux>:
 8000298:	b510      	push	{r4, lr}
 800029a:	4c05      	ldr	r4, [pc, #20]	; (80002b0 <__do_global_dtors_aux+0x18>)
 800029c:	7823      	ldrb	r3, [r4, #0]
 800029e:	b933      	cbnz	r3, 80002ae <__do_global_dtors_aux+0x16>
 80002a0:	4b04      	ldr	r3, [pc, #16]	; (80002b4 <__do_global_dtors_aux+0x1c>)
 80002a2:	b113      	cbz	r3, 80002aa <__do_global_dtors_aux+0x12>
 80002a4:	4804      	ldr	r0, [pc, #16]	; (80002b8 <__do_global_dtors_aux+0x20>)
 80002a6:	f3af 8000 	nop.w
 80002aa:	2301      	movs	r3, #1
 80002ac:	7023      	strb	r3, [r4, #0]
 80002ae:	bd10      	pop	{r4, pc}
 80002b0:	20000010 	.word	0x20000010
 80002b4:	00000000 	.word	0x00000000
 80002b8:	08008cb4 	.word	0x08008cb4

080002bc <frame_dummy>:
 80002bc:	b508      	push	{r3, lr}
 80002be:	4b03      	ldr	r3, [pc, #12]	; (80002cc <frame_dummy+0x10>)
 80002c0:	b11b      	cbz	r3, 80002ca <frame_dummy+0xe>
 80002c2:	4903      	ldr	r1, [pc, #12]	; (80002d0 <frame_dummy+0x14>)
 80002c4:	4803      	ldr	r0, [pc, #12]	; (80002d4 <frame_dummy+0x18>)
 80002c6:	f3af 8000 	nop.w
 80002ca:	bd08      	pop	{r3, pc}
 80002cc:	00000000 	.word	0x00000000
 80002d0:	20000014 	.word	0x20000014
 80002d4:	08008cb4 	.word	0x08008cb4

080002d8 <__aeabi_uldivmod>:
 80002d8:	b953      	cbnz	r3, 80002f0 <__aeabi_uldivmod+0x18>
 80002da:	b94a      	cbnz	r2, 80002f0 <__aeabi_uldivmod+0x18>
 80002dc:	2900      	cmp	r1, #0
 80002de:	bf08      	it	eq
 80002e0:	2800      	cmpeq	r0, #0
 80002e2:	bf1c      	itt	ne
 80002e4:	f04f 31ff 	movne.w	r1, #4294967295	; 0xffffffff
 80002e8:	f04f 30ff 	movne.w	r0, #4294967295	; 0xffffffff
 80002ec:	f000 b972 	b.w	80005d4 <__aeabi_idiv0>
 80002f0:	f1ad 0c08 	sub.w	ip, sp, #8
 80002f4:	e96d ce04 	strd	ip, lr, [sp, #-16]!
 80002f8:	f000 f806 	bl	8000308 <__udivmoddi4>
 80002fc:	f8dd e004 	ldr.w	lr, [sp, #4]
 8000300:	e9dd 2302 	ldrd	r2, r3, [sp, #8]
 8000304:	b004      	add	sp, #16
 8000306:	4770      	bx	lr

08000308 <__udivmoddi4>:
 8000308:	e92d 47f0 	stmdb	sp!, {r4, r5, r6, r7, r8, r9, sl, lr}
 800030c:	9e08      	ldr	r6, [sp, #32]
 800030e:	4604      	mov	r4, r0
 8000310:	4688      	mov	r8, r1
 8000312:	2b00      	cmp	r3, #0
 8000314:	d14b      	bne.n	80003ae <__udivmoddi4+0xa6>
 8000316:	428a      	cmp	r2, r1
 8000318:	4615      	mov	r5, r2
 800031a:	d967      	bls.n	80003ec <__udivmoddi4+0xe4>
 800031c:	fab2 f282 	clz	r2, r2
 8000320:	b14a      	cbz	r2, 8000336 <__udivmoddi4+0x2e>
 8000322:	f1c2 0720 	rsb	r7, r2, #32
 8000326:	fa01 f302 	lsl.w	r3, r1, r2
 800032a:	fa20 f707 	lsr.w	r7, r0, r7
 800032e:	4095      	lsls	r5, r2
 8000330:	ea47 0803 	orr.w	r8, r7, r3
 8000334:	4094      	lsls	r4, r2
 8000336:	ea4f 4e15 	mov.w	lr, r5, lsr #16
 800033a:	0c23      	lsrs	r3, r4, #16
 800033c:	fbb8 f7fe 	udiv	r7, r8, lr
 8000340:	fa1f fc85 	uxth.w	ip, r5
 8000344:	fb0e 8817 	mls	r8, lr, r7, r8
 8000348:	ea43 4308 	orr.w	r3, r3, r8, lsl #16
 800034c:	fb07 f10c 	mul.w	r1, r7, ip
 8000350:	4299      	cmp	r1, r3
 8000352:	d909      	bls.n	8000368 <__udivmoddi4+0x60>
 8000354:	18eb      	adds	r3, r5, r3
 8000356:	f107 30ff 	add.w	r0, r7, #4294967295	; 0xffffffff
 800035a:	f080 811b 	bcs.w	8000594 <__udivmoddi4+0x28c>
 800035e:	4299      	cmp	r1, r3
 8000360:	f240 8118 	bls.w	8000594 <__udivmoddi4+0x28c>
 8000364:	3f02      	subs	r7, #2
 8000366:	442b      	add	r3, r5
 8000368:	1a5b      	subs	r3, r3, r1
 800036a:	b2a4      	uxth	r4, r4
 800036c:	fbb3 f0fe 	udiv	r0, r3, lr
 8000370:	fb0e 3310 	mls	r3, lr, r0, r3
 8000374:	ea44 4403 	orr.w	r4, r4, r3, lsl #16
 8000378:	fb00 fc0c 	mul.w	ip, r0, ip
 800037c:	45a4      	cmp	ip, r4
 800037e:	d909      	bls.n	8000394 <__udivmoddi4+0x8c>
 8000380:	192c      	adds	r4, r5, r4
 8000382:	f100 33ff 	add.w	r3, r0, #4294967295	; 0xffffffff
 8000386:	f080 8107 	bcs.w	8000598 <__udivmoddi4+0x290>
 800038a:	45a4      	cmp	ip, r4
 800038c:	f240 8104 	bls.w	8000598 <__udivmoddi4+0x290>
 8000390:	3802      	subs	r0, #2
 8000392:	442c      	add	r4, r5
 8000394:	ea40 4007 	orr.w	r0, r0, r7, lsl #16
 8000398:	eba4 040c 	sub.w	r4, r4, ip
 800039c:	2700      	movs	r7, #0
 800039e:	b11e      	cbz	r6, 80003a8 <__udivmoddi4+0xa0>
 80003a0:	40d4      	lsrs	r4, r2
 80003a2:	2300      	movs	r3, #0
 80003a4:	e9c6 4300 	strd	r4, r3, [r6]
 80003a8:	4639      	mov	r1, r7
 80003aa:	e8bd 87f0 	ldmia.w	sp!, {r4, r5, r6, r7, r8, r9, sl, pc}
 80003ae:	428b      	cmp	r3, r1
 80003b0:	d909      	bls.n	80003c6 <__udivmoddi4+0xbe>
 80003b2:	2e00      	cmp	r6, #0
 80003b4:	f000 80eb 	beq.w	800058e <__udivmoddi4+0x286>
 80003b8:	2700      	movs	r7, #0
 80003ba:	e9c6 0100 	strd	r0, r1, [r6]
 80003be:	4638      	mov	r0, r7
 80003c0:	4639      	mov	r1, r7
 80003c2:	e8bd 87f0 	ldmia.w	sp!, {r4, r5, r6, r7, r8, r9, sl, pc}
 80003c6:	fab3 f783 	clz	r7, r3
 80003ca:	2f00      	cmp	r7, #0
 80003cc:	d147      	bne.n	800045e <__udivmoddi4+0x156>
 80003ce:	428b      	cmp	r3, r1
 80003d0:	d302      	bcc.n	80003d8 <__udivmoddi4+0xd0>
 80003d2:	4282      	cmp	r2, r0
 80003d4:	f200 80fa 	bhi.w	80005cc <__udivmoddi4+0x2c4>
 80003d8:	1a84      	subs	r4, r0, r2
 80003da:	eb61 0303 	sbc.w	r3, r1, r3
 80003de:	2001      	movs	r0, #1
 80003e0:	4698      	mov	r8, r3
 80003e2:	2e00      	cmp	r6, #0
 80003e4:	d0e0      	beq.n	80003a8 <__udivmoddi4+0xa0>
 80003e6:	e9c6 4800 	strd	r4, r8, [r6]
 80003ea:	e7dd      	b.n	80003a8 <__udivmoddi4+0xa0>
 80003ec:	b902      	cbnz	r2, 80003f0 <__udivmoddi4+0xe8>
 80003ee:	deff      	udf	#255	; 0xff
 80003f0:	fab2 f282 	clz	r2, r2
 80003f4:	2a00      	cmp	r2, #0
 80003f6:	f040 808f 	bne.w	8000518 <__udivmoddi4+0x210>
 80003fa:	1b49      	subs	r1, r1, r5
 80003fc:	ea4f 4e15 	mov.w	lr, r5, lsr #16
 8000400:	fa1f f885 	uxth.w	r8, r5
 8000404:	2701      	movs	r7, #1
 8000406:	fbb1 fcfe 	udiv	ip, r1, lr
 800040a:	0c23      	lsrs	r3, r4, #16
 800040c:	fb0e 111c 	mls	r1, lr, ip, r1
 8000410:	ea43 4301 	orr.w	r3, r3, r1, lsl #16
 8000414:	fb08 f10c 	mul.w	r1, r8, ip
 8000418:	4299      	cmp	r1, r3
 800041a:	d907      	bls.n	800042c <__udivmoddi4+0x124>
 800041c:	18eb      	adds	r3, r5, r3
 800041e:	f10c 30ff 	add.w	r0, ip, #4294967295	; 0xffffffff
 8000422:	d202      	bcs.n	800042a <__udivmoddi4+0x122>
 8000424:	4299      	cmp	r1, r3
 8000426:	f200 80cd 	bhi.w	80005c4 <__udivmoddi4+0x2bc>
 800042a:	4684      	mov	ip, r0
 800042c:	1a59      	subs	r1, r3, r1
 800042e:	b2a3      	uxth	r3, r4
 8000430:	fbb1 f0fe 	udiv	r0, r1, lr
 8000434:	fb0e 1410 	mls	r4, lr, r0, r1
 8000438:	ea43 4404 	orr.w	r4, r3, r4, lsl #16
 800043c:	fb08 f800 	mul.w	r8, r8, r0
 8000440:	45a0      	cmp	r8, r4
 8000442:	d907      	bls.n	8000454 <__udivmoddi4+0x14c>
 8000444:	192c      	adds	r4, r5, r4
 8000446:	f100 33ff 	add.w	r3, r0, #4294967295	; 0xffffffff
 800044a:	d202      	bcs.n	8000452 <__udivmoddi4+0x14a>
 800044c:	45a0      	cmp	r8, r4
 800044e:	f200 80b6 	bhi.w	80005be <__udivmoddi4+0x2b6>
 8000452:	4618      	mov	r0, r3
 8000454:	eba4 0408 	sub.w	r4, r4, r8
 8000458:	ea40 400c 	orr.w	r0, r0, ip, lsl #16
 800045c:	e79f      	b.n	800039e <__udivmoddi4+0x96>
 800045e:	f1c7 0c20 	rsb	ip, r7, #32
 8000462:	40bb      	lsls	r3, r7
 8000464:	fa22 fe0c 	lsr.w	lr, r2, ip
 8000468:	ea4e 0e03 	orr.w	lr, lr, r3
 800046c:	fa01 f407 	lsl.w	r4, r1, r7
 8000470:	fa20 f50c 	lsr.w	r5, r0, ip
 8000474:	fa21 f30c 	lsr.w	r3, r1, ip
 8000478:	ea4f 481e 	mov.w	r8, lr, lsr #16
 800047c:	4325      	orrs	r5, r4
 800047e:	fbb3 f9f8 	udiv	r9, r3, r8
 8000482:	0c2c      	lsrs	r4, r5, #16
 8000484:	fb08 3319 	mls	r3, r8, r9, r3
 8000488:	fa1f fa8e 	uxth.w	sl, lr
 800048c:	ea44 4303 	orr.w	r3, r4, r3, lsl #16
 8000490:	fb09 f40a 	mul.w	r4, r9, sl
 8000494:	429c      	cmp	r4, r3
 8000496:	fa02 f207 	lsl.w	r2, r2, r7
 800049a:	fa00 f107 	lsl.w	r1, r0, r7
 800049e:	d90b      	bls.n	80004b8 <__udivmoddi4+0x1b0>
 80004a0:	eb1e 0303 	adds.w	r3, lr, r3
 80004a4:	f109 30ff 	add.w	r0, r9, #4294967295	; 0xffffffff
 80004a8:	f080 8087 	bcs.w	80005ba <__udivmoddi4+0x2b2>
 80004ac:	429c      	cmp	r4, r3
 80004ae:	f240 8084 	bls.w	80005ba <__udivmoddi4+0x2b2>
 80004b2:	f1a9 0902 	sub.w	r9, r9, #2
 80004b6:	4473      	add	r3, lr
 80004b8:	1b1b      	subs	r3, r3, r4
 80004ba:	b2ad      	uxth	r5, r5
 80004bc:	fbb3 f0f8 	udiv	r0, r3, r8
 80004c0:	fb08 3310 	mls	r3, r8, r0, r3
 80004c4:	ea45 4403 	orr.w	r4, r5, r3, lsl #16
 80004c8:	fb00 fa0a 	mul.w	sl, r0, sl
 80004cc:	45a2      	cmp	sl, r4
 80004ce:	d908      	bls.n	80004e2 <__udivmoddi4+0x1da>
 80004d0:	eb1e 0404 	adds.w	r4, lr, r4
 80004d4:	f100 33ff 	add.w	r3, r0, #4294967295	; 0xffffffff
 80004d8:	d26b      	bcs.n	80005b2 <__udivmoddi4+0x2aa>
 80004da:	45a2      	cmp	sl, r4
 80004dc:	d969      	bls.n	80005b2 <__udivmoddi4+0x2aa>
 80004de:	3802      	subs	r0, #2
 80004e0:	4474      	add	r4, lr
 80004e2:	ea40 4009 	orr.w	r0, r0, r9, lsl #16
 80004e6:	fba0 8902 	umull	r8, r9, r0, r2
 80004ea:	eba4 040a 	sub.w	r4, r4, sl
 80004ee:	454c      	cmp	r4, r9
 80004f0:	46c2      	mov	sl, r8
 80004f2:	464b      	mov	r3, r9
 80004f4:	d354      	bcc.n	80005a0 <__udivmoddi4+0x298>
 80004f6:	d051      	beq.n	800059c <__udivmoddi4+0x294>
 80004f8:	2e00      	cmp	r6, #0
 80004fa:	d069      	beq.n	80005d0 <__udivmoddi4+0x2c8>
 80004fc:	ebb1 050a 	subs.w	r5, r1, sl
 8000500:	eb64 0403 	sbc.w	r4, r4, r3
 8000504:	fa04 fc0c 	lsl.w	ip, r4, ip
 8000508:	40fd      	lsrs	r5, r7
 800050a:	40fc      	lsrs	r4, r7
 800050c:	ea4c 0505 	orr.w	r5, ip, r5
 8000510:	e9c6 5400 	strd	r5, r4, [r6]
 8000514:	2700      	movs	r7, #0
 8000516:	e747      	b.n	80003a8 <__udivmoddi4+0xa0>
 8000518:	f1c2 0320 	rsb	r3, r2, #32
 800051c:	fa20 f703 	lsr.w	r7, r0, r3
 8000520:	4095      	lsls	r5, r2
 8000522:	fa01 f002 	lsl.w	r0, r1, r2
 8000526:	fa21 f303 	lsr.w	r3, r1, r3
 800052a:	ea4f 4e15 	mov.w	lr, r5, lsr #16
 800052e:	4338      	orrs	r0, r7
 8000530:	0c01      	lsrs	r1, r0, #16
 8000532:	fbb3 f7fe 	udiv	r7, r3, lr
 8000536:	fa1f f885 	uxth.w	r8, r5
 800053a:	fb0e 3317 	mls	r3, lr, r7, r3
 800053e:	ea41 4103 	orr.w	r1, r1, r3, lsl #16
 8000542:	fb07 f308 	mul.w	r3, r7, r8
 8000546:	428b      	cmp	r3, r1
 8000548:	fa04 f402 	lsl.w	r4, r4, r2
 800054c:	d907      	bls.n	800055e <__udivmoddi4+0x256>
 800054e:	1869      	adds	r1, r5, r1
 8000550:	f107 3cff 	add.w	ip, r7, #4294967295	; 0xffffffff
 8000554:	d22f      	bcs.n	80005b6 <__udivmoddi4+0x2ae>
 8000556:	428b      	cmp	r3, r1
 8000558:	d92d      	bls.n	80005b6 <__udivmoddi4+0x2ae>
 800055a:	3f02      	subs	r7, #2
 800055c:	4429      	add	r1, r5
 800055e:	1acb      	subs	r3, r1, r3
 8000560:	b281      	uxth	r1, r0
 8000562:	fbb3 f0fe 	udiv	r0, r3, lr
 8000566:	fb0e 3310 	mls	r3, lr, r0, r3
 800056a:	ea41 4103 	orr.w	r1, r1, r3, lsl #16
 800056e:	fb00 f308 	mul.w	r3, r0, r8
 8000572:	428b      	cmp	r3, r1
 8000574:	d907      	bls.n	8000586 <__udivmoddi4+0x27e>
 8000576:	1869      	adds	r1, r5, r1
 8000578:	f100 3cff 	add.w	ip, r0, #4294967295	; 0xffffffff
 800057c:	d217      	bcs.n	80005ae <__udivmoddi4+0x2a6>
 800057e:	428b      	cmp	r3, r1
 8000580:	d915      	bls.n	80005ae <__udivmoddi4+0x2a6>
 8000582:	3802      	subs	r0, #2
 8000584:	4429      	add	r1, r5
 8000586:	1ac9      	subs	r1, r1, r3
 8000588:	ea40 4707 	orr.w	r7, r0, r7, lsl #16
 800058c:	e73b      	b.n	8000406 <__udivmoddi4+0xfe>
 800058e:	4637      	mov	r7, r6
 8000590:	4630      	mov	r0, r6
 8000592:	e709      	b.n	80003a8 <__udivmoddi4+0xa0>
 8000594:	4607      	mov	r7, r0
 8000596:	e6e7      	b.n	8000368 <__udivmoddi4+0x60>
 8000598:	4618      	mov	r0, r3
 800059a:	e6fb      	b.n	8000394 <__udivmoddi4+0x8c>
 800059c:	4541      	cmp	r1, r8
 800059e:	d2ab      	bcs.n	80004f8 <__udivmoddi4+0x1f0>
 80005a0:	ebb8 0a02 	subs.w	sl, r8, r2
 80005a4:	eb69 020e 	sbc.w	r2, r9, lr
 80005a8:	3801      	subs	r0, #1
 80005aa:	4613      	mov	r3, r2
 80005ac:	e7a4      	b.n	80004f8 <__udivmoddi4+0x1f0>
 80005ae:	4660      	mov	r0, ip
 80005b0:	e7e9      	b.n	8000586 <__udivmoddi4+0x27e>
 80005b2:	4618      	mov	r0, r3
 80005b4:	e795      	b.n	80004e2 <__udivmoddi4+0x1da>
 80005b6:	4667      	mov	r7, ip
 80005b8:	e7d1      	b.n	800055e <__udivmoddi4+0x256>
 80005ba:	4681      	mov	r9, r0
 80005bc:	e77c      	b.n	80004b8 <__udivmoddi4+0x1b0>
 80005be:	3802      	subs	r0, #2
 80005c0:	442c      	add	r4, r5
 80005c2:	e747      	b.n	8000454 <__udivmoddi4+0x14c>
 80005c4:	f1ac 0c02 	sub.w	ip, ip, #2
 80005c8:	442b      	add	r3, r5
 80005ca:	e72f      	b.n	800042c <__udivmoddi4+0x124>
 80005cc:	4638      	mov	r0, r7
 80005ce:	e708      	b.n	80003e2 <__udivmoddi4+0xda>
 80005d0:	4637      	mov	r7, r6
 80005d2:	e6e9      	b.n	80003a8 <__udivmoddi4+0xa0>

080005d4 <__aeabi_idiv0>:
 80005d4:	4770      	bx	lr
 80005d6:	bf00      	nop

080005d8 <SystemInit>:
  *         configuration.
  * @param  None
  * @retval None
  */
void SystemInit (void)
{
 80005d8:	b480      	push	{r7}
 80005da:	af00      	add	r7, sp, #0
  /* FPU settings ------------------------------------------------------------*/
  #if (__FPU_PRESENT == 1) && (__FPU_USED == 1)
    SCB->CPACR |= ((3UL << (10*2))|(3UL << (11*2)));  /* set CP10 and CP11 Full Access */
 80005dc:	4b3f      	ldr	r3, [pc, #252]	; (80006dc <SystemInit+0x104>)
 80005de:	f8d3 3088 	ldr.w	r3, [r3, #136]	; 0x88
 80005e2:	4a3e      	ldr	r2, [pc, #248]	; (80006dc <SystemInit+0x104>)
 80005e4:	f443 0370 	orr.w	r3, r3, #15728640	; 0xf00000
 80005e8:	f8c2 3088 	str.w	r3, [r2, #136]	; 0x88
  #endif

    /*SEVONPEND enabled so that an interrupt coming from the CPU(n) interrupt signal is
     detectable by the CPU after a WFI/WFE instruction.*/
 SCB->SCR |= SCB_SCR_SEVONPEND_Msk;
 80005ec:	4b3b      	ldr	r3, [pc, #236]	; (80006dc <SystemInit+0x104>)
 80005ee:	691b      	ldr	r3, [r3, #16]
 80005f0:	4a3a      	ldr	r2, [pc, #232]	; (80006dc <SystemInit+0x104>)
 80005f2:	f043 0310 	orr.w	r3, r3, #16
 80005f6:	6113      	str	r3, [r2, #16]

#ifdef CORE_CM7
  /* Reset the RCC clock configuration to the default reset state ------------*/
   /* Increasing the CPU frequency */
  if(FLASH_LATENCY_DEFAULT  > (READ_BIT((FLASH->ACR), FLASH_ACR_LATENCY)))
 80005f8:	4b39      	ldr	r3, [pc, #228]	; (80006e0 <SystemInit+0x108>)
 80005fa:	681b      	ldr	r3, [r3, #0]
 80005fc:	f003 030f 	and.w	r3, r3, #15
 8000600:	2b06      	cmp	r3, #6
 8000602:	d807      	bhi.n	8000614 <SystemInit+0x3c>
  {
    /* Program the new number of wait states to the LATENCY bits in the FLASH_ACR register */
	MODIFY_REG(FLASH->ACR, FLASH_ACR_LATENCY, (uint32_t)(FLASH_LATENCY_DEFAULT));
 8000604:	4b36      	ldr	r3, [pc, #216]	; (80006e0 <SystemInit+0x108>)
 8000606:	681b      	ldr	r3, [r3, #0]
 8000608:	f023 030f 	bic.w	r3, r3, #15
 800060c:	4a34      	ldr	r2, [pc, #208]	; (80006e0 <SystemInit+0x108>)
 800060e:	f043 0307 	orr.w	r3, r3, #7
 8000612:	6013      	str	r3, [r2, #0]
  }

  /* Set HSION bit */
  RCC->CR |= RCC_CR_HSION;
 8000614:	4b33      	ldr	r3, [pc, #204]	; (80006e4 <SystemInit+0x10c>)
 8000616:	681b      	ldr	r3, [r3, #0]
 8000618:	4a32      	ldr	r2, [pc, #200]	; (80006e4 <SystemInit+0x10c>)
 800061a:	f043 0301 	orr.w	r3, r3, #1
 800061e:	6013      	str	r3, [r2, #0]

  /* Reset CFGR register */
  RCC->CFGR = 0x00000000;
 8000620:	4b30      	ldr	r3, [pc, #192]	; (80006e4 <SystemInit+0x10c>)
 8000622:	2200      	movs	r2, #0
 8000624:	611a      	str	r2, [r3, #16]

  /* Reset HSEON, HSECSSON, CSION, RC48ON, CSIKERON, PLL1ON, PLL2ON and PLL3ON bits */
  RCC->CR &= 0xEAF6ED7FU;
 8000626:	4b2f      	ldr	r3, [pc, #188]	; (80006e4 <SystemInit+0x10c>)
 8000628:	681a      	ldr	r2, [r3, #0]
 800062a:	492e      	ldr	r1, [pc, #184]	; (80006e4 <SystemInit+0x10c>)
 800062c:	4b2e      	ldr	r3, [pc, #184]	; (80006e8 <SystemInit+0x110>)
 800062e:	4013      	ands	r3, r2
 8000630:	600b      	str	r3, [r1, #0]

   /* Decreasing the number of wait states because of lower CPU frequency */
  if(FLASH_LATENCY_DEFAULT  < (READ_BIT((FLASH->ACR), FLASH_ACR_LATENCY)))
 8000632:	4b2b      	ldr	r3, [pc, #172]	; (80006e0 <SystemInit+0x108>)
 8000634:	681b      	ldr	r3, [r3, #0]
 8000636:	f003 030f 	and.w	r3, r3, #15
 800063a:	2b07      	cmp	r3, #7
 800063c:	d907      	bls.n	800064e <SystemInit+0x76>
  {
    /* Program the new number of wait states to the LATENCY bits in the FLASH_ACR register */
	MODIFY_REG(FLASH->ACR, FLASH_ACR_LATENCY, (uint32_t)(FLASH_LATENCY_DEFAULT));
 800063e:	4b28      	ldr	r3, [pc, #160]	; (80006e0 <SystemInit+0x108>)
 8000640:	681b      	ldr	r3, [r3, #0]
 8000642:	f023 030f 	bic.w	r3, r3, #15
 8000646:	4a26      	ldr	r2, [pc, #152]	; (80006e0 <SystemInit+0x108>)
 8000648:	f043 0307 	orr.w	r3, r3, #7
 800064c:	6013      	str	r3, [r2, #0]
  }

  /* Reset D1CFGR register */
  RCC->D1CFGR = 0x00000000;
 800064e:	4b25      	ldr	r3, [pc, #148]	; (80006e4 <SystemInit+0x10c>)
 8000650:	2200      	movs	r2, #0
 8000652:	619a      	str	r2, [r3, #24]

  /* Reset D2CFGR register */
  RCC->D2CFGR = 0x00000000;
 8000654:	4b23      	ldr	r3, [pc, #140]	; (80006e4 <SystemInit+0x10c>)
 8000656:	2200      	movs	r2, #0
 8000658:	61da      	str	r2, [r3, #28]

  /* Reset D3CFGR register */
  RCC->D3CFGR = 0x00000000;
 800065a:	4b22      	ldr	r3, [pc, #136]	; (80006e4 <SystemInit+0x10c>)
 800065c:	2200      	movs	r2, #0
 800065e:	621a      	str	r2, [r3, #32]

  /* Reset PLLCKSELR register */
  RCC->PLLCKSELR = 0x02020200;
 8000660:	4b20      	ldr	r3, [pc, #128]	; (80006e4 <SystemInit+0x10c>)
 8000662:	4a22      	ldr	r2, [pc, #136]	; (80006ec <SystemInit+0x114>)
 8000664:	629a      	str	r2, [r3, #40]	; 0x28

  /* Reset PLLCFGR register */
  RCC->PLLCFGR = 0x01FF0000;
 8000666:	4b1f      	ldr	r3, [pc, #124]	; (80006e4 <SystemInit+0x10c>)
 8000668:	4a21      	ldr	r2, [pc, #132]	; (80006f0 <SystemInit+0x118>)
 800066a:	62da      	str	r2, [r3, #44]	; 0x2c
  /* Reset PLL1DIVR register */
  RCC->PLL1DIVR = 0x01010280;
 800066c:	4b1d      	ldr	r3, [pc, #116]	; (80006e4 <SystemInit+0x10c>)
 800066e:	4a21      	ldr	r2, [pc, #132]	; (80006f4 <SystemInit+0x11c>)
 8000670:	631a      	str	r2, [r3, #48]	; 0x30
  /* Reset PLL1FRACR register */
  RCC->PLL1FRACR = 0x00000000;
 8000672:	4b1c      	ldr	r3, [pc, #112]	; (80006e4 <SystemInit+0x10c>)
 8000674:	2200      	movs	r2, #0
 8000676:	635a      	str	r2, [r3, #52]	; 0x34

  /* Reset PLL2DIVR register */
  RCC->PLL2DIVR = 0x01010280;
 8000678:	4b1a      	ldr	r3, [pc, #104]	; (80006e4 <SystemInit+0x10c>)
 800067a:	4a1e      	ldr	r2, [pc, #120]	; (80006f4 <SystemInit+0x11c>)
 800067c:	639a      	str	r2, [r3, #56]	; 0x38

  /* Reset PLL2FRACR register */

  RCC->PLL2FRACR = 0x00000000;
 800067e:	4b19      	ldr	r3, [pc, #100]	; (80006e4 <SystemInit+0x10c>)
 8000680:	2200      	movs	r2, #0
 8000682:	63da      	str	r2, [r3, #60]	; 0x3c
  /* Reset PLL3DIVR register */
  RCC->PLL3DIVR = 0x01010280;
 8000684:	4b17      	ldr	r3, [pc, #92]	; (80006e4 <SystemInit+0x10c>)
 8000686:	4a1b      	ldr	r2, [pc, #108]	; (80006f4 <SystemInit+0x11c>)
 8000688:	641a      	str	r2, [r3, #64]	; 0x40

  /* Reset PLL3FRACR register */
  RCC->PLL3FRACR = 0x00000000;
 800068a:	4b16      	ldr	r3, [pc, #88]	; (80006e4 <SystemInit+0x10c>)
 800068c:	2200      	movs	r2, #0
 800068e:	645a      	str	r2, [r3, #68]	; 0x44

  /* Reset HSEBYP bit */
  RCC->CR &= 0xFFFBFFFFU;
 8000690:	4b14      	ldr	r3, [pc, #80]	; (80006e4 <SystemInit+0x10c>)
 8000692:	681b      	ldr	r3, [r3, #0]
 8000694:	4a13      	ldr	r2, [pc, #76]	; (80006e4 <SystemInit+0x10c>)
 8000696:	f423 2380 	bic.w	r3, r3, #262144	; 0x40000
 800069a:	6013      	str	r3, [r2, #0]

  /* Disable all interrupts */
  RCC->CIER = 0x00000000;
 800069c:	4b11      	ldr	r3, [pc, #68]	; (80006e4 <SystemInit+0x10c>)
 800069e:	2200      	movs	r2, #0
 80006a0:	661a      	str	r2, [r3, #96]	; 0x60

  /* Enable CortexM7 HSEM EXTI line (line 78)*/
  EXTI_D2->EMR3 |= 0x4000UL;
 80006a2:	4b15      	ldr	r3, [pc, #84]	; (80006f8 <SystemInit+0x120>)
 80006a4:	6a5b      	ldr	r3, [r3, #36]	; 0x24
 80006a6:	4a14      	ldr	r2, [pc, #80]	; (80006f8 <SystemInit+0x120>)
 80006a8:	f443 4380 	orr.w	r3, r3, #16384	; 0x4000
 80006ac:	6253      	str	r3, [r2, #36]	; 0x24


  if((DBGMCU->IDCODE & 0xFFFF0000U) < 0x20000000U)
 80006ae:	4b13      	ldr	r3, [pc, #76]	; (80006fc <SystemInit+0x124>)
 80006b0:	681a      	ldr	r2, [r3, #0]
 80006b2:	4b13      	ldr	r3, [pc, #76]	; (8000700 <SystemInit+0x128>)
 80006b4:	4013      	ands	r3, r2
 80006b6:	f1b3 5f00 	cmp.w	r3, #536870912	; 0x20000000
 80006ba:	d202      	bcs.n	80006c2 <SystemInit+0xea>
  {
    /* if stm32h7 revY*/
    /* Change  the switch matrix read issuing capability to 1 for the AXI SRAM target (Target 7) */
    *((__IO uint32_t*)0x51008108) = 0x000000001U;
 80006bc:	4b11      	ldr	r3, [pc, #68]	; (8000704 <SystemInit+0x12c>)
 80006be:	2201      	movs	r2, #1
 80006c0:	601a      	str	r2, [r3, #0]
  /*
   * Disable the FMC bank1 (enabled after reset).
   * This, prevents CPU speculation access on this bank which blocks the use of FMC during
   * 24us. During this time the others FMC master (such as LTDC) cannot use it!
   */
  FMC_Bank1_R->BTCR[0] = 0x000030D2;
 80006c2:	4b11      	ldr	r3, [pc, #68]	; (8000708 <SystemInit+0x130>)
 80006c4:	f243 02d2 	movw	r2, #12498	; 0x30d2
 80006c8:	601a      	str	r2, [r3, #0]

  /* Configure the Vector Table location add offset address ------------------*/
#ifdef VECT_TAB_SRAM
  SCB->VTOR = D1_AXISRAM_BASE  | VECT_TAB_OFFSET; /* Vector Table Relocation in Internal D1 AXI-RAM */
#else
  SCB->VTOR = FLASH_BANK1_BASE | VECT_TAB_OFFSET;       /* Vector Table Relocation in Internal FLASH */
 80006ca:	4b04      	ldr	r3, [pc, #16]	; (80006dc <SystemInit+0x104>)
 80006cc:	f04f 6200 	mov.w	r2, #134217728	; 0x8000000
 80006d0:	609a      	str	r2, [r3, #8]
#else
#error Please #define CORE_CM4 or CORE_CM7
#endif
#endif

}
 80006d2:	bf00      	nop
 80006d4:	46bd      	mov	sp, r7
 80006d6:	f85d 7b04 	ldr.w	r7, [sp], #4
 80006da:	4770      	bx	lr
 80006dc:	e000ed00 	.word	0xe000ed00
 80006e0:	52002000 	.word	0x52002000
 80006e4:	58024400 	.word	0x58024400
 80006e8:	eaf6ed7f 	.word	0xeaf6ed7f
 80006ec:	02020200 	.word	0x02020200
 80006f0:	01ff0000 	.word	0x01ff0000
 80006f4:	01010280 	.word	0x01010280
 80006f8:	580000c0 	.word	0x580000c0
 80006fc:	5c001000 	.word	0x5c001000
 8000700:	ffff0000 	.word	0xffff0000
 8000704:	51008108 	.word	0x51008108
 8000708:	52004000 	.word	0x52004000

0800070c <MX_ADC1_Init>:
ADC_HandleTypeDef hadc1;
ADC_HandleTypeDef hadc2;

/* ADC1 init function */
void MX_ADC1_Init(void)
{
 800070c:	b580      	push	{r7, lr}
 800070e:	b08a      	sub	sp, #40	; 0x28
 8000710:	af00      	add	r7, sp, #0
  ADC_MultiModeTypeDef multimode = {0};
 8000712:	f107 031c 	add.w	r3, r7, #28
 8000716:	2200      	movs	r2, #0
 8000718:	601a      	str	r2, [r3, #0]
 800071a:	605a      	str	r2, [r3, #4]
 800071c:	609a      	str	r2, [r3, #8]
  ADC_ChannelConfTypeDef sConfig = {0};
 800071e:	463b      	mov	r3, r7
 8000720:	2200      	movs	r2, #0
 8000722:	601a      	str	r2, [r3, #0]
 8000724:	605a      	str	r2, [r3, #4]
 8000726:	609a      	str	r2, [r3, #8]
 8000728:	60da      	str	r2, [r3, #12]
 800072a:	611a      	str	r2, [r3, #16]
 800072c:	615a      	str	r2, [r3, #20]
 800072e:	619a      	str	r2, [r3, #24]

  /** Common config
  */
  hadc1.Instance = ADC1;
 8000730:	4b2f      	ldr	r3, [pc, #188]	; (80007f0 <MX_ADC1_Init+0xe4>)
 8000732:	4a30      	ldr	r2, [pc, #192]	; (80007f4 <MX_ADC1_Init+0xe8>)
 8000734:	601a      	str	r2, [r3, #0]
  hadc1.Init.ClockPrescaler = ADC_CLOCK_ASYNC_DIV1;
 8000736:	4b2e      	ldr	r3, [pc, #184]	; (80007f0 <MX_ADC1_Init+0xe4>)
 8000738:	2200      	movs	r2, #0
 800073a:	605a      	str	r2, [r3, #4]
  hadc1.Init.Resolution = ADC_RESOLUTION_16B;
 800073c:	4b2c      	ldr	r3, [pc, #176]	; (80007f0 <MX_ADC1_Init+0xe4>)
 800073e:	2200      	movs	r2, #0
 8000740:	609a      	str	r2, [r3, #8]
  hadc1.Init.ScanConvMode = ADC_SCAN_DISABLE;
 8000742:	4b2b      	ldr	r3, [pc, #172]	; (80007f0 <MX_ADC1_Init+0xe4>)
 8000744:	2200      	movs	r2, #0
 8000746:	60da      	str	r2, [r3, #12]
  hadc1.Init.EOCSelection = ADC_EOC_SINGLE_CONV;
 8000748:	4b29      	ldr	r3, [pc, #164]	; (80007f0 <MX_ADC1_Init+0xe4>)
 800074a:	2204      	movs	r2, #4
 800074c:	611a      	str	r2, [r3, #16]
  hadc1.Init.LowPowerAutoWait = DISABLE;
 800074e:	4b28      	ldr	r3, [pc, #160]	; (80007f0 <MX_ADC1_Init+0xe4>)
 8000750:	2200      	movs	r2, #0
 8000752:	751a      	strb	r2, [r3, #20]
  hadc1.Init.ContinuousConvMode = DISABLE;
 8000754:	4b26      	ldr	r3, [pc, #152]	; (80007f0 <MX_ADC1_Init+0xe4>)
 8000756:	2200      	movs	r2, #0
 8000758:	755a      	strb	r2, [r3, #21]
  hadc1.Init.NbrOfConversion = 1;
 800075a:	4b25      	ldr	r3, [pc, #148]	; (80007f0 <MX_ADC1_Init+0xe4>)
 800075c:	2201      	movs	r2, #1
 800075e:	619a      	str	r2, [r3, #24]
  hadc1.Init.DiscontinuousConvMode = DISABLE;
 8000760:	4b23      	ldr	r3, [pc, #140]	; (80007f0 <MX_ADC1_Init+0xe4>)
 8000762:	2200      	movs	r2, #0
 8000764:	771a      	strb	r2, [r3, #28]
  hadc1.Init.ExternalTrigConv = ADC_SOFTWARE_START;
 8000766:	4b22      	ldr	r3, [pc, #136]	; (80007f0 <MX_ADC1_Init+0xe4>)
 8000768:	2200      	movs	r2, #0
 800076a:	625a      	str	r2, [r3, #36]	; 0x24
  hadc1.Init.ExternalTrigConvEdge = ADC_EXTERNALTRIGCONVEDGE_NONE;
 800076c:	4b20      	ldr	r3, [pc, #128]	; (80007f0 <MX_ADC1_Init+0xe4>)
 800076e:	2200      	movs	r2, #0
 8000770:	629a      	str	r2, [r3, #40]	; 0x28
  hadc1.Init.ConversionDataManagement = ADC_CONVERSIONDATA_DR;
 8000772:	4b1f      	ldr	r3, [pc, #124]	; (80007f0 <MX_ADC1_Init+0xe4>)
 8000774:	2200      	movs	r2, #0
 8000776:	62da      	str	r2, [r3, #44]	; 0x2c
  hadc1.Init.Overrun = ADC_OVR_DATA_PRESERVED;
 8000778:	4b1d      	ldr	r3, [pc, #116]	; (80007f0 <MX_ADC1_Init+0xe4>)
 800077a:	2200      	movs	r2, #0
 800077c:	631a      	str	r2, [r3, #48]	; 0x30
  hadc1.Init.LeftBitShift = ADC_LEFTBITSHIFT_NONE;
 800077e:	4b1c      	ldr	r3, [pc, #112]	; (80007f0 <MX_ADC1_Init+0xe4>)
 8000780:	2200      	movs	r2, #0
 8000782:	635a      	str	r2, [r3, #52]	; 0x34
  hadc1.Init.OversamplingMode = DISABLE;
 8000784:	4b1a      	ldr	r3, [pc, #104]	; (80007f0 <MX_ADC1_Init+0xe4>)
 8000786:	2200      	movs	r2, #0
 8000788:	f883 2038 	strb.w	r2, [r3, #56]	; 0x38
  if (HAL_ADC_Init(&hadc1) != HAL_OK)
 800078c:	4818      	ldr	r0, [pc, #96]	; (80007f0 <MX_ADC1_Init+0xe4>)
 800078e:	f001 f987 	bl	8001aa0 <HAL_ADC_Init>
 8000792:	4603      	mov	r3, r0
 8000794:	2b00      	cmp	r3, #0
 8000796:	d001      	beq.n	800079c <MX_ADC1_Init+0x90>
  {
    Error_Handler();
 8000798:	f000 fb8e 	bl	8000eb8 <Error_Handler>
  }
  /** Configure the ADC multi-mode
  */
  multimode.Mode = ADC_MODE_INDEPENDENT;
 800079c:	2300      	movs	r3, #0
 800079e:	61fb      	str	r3, [r7, #28]
  if (HAL_ADCEx_MultiModeConfigChannel(&hadc1, &multimode) != HAL_OK)
 80007a0:	f107 031c 	add.w	r3, r7, #28
 80007a4:	4619      	mov	r1, r3
 80007a6:	4812      	ldr	r0, [pc, #72]	; (80007f0 <MX_ADC1_Init+0xe4>)
 80007a8:	f001 ff4c 	bl	8002644 <HAL_ADCEx_MultiModeConfigChannel>
 80007ac:	4603      	mov	r3, r0
 80007ae:	2b00      	cmp	r3, #0
 80007b0:	d001      	beq.n	80007b6 <MX_ADC1_Init+0xaa>
  {
    Error_Handler();
 80007b2:	f000 fb81 	bl	8000eb8 <Error_Handler>
  }
  /** Configure Regular Channel
  */
  sConfig.Channel = ADC_CHANNEL_14;
 80007b6:	4b10      	ldr	r3, [pc, #64]	; (80007f8 <MX_ADC1_Init+0xec>)
 80007b8:	603b      	str	r3, [r7, #0]
  sConfig.Rank = ADC_REGULAR_RANK_1;
 80007ba:	2306      	movs	r3, #6
 80007bc:	607b      	str	r3, [r7, #4]
  sConfig.SamplingTime = ADC_SAMPLETIME_8CYCLES_5;
 80007be:	2302      	movs	r3, #2
 80007c0:	60bb      	str	r3, [r7, #8]
  sConfig.SingleDiff = ADC_SINGLE_ENDED;
 80007c2:	f240 73ff 	movw	r3, #2047	; 0x7ff
 80007c6:	60fb      	str	r3, [r7, #12]
  sConfig.OffsetNumber = ADC_OFFSET_NONE;
 80007c8:	2304      	movs	r3, #4
 80007ca:	613b      	str	r3, [r7, #16]
  sConfig.Offset = 0;
 80007cc:	2300      	movs	r3, #0
 80007ce:	617b      	str	r3, [r7, #20]
  sConfig.OffsetSignedSaturation = DISABLE;
 80007d0:	2300      	movs	r3, #0
 80007d2:	767b      	strb	r3, [r7, #25]
  if (HAL_ADC_ConfigChannel(&hadc1, &sConfig) != HAL_OK)
 80007d4:	463b      	mov	r3, r7
 80007d6:	4619      	mov	r1, r3
 80007d8:	4805      	ldr	r0, [pc, #20]	; (80007f0 <MX_ADC1_Init+0xe4>)
 80007da:	f001 fb01 	bl	8001de0 <HAL_ADC_ConfigChannel>
 80007de:	4603      	mov	r3, r0
 80007e0:	2b00      	cmp	r3, #0
 80007e2:	d001      	beq.n	80007e8 <MX_ADC1_Init+0xdc>
  {
    Error_Handler();
 80007e4:	f000 fb68 	bl	8000eb8 <Error_Handler>
  }

}
 80007e8:	bf00      	nop
 80007ea:	3728      	adds	r7, #40	; 0x28
 80007ec:	46bd      	mov	sp, r7
 80007ee:	bd80      	pop	{r7, pc}
 80007f0:	20000094 	.word	0x20000094
 80007f4:	40022000 	.word	0x40022000
 80007f8:	3ac04000 	.word	0x3ac04000

080007fc <MX_ADC2_Init>:
/* ADC2 init function */
void MX_ADC2_Init(void)
{
 80007fc:	b580      	push	{r7, lr}
 80007fe:	b088      	sub	sp, #32
 8000800:	af00      	add	r7, sp, #0
  ADC_ChannelConfTypeDef sConfig = {0};
 8000802:	1d3b      	adds	r3, r7, #4
 8000804:	2200      	movs	r2, #0
 8000806:	601a      	str	r2, [r3, #0]
 8000808:	605a      	str	r2, [r3, #4]
 800080a:	609a      	str	r2, [r3, #8]
 800080c:	60da      	str	r2, [r3, #12]
 800080e:	611a      	str	r2, [r3, #16]
 8000810:	615a      	str	r2, [r3, #20]
 8000812:	619a      	str	r2, [r3, #24]

  /** Common config
  */
  hadc2.Instance = ADC2;
 8000814:	4b29      	ldr	r3, [pc, #164]	; (80008bc <MX_ADC2_Init+0xc0>)
 8000816:	4a2a      	ldr	r2, [pc, #168]	; (80008c0 <MX_ADC2_Init+0xc4>)
 8000818:	601a      	str	r2, [r3, #0]
  hadc2.Init.ClockPrescaler = ADC_CLOCK_ASYNC_DIV1;
 800081a:	4b28      	ldr	r3, [pc, #160]	; (80008bc <MX_ADC2_Init+0xc0>)
 800081c:	2200      	movs	r2, #0
 800081e:	605a      	str	r2, [r3, #4]
  hadc2.Init.Resolution = ADC_RESOLUTION_16B;
 8000820:	4b26      	ldr	r3, [pc, #152]	; (80008bc <MX_ADC2_Init+0xc0>)
 8000822:	2200      	movs	r2, #0
 8000824:	609a      	str	r2, [r3, #8]
  hadc2.Init.ScanConvMode = ADC_SCAN_DISABLE;
 8000826:	4b25      	ldr	r3, [pc, #148]	; (80008bc <MX_ADC2_Init+0xc0>)
 8000828:	2200      	movs	r2, #0
 800082a:	60da      	str	r2, [r3, #12]
  hadc2.Init.EOCSelection = ADC_EOC_SINGLE_CONV;
 800082c:	4b23      	ldr	r3, [pc, #140]	; (80008bc <MX_ADC2_Init+0xc0>)
 800082e:	2204      	movs	r2, #4
 8000830:	611a      	str	r2, [r3, #16]
  hadc2.Init.LowPowerAutoWait = DISABLE;
 8000832:	4b22      	ldr	r3, [pc, #136]	; (80008bc <MX_ADC2_Init+0xc0>)
 8000834:	2200      	movs	r2, #0
 8000836:	751a      	strb	r2, [r3, #20]
  hadc2.Init.ContinuousConvMode = DISABLE;
 8000838:	4b20      	ldr	r3, [pc, #128]	; (80008bc <MX_ADC2_Init+0xc0>)
 800083a:	2200      	movs	r2, #0
 800083c:	755a      	strb	r2, [r3, #21]
  hadc2.Init.NbrOfConversion = 1;
 800083e:	4b1f      	ldr	r3, [pc, #124]	; (80008bc <MX_ADC2_Init+0xc0>)
 8000840:	2201      	movs	r2, #1
 8000842:	619a      	str	r2, [r3, #24]
  hadc2.Init.DiscontinuousConvMode = DISABLE;
 8000844:	4b1d      	ldr	r3, [pc, #116]	; (80008bc <MX_ADC2_Init+0xc0>)
 8000846:	2200      	movs	r2, #0
 8000848:	771a      	strb	r2, [r3, #28]
  hadc2.Init.ExternalTrigConv = ADC_SOFTWARE_START;
 800084a:	4b1c      	ldr	r3, [pc, #112]	; (80008bc <MX_ADC2_Init+0xc0>)
 800084c:	2200      	movs	r2, #0
 800084e:	625a      	str	r2, [r3, #36]	; 0x24
  hadc2.Init.ExternalTrigConvEdge = ADC_EXTERNALTRIGCONVEDGE_NONE;
 8000850:	4b1a      	ldr	r3, [pc, #104]	; (80008bc <MX_ADC2_Init+0xc0>)
 8000852:	2200      	movs	r2, #0
 8000854:	629a      	str	r2, [r3, #40]	; 0x28
  hadc2.Init.ConversionDataManagement = ADC_CONVERSIONDATA_DR;
 8000856:	4b19      	ldr	r3, [pc, #100]	; (80008bc <MX_ADC2_Init+0xc0>)
 8000858:	2200      	movs	r2, #0
 800085a:	62da      	str	r2, [r3, #44]	; 0x2c
  hadc2.Init.Overrun = ADC_OVR_DATA_PRESERVED;
 800085c:	4b17      	ldr	r3, [pc, #92]	; (80008bc <MX_ADC2_Init+0xc0>)
 800085e:	2200      	movs	r2, #0
 8000860:	631a      	str	r2, [r3, #48]	; 0x30
  hadc2.Init.LeftBitShift = ADC_LEFTBITSHIFT_NONE;
 8000862:	4b16      	ldr	r3, [pc, #88]	; (80008bc <MX_ADC2_Init+0xc0>)
 8000864:	2200      	movs	r2, #0
 8000866:	635a      	str	r2, [r3, #52]	; 0x34
  hadc2.Init.OversamplingMode = DISABLE;
 8000868:	4b14      	ldr	r3, [pc, #80]	; (80008bc <MX_ADC2_Init+0xc0>)
 800086a:	2200      	movs	r2, #0
 800086c:	f883 2038 	strb.w	r2, [r3, #56]	; 0x38
  if (HAL_ADC_Init(&hadc2) != HAL_OK)
 8000870:	4812      	ldr	r0, [pc, #72]	; (80008bc <MX_ADC2_Init+0xc0>)
 8000872:	f001 f915 	bl	8001aa0 <HAL_ADC_Init>
 8000876:	4603      	mov	r3, r0
 8000878:	2b00      	cmp	r3, #0
 800087a:	d001      	beq.n	8000880 <MX_ADC2_Init+0x84>
  {
    Error_Handler();
 800087c:	f000 fb1c 	bl	8000eb8 <Error_Handler>
  }
  /** Configure Regular Channel
  */
  sConfig.Channel = ADC_CHANNEL_18;
 8000880:	4b10      	ldr	r3, [pc, #64]	; (80008c4 <MX_ADC2_Init+0xc8>)
 8000882:	607b      	str	r3, [r7, #4]
  sConfig.Rank = ADC_REGULAR_RANK_1;
 8000884:	2306      	movs	r3, #6
 8000886:	60bb      	str	r3, [r7, #8]
  sConfig.SamplingTime = ADC_SAMPLETIME_8CYCLES_5;
 8000888:	2302      	movs	r3, #2
 800088a:	60fb      	str	r3, [r7, #12]
  sConfig.SingleDiff = ADC_SINGLE_ENDED;
 800088c:	f240 73ff 	movw	r3, #2047	; 0x7ff
 8000890:	613b      	str	r3, [r7, #16]
  sConfig.OffsetNumber = ADC_OFFSET_NONE;
 8000892:	2304      	movs	r3, #4
 8000894:	617b      	str	r3, [r7, #20]
  sConfig.Offset = 0;
 8000896:	2300      	movs	r3, #0
 8000898:	61bb      	str	r3, [r7, #24]
  sConfig.OffsetSignedSaturation = DISABLE;
 800089a:	2300      	movs	r3, #0
 800089c:	777b      	strb	r3, [r7, #29]
  if (HAL_ADC_ConfigChannel(&hadc2, &sConfig) != HAL_OK)
 800089e:	1d3b      	adds	r3, r7, #4
 80008a0:	4619      	mov	r1, r3
 80008a2:	4806      	ldr	r0, [pc, #24]	; (80008bc <MX_ADC2_Init+0xc0>)
 80008a4:	f001 fa9c 	bl	8001de0 <HAL_ADC_ConfigChannel>
 80008a8:	4603      	mov	r3, r0
 80008aa:	2b00      	cmp	r3, #0
 80008ac:	d001      	beq.n	80008b2 <MX_ADC2_Init+0xb6>
  {
    Error_Handler();
 80008ae:	f000 fb03 	bl	8000eb8 <Error_Handler>
  }

}
 80008b2:	bf00      	nop
 80008b4:	3720      	adds	r7, #32
 80008b6:	46bd      	mov	sp, r7
 80008b8:	bd80      	pop	{r7, pc}
 80008ba:	bf00      	nop
 80008bc:	20000030 	.word	0x20000030
 80008c0:	40022100 	.word	0x40022100
 80008c4:	4b840000 	.word	0x4b840000

080008c8 <HAL_ADC_MspInit>:

static uint32_t HAL_RCC_ADC12_CLK_ENABLED=0;

void HAL_ADC_MspInit(ADC_HandleTypeDef* adcHandle)
{
 80008c8:	b580      	push	{r7, lr}
 80008ca:	b08c      	sub	sp, #48	; 0x30
 80008cc:	af00      	add	r7, sp, #0
 80008ce:	6078      	str	r0, [r7, #4]

  GPIO_InitTypeDef GPIO_InitStruct = {0};
 80008d0:	f107 031c 	add.w	r3, r7, #28
 80008d4:	2200      	movs	r2, #0
 80008d6:	601a      	str	r2, [r3, #0]
 80008d8:	605a      	str	r2, [r3, #4]
 80008da:	609a      	str	r2, [r3, #8]
 80008dc:	60da      	str	r2, [r3, #12]
 80008de:	611a      	str	r2, [r3, #16]
  if(adcHandle->Instance==ADC1)
 80008e0:	687b      	ldr	r3, [r7, #4]
 80008e2:	681b      	ldr	r3, [r3, #0]
 80008e4:	4a39      	ldr	r2, [pc, #228]	; (80009cc <HAL_ADC_MspInit+0x104>)
 80008e6:	4293      	cmp	r3, r2
 80008e8:	d133      	bne.n	8000952 <HAL_ADC_MspInit+0x8a>
  {
  /* USER CODE BEGIN ADC1_MspInit 0 */

  /* USER CODE END ADC1_MspInit 0 */
    /* ADC1 clock enable */
    HAL_RCC_ADC12_CLK_ENABLED++;
 80008ea:	4b39      	ldr	r3, [pc, #228]	; (80009d0 <HAL_ADC_MspInit+0x108>)
 80008ec:	681b      	ldr	r3, [r3, #0]
 80008ee:	3301      	adds	r3, #1
 80008f0:	4a37      	ldr	r2, [pc, #220]	; (80009d0 <HAL_ADC_MspInit+0x108>)
 80008f2:	6013      	str	r3, [r2, #0]
    if(HAL_RCC_ADC12_CLK_ENABLED==1){
 80008f4:	4b36      	ldr	r3, [pc, #216]	; (80009d0 <HAL_ADC_MspInit+0x108>)
 80008f6:	681b      	ldr	r3, [r3, #0]
 80008f8:	2b01      	cmp	r3, #1
 80008fa:	d10e      	bne.n	800091a <HAL_ADC_MspInit+0x52>
      __HAL_RCC_ADC12_CLK_ENABLE();
 80008fc:	4b35      	ldr	r3, [pc, #212]	; (80009d4 <HAL_ADC_MspInit+0x10c>)
 80008fe:	f8d3 30d8 	ldr.w	r3, [r3, #216]	; 0xd8
 8000902:	4a34      	ldr	r2, [pc, #208]	; (80009d4 <HAL_ADC_MspInit+0x10c>)
 8000904:	f043 0320 	orr.w	r3, r3, #32
 8000908:	f8c2 30d8 	str.w	r3, [r2, #216]	; 0xd8
 800090c:	4b31      	ldr	r3, [pc, #196]	; (80009d4 <HAL_ADC_MspInit+0x10c>)
 800090e:	f8d3 30d8 	ldr.w	r3, [r3, #216]	; 0xd8
 8000912:	f003 0320 	and.w	r3, r3, #32
 8000916:	61bb      	str	r3, [r7, #24]
 8000918:	69bb      	ldr	r3, [r7, #24]
    }

    __HAL_RCC_GPIOA_CLK_ENABLE();
 800091a:	4b2e      	ldr	r3, [pc, #184]	; (80009d4 <HAL_ADC_MspInit+0x10c>)
 800091c:	f8d3 30e0 	ldr.w	r3, [r3, #224]	; 0xe0
 8000920:	4a2c      	ldr	r2, [pc, #176]	; (80009d4 <HAL_ADC_MspInit+0x10c>)
 8000922:	f043 0301 	orr.w	r3, r3, #1
 8000926:	f8c2 30e0 	str.w	r3, [r2, #224]	; 0xe0
 800092a:	4b2a      	ldr	r3, [pc, #168]	; (80009d4 <HAL_ADC_MspInit+0x10c>)
 800092c:	f8d3 30e0 	ldr.w	r3, [r3, #224]	; 0xe0
 8000930:	f003 0301 	and.w	r3, r3, #1
 8000934:	617b      	str	r3, [r7, #20]
 8000936:	697b      	ldr	r3, [r7, #20]
    /**ADC1 GPIO Configuration
    PA2     ------> ADC1_INP14
    */
    GPIO_InitStruct.Pin = BAT_ADC_Pin;
 8000938:	2304      	movs	r3, #4
 800093a:	61fb      	str	r3, [r7, #28]
    GPIO_InitStruct.Mode = GPIO_MODE_ANALOG;
 800093c:	2303      	movs	r3, #3
 800093e:	623b      	str	r3, [r7, #32]
    GPIO_InitStruct.Pull = GPIO_NOPULL;
 8000940:	2300      	movs	r3, #0
 8000942:	627b      	str	r3, [r7, #36]	; 0x24
    HAL_GPIO_Init(BAT_ADC_GPIO_Port, &GPIO_InitStruct);
 8000944:	f107 031c 	add.w	r3, r7, #28
 8000948:	4619      	mov	r1, r3
 800094a:	4823      	ldr	r0, [pc, #140]	; (80009d8 <HAL_ADC_MspInit+0x110>)
 800094c:	f002 faa8 	bl	8002ea0 <HAL_GPIO_Init>

  /* USER CODE BEGIN ADC2_MspInit 1 */

  /* USER CODE END ADC2_MspInit 1 */
  }
}
 8000950:	e037      	b.n	80009c2 <HAL_ADC_MspInit+0xfa>
  else if(adcHandle->Instance==ADC2)
 8000952:	687b      	ldr	r3, [r7, #4]
 8000954:	681b      	ldr	r3, [r3, #0]
 8000956:	4a21      	ldr	r2, [pc, #132]	; (80009dc <HAL_ADC_MspInit+0x114>)
 8000958:	4293      	cmp	r3, r2
 800095a:	d132      	bne.n	80009c2 <HAL_ADC_MspInit+0xfa>
    HAL_RCC_ADC12_CLK_ENABLED++;
 800095c:	4b1c      	ldr	r3, [pc, #112]	; (80009d0 <HAL_ADC_MspInit+0x108>)
 800095e:	681b      	ldr	r3, [r3, #0]
 8000960:	3301      	adds	r3, #1
 8000962:	4a1b      	ldr	r2, [pc, #108]	; (80009d0 <HAL_ADC_MspInit+0x108>)
 8000964:	6013      	str	r3, [r2, #0]
    if(HAL_RCC_ADC12_CLK_ENABLED==1){
 8000966:	4b1a      	ldr	r3, [pc, #104]	; (80009d0 <HAL_ADC_MspInit+0x108>)
 8000968:	681b      	ldr	r3, [r3, #0]
 800096a:	2b01      	cmp	r3, #1
 800096c:	d10e      	bne.n	800098c <HAL_ADC_MspInit+0xc4>
      __HAL_RCC_ADC12_CLK_ENABLE();
 800096e:	4b19      	ldr	r3, [pc, #100]	; (80009d4 <HAL_ADC_MspInit+0x10c>)
 8000970:	f8d3 30d8 	ldr.w	r3, [r3, #216]	; 0xd8
 8000974:	4a17      	ldr	r2, [pc, #92]	; (80009d4 <HAL_ADC_MspInit+0x10c>)
 8000976:	f043 0320 	orr.w	r3, r3, #32
 800097a:	f8c2 30d8 	str.w	r3, [r2, #216]	; 0xd8
 800097e:	4b15      	ldr	r3, [pc, #84]	; (80009d4 <HAL_ADC_MspInit+0x10c>)
 8000980:	f8d3 30d8 	ldr.w	r3, [r3, #216]	; 0xd8
 8000984:	f003 0320 	and.w	r3, r3, #32
 8000988:	613b      	str	r3, [r7, #16]
 800098a:	693b      	ldr	r3, [r7, #16]
    __HAL_RCC_GPIOA_CLK_ENABLE();
 800098c:	4b11      	ldr	r3, [pc, #68]	; (80009d4 <HAL_ADC_MspInit+0x10c>)
 800098e:	f8d3 30e0 	ldr.w	r3, [r3, #224]	; 0xe0
 8000992:	4a10      	ldr	r2, [pc, #64]	; (80009d4 <HAL_ADC_MspInit+0x10c>)
 8000994:	f043 0301 	orr.w	r3, r3, #1
 8000998:	f8c2 30e0 	str.w	r3, [r2, #224]	; 0xe0
 800099c:	4b0d      	ldr	r3, [pc, #52]	; (80009d4 <HAL_ADC_MspInit+0x10c>)
 800099e:	f8d3 30e0 	ldr.w	r3, [r3, #224]	; 0xe0
 80009a2:	f003 0301 	and.w	r3, r3, #1
 80009a6:	60fb      	str	r3, [r7, #12]
 80009a8:	68fb      	ldr	r3, [r7, #12]
    GPIO_InitStruct.Pin = MOIS_ADC_Pin;
 80009aa:	2310      	movs	r3, #16
 80009ac:	61fb      	str	r3, [r7, #28]
    GPIO_InitStruct.Mode = GPIO_MODE_ANALOG;
 80009ae:	2303      	movs	r3, #3
 80009b0:	623b      	str	r3, [r7, #32]
    GPIO_InitStruct.Pull = GPIO_NOPULL;
 80009b2:	2300      	movs	r3, #0
 80009b4:	627b      	str	r3, [r7, #36]	; 0x24
    HAL_GPIO_Init(MOIS_ADC_GPIO_Port, &GPIO_InitStruct);
 80009b6:	f107 031c 	add.w	r3, r7, #28
 80009ba:	4619      	mov	r1, r3
 80009bc:	4806      	ldr	r0, [pc, #24]	; (80009d8 <HAL_ADC_MspInit+0x110>)
 80009be:	f002 fa6f 	bl	8002ea0 <HAL_GPIO_Init>
}
 80009c2:	bf00      	nop
 80009c4:	3730      	adds	r7, #48	; 0x30
 80009c6:	46bd      	mov	sp, r7
 80009c8:	bd80      	pop	{r7, pc}
 80009ca:	bf00      	nop
 80009cc:	40022000 	.word	0x40022000
 80009d0:	2000002c 	.word	0x2000002c
 80009d4:	58024400 	.word	0x58024400
 80009d8:	58020000 	.word	0x58020000
 80009dc:	40022100 	.word	0x40022100

080009e0 <MX_GPIO_Init>:
     PC15-OSC32_OUT (OSC32_OUT)   ------> RCC_OSC32_OUT
     PH0-OSC_IN (PH0)   ------> RCC_OSC_IN
     PH1-OSC_OUT (PH1)   ------> RCC_OSC_OUT
*/
void MX_GPIO_Init(void)
{
 80009e0:	b580      	push	{r7, lr}
 80009e2:	b08e      	sub	sp, #56	; 0x38
 80009e4:	af00      	add	r7, sp, #0

  GPIO_InitTypeDef GPIO_InitStruct = {0};
 80009e6:	f107 0324 	add.w	r3, r7, #36	; 0x24
 80009ea:	2200      	movs	r2, #0
 80009ec:	601a      	str	r2, [r3, #0]
 80009ee:	605a      	str	r2, [r3, #4]
 80009f0:	609a      	str	r2, [r3, #8]
 80009f2:	60da      	str	r2, [r3, #12]
 80009f4:	611a      	str	r2, [r3, #16]

  /* GPIO Ports Clock Enable */
  __HAL_RCC_GPIOC_CLK_ENABLE();
 80009f6:	4b86      	ldr	r3, [pc, #536]	; (8000c10 <MX_GPIO_Init+0x230>)
 80009f8:	f8d3 30e0 	ldr.w	r3, [r3, #224]	; 0xe0
 80009fc:	4a84      	ldr	r2, [pc, #528]	; (8000c10 <MX_GPIO_Init+0x230>)
 80009fe:	f043 0304 	orr.w	r3, r3, #4
 8000a02:	f8c2 30e0 	str.w	r3, [r2, #224]	; 0xe0
 8000a06:	4b82      	ldr	r3, [pc, #520]	; (8000c10 <MX_GPIO_Init+0x230>)
 8000a08:	f8d3 30e0 	ldr.w	r3, [r3, #224]	; 0xe0
 8000a0c:	f003 0304 	and.w	r3, r3, #4
 8000a10:	623b      	str	r3, [r7, #32]
 8000a12:	6a3b      	ldr	r3, [r7, #32]
  __HAL_RCC_GPIOH_CLK_ENABLE();
 8000a14:	4b7e      	ldr	r3, [pc, #504]	; (8000c10 <MX_GPIO_Init+0x230>)
 8000a16:	f8d3 30e0 	ldr.w	r3, [r3, #224]	; 0xe0
 8000a1a:	4a7d      	ldr	r2, [pc, #500]	; (8000c10 <MX_GPIO_Init+0x230>)
 8000a1c:	f043 0380 	orr.w	r3, r3, #128	; 0x80
 8000a20:	f8c2 30e0 	str.w	r3, [r2, #224]	; 0xe0
 8000a24:	4b7a      	ldr	r3, [pc, #488]	; (8000c10 <MX_GPIO_Init+0x230>)
 8000a26:	f8d3 30e0 	ldr.w	r3, [r3, #224]	; 0xe0
 8000a2a:	f003 0380 	and.w	r3, r3, #128	; 0x80
 8000a2e:	61fb      	str	r3, [r7, #28]
 8000a30:	69fb      	ldr	r3, [r7, #28]
  __HAL_RCC_GPIOA_CLK_ENABLE();
 8000a32:	4b77      	ldr	r3, [pc, #476]	; (8000c10 <MX_GPIO_Init+0x230>)
 8000a34:	f8d3 30e0 	ldr.w	r3, [r3, #224]	; 0xe0
 8000a38:	4a75      	ldr	r2, [pc, #468]	; (8000c10 <MX_GPIO_Init+0x230>)
 8000a3a:	f043 0301 	orr.w	r3, r3, #1
 8000a3e:	f8c2 30e0 	str.w	r3, [r2, #224]	; 0xe0
 8000a42:	4b73      	ldr	r3, [pc, #460]	; (8000c10 <MX_GPIO_Init+0x230>)
 8000a44:	f8d3 30e0 	ldr.w	r3, [r3, #224]	; 0xe0
 8000a48:	f003 0301 	and.w	r3, r3, #1
 8000a4c:	61bb      	str	r3, [r7, #24]
 8000a4e:	69bb      	ldr	r3, [r7, #24]
  __HAL_RCC_GPIOB_CLK_ENABLE();
 8000a50:	4b6f      	ldr	r3, [pc, #444]	; (8000c10 <MX_GPIO_Init+0x230>)
 8000a52:	f8d3 30e0 	ldr.w	r3, [r3, #224]	; 0xe0
 8000a56:	4a6e      	ldr	r2, [pc, #440]	; (8000c10 <MX_GPIO_Init+0x230>)
 8000a58:	f043 0302 	orr.w	r3, r3, #2
 8000a5c:	f8c2 30e0 	str.w	r3, [r2, #224]	; 0xe0
 8000a60:	4b6b      	ldr	r3, [pc, #428]	; (8000c10 <MX_GPIO_Init+0x230>)
 8000a62:	f8d3 30e0 	ldr.w	r3, [r3, #224]	; 0xe0
 8000a66:	f003 0302 	and.w	r3, r3, #2
 8000a6a:	617b      	str	r3, [r7, #20]
 8000a6c:	697b      	ldr	r3, [r7, #20]
  __HAL_RCC_GPIOF_CLK_ENABLE();
 8000a6e:	4b68      	ldr	r3, [pc, #416]	; (8000c10 <MX_GPIO_Init+0x230>)
 8000a70:	f8d3 30e0 	ldr.w	r3, [r3, #224]	; 0xe0
 8000a74:	4a66      	ldr	r2, [pc, #408]	; (8000c10 <MX_GPIO_Init+0x230>)
 8000a76:	f043 0320 	orr.w	r3, r3, #32
 8000a7a:	f8c2 30e0 	str.w	r3, [r2, #224]	; 0xe0
 8000a7e:	4b64      	ldr	r3, [pc, #400]	; (8000c10 <MX_GPIO_Init+0x230>)
 8000a80:	f8d3 30e0 	ldr.w	r3, [r3, #224]	; 0xe0
 8000a84:	f003 0320 	and.w	r3, r3, #32
 8000a88:	613b      	str	r3, [r7, #16]
 8000a8a:	693b      	ldr	r3, [r7, #16]
  __HAL_RCC_GPIOE_CLK_ENABLE();
 8000a8c:	4b60      	ldr	r3, [pc, #384]	; (8000c10 <MX_GPIO_Init+0x230>)
 8000a8e:	f8d3 30e0 	ldr.w	r3, [r3, #224]	; 0xe0
 8000a92:	4a5f      	ldr	r2, [pc, #380]	; (8000c10 <MX_GPIO_Init+0x230>)
 8000a94:	f043 0310 	orr.w	r3, r3, #16
 8000a98:	f8c2 30e0 	str.w	r3, [r2, #224]	; 0xe0
 8000a9c:	4b5c      	ldr	r3, [pc, #368]	; (8000c10 <MX_GPIO_Init+0x230>)
 8000a9e:	f8d3 30e0 	ldr.w	r3, [r3, #224]	; 0xe0
 8000aa2:	f003 0310 	and.w	r3, r3, #16
 8000aa6:	60fb      	str	r3, [r7, #12]
 8000aa8:	68fb      	ldr	r3, [r7, #12]
  __HAL_RCC_GPIOD_CLK_ENABLE();
 8000aaa:	4b59      	ldr	r3, [pc, #356]	; (8000c10 <MX_GPIO_Init+0x230>)
 8000aac:	f8d3 30e0 	ldr.w	r3, [r3, #224]	; 0xe0
 8000ab0:	4a57      	ldr	r2, [pc, #348]	; (8000c10 <MX_GPIO_Init+0x230>)
 8000ab2:	f043 0308 	orr.w	r3, r3, #8
 8000ab6:	f8c2 30e0 	str.w	r3, [r2, #224]	; 0xe0
 8000aba:	4b55      	ldr	r3, [pc, #340]	; (8000c10 <MX_GPIO_Init+0x230>)
 8000abc:	f8d3 30e0 	ldr.w	r3, [r3, #224]	; 0xe0
 8000ac0:	f003 0308 	and.w	r3, r3, #8
 8000ac4:	60bb      	str	r3, [r7, #8]
 8000ac6:	68bb      	ldr	r3, [r7, #8]
  __HAL_RCC_GPIOG_CLK_ENABLE();
 8000ac8:	4b51      	ldr	r3, [pc, #324]	; (8000c10 <MX_GPIO_Init+0x230>)
 8000aca:	f8d3 30e0 	ldr.w	r3, [r3, #224]	; 0xe0
 8000ace:	4a50      	ldr	r2, [pc, #320]	; (8000c10 <MX_GPIO_Init+0x230>)
 8000ad0:	f043 0340 	orr.w	r3, r3, #64	; 0x40
 8000ad4:	f8c2 30e0 	str.w	r3, [r2, #224]	; 0xe0
 8000ad8:	4b4d      	ldr	r3, [pc, #308]	; (8000c10 <MX_GPIO_Init+0x230>)
 8000ada:	f8d3 30e0 	ldr.w	r3, [r3, #224]	; 0xe0
 8000ade:	f003 0340 	and.w	r3, r3, #64	; 0x40
 8000ae2:	607b      	str	r3, [r7, #4]
 8000ae4:	687b      	ldr	r3, [r7, #4]

  /*Configure GPIO pin Output Level */
  HAL_GPIO_WritePin(GPIOC, WIFI_GPIO_0_Pin|WIFI_GPIO_2_Pin, GPIO_PIN_RESET);
 8000ae6:	2200      	movs	r2, #0
 8000ae8:	2109      	movs	r1, #9
 8000aea:	484a      	ldr	r0, [pc, #296]	; (8000c14 <MX_GPIO_Init+0x234>)
 8000aec:	f002 fb88 	bl	8003200 <HAL_GPIO_WritePin>

  /*Configure GPIO pin Output Level */
  HAL_GPIO_WritePin(GPIOB, LD1_Pin|LD3_Pin|LCD_EN_Pin|LCD_RST_Pin, GPIO_PIN_RESET);
 8000af0:	2200      	movs	r2, #0
 8000af2:	f244 01c1 	movw	r1, #16577	; 0x40c1
 8000af6:	4848      	ldr	r0, [pc, #288]	; (8000c18 <MX_GPIO_Init+0x238>)
 8000af8:	f002 fb82 	bl	8003200 <HAL_GPIO_WritePin>

  /*Configure GPIO pin Output Level */
  HAL_GPIO_WritePin(WIFI_EN_GPIO_Port, WIFI_EN_Pin, GPIO_PIN_SET);
 8000afc:	2201      	movs	r2, #1
 8000afe:	2102      	movs	r1, #2
 8000b00:	4845      	ldr	r0, [pc, #276]	; (8000c18 <MX_GPIO_Init+0x238>)
 8000b02:	f002 fb7d 	bl	8003200 <HAL_GPIO_WritePin>

  /*Configure GPIO pin Output Level */
  HAL_GPIO_WritePin(GPIOF, LCD_D7_Pin|LCD_D6_Pin, GPIO_PIN_RESET);
 8000b06:	2200      	movs	r2, #0
 8000b08:	f44f 4190 	mov.w	r1, #18432	; 0x4800
 8000b0c:	4843      	ldr	r0, [pc, #268]	; (8000c1c <MX_GPIO_Init+0x23c>)
 8000b0e:	f002 fb77 	bl	8003200 <HAL_GPIO_WritePin>

  /*Configure GPIO pin Output Level */
  HAL_GPIO_WritePin(LCD_ON_OFF_GPIO_Port, LCD_ON_OFF_Pin, GPIO_PIN_SET);
 8000b12:	2201      	movs	r2, #1
 8000b14:	2180      	movs	r1, #128	; 0x80
 8000b16:	4842      	ldr	r0, [pc, #264]	; (8000c20 <MX_GPIO_Init+0x240>)
 8000b18:	f002 fb72 	bl	8003200 <HAL_GPIO_WritePin>

  /*Configure GPIO pin Output Level */
  HAL_GPIO_WritePin(GPIOE, LCD_RW_Pin|LCD_5_Pin|LD2_Pin, GPIO_PIN_RESET);
 8000b1c:	2200      	movs	r2, #0
 8000b1e:	f242 1102 	movw	r1, #8450	; 0x2102
 8000b22:	483f      	ldr	r0, [pc, #252]	; (8000c20 <MX_GPIO_Init+0x240>)
 8000b24:	f002 fb6c 	bl	8003200 <HAL_GPIO_WritePin>

  /*Configure GPIO pin Output Level */
  HAL_GPIO_WritePin(WIFI_RST_GPIO_Port, WIFI_RST_Pin, GPIO_PIN_RESET);
 8000b28:	2200      	movs	r2, #0
 8000b2a:	2108      	movs	r1, #8
 8000b2c:	483d      	ldr	r0, [pc, #244]	; (8000c24 <MX_GPIO_Init+0x244>)
 8000b2e:	f002 fb67 	bl	8003200 <HAL_GPIO_WritePin>

  /*Configure GPIO pin Output Level */
  HAL_GPIO_WritePin(LCD_D4_GPIO_Port, LCD_D4_Pin, GPIO_PIN_RESET);
 8000b32:	2200      	movs	r2, #0
 8000b34:	f44f 4180 	mov.w	r1, #16384	; 0x4000
 8000b38:	483b      	ldr	r0, [pc, #236]	; (8000c28 <MX_GPIO_Init+0x248>)
 8000b3a:	f002 fb61 	bl	8003200 <HAL_GPIO_WritePin>

  /*Configure GPIO pin : PtPin */
  GPIO_InitStruct.Pin = B1_Pin;
 8000b3e:	f44f 5300 	mov.w	r3, #8192	; 0x2000
 8000b42:	627b      	str	r3, [r7, #36]	; 0x24
  GPIO_InitStruct.Mode = GPIO_MODE_INPUT;
 8000b44:	2300      	movs	r3, #0
 8000b46:	62bb      	str	r3, [r7, #40]	; 0x28
  GPIO_InitStruct.Pull = GPIO_NOPULL;
 8000b48:	2300      	movs	r3, #0
 8000b4a:	62fb      	str	r3, [r7, #44]	; 0x2c
  HAL_GPIO_Init(B1_GPIO_Port, &GPIO_InitStruct);
 8000b4c:	f107 0324 	add.w	r3, r7, #36	; 0x24
 8000b50:	4619      	mov	r1, r3
 8000b52:	4830      	ldr	r0, [pc, #192]	; (8000c14 <MX_GPIO_Init+0x234>)
 8000b54:	f002 f9a4 	bl	8002ea0 <HAL_GPIO_Init>

  /*Configure GPIO pins : PCPin PCPin */
  GPIO_InitStruct.Pin = WIFI_GPIO_0_Pin|WIFI_GPIO_2_Pin;
 8000b58:	2309      	movs	r3, #9
 8000b5a:	627b      	str	r3, [r7, #36]	; 0x24
  GPIO_InitStruct.Mode = GPIO_MODE_OUTPUT_PP;
 8000b5c:	2301      	movs	r3, #1
 8000b5e:	62bb      	str	r3, [r7, #40]	; 0x28
  GPIO_InitStruct.Pull = GPIO_NOPULL;
 8000b60:	2300      	movs	r3, #0
 8000b62:	62fb      	str	r3, [r7, #44]	; 0x2c
  GPIO_InitStruct.Speed = GPIO_SPEED_FREQ_LOW;
 8000b64:	2300      	movs	r3, #0
 8000b66:	633b      	str	r3, [r7, #48]	; 0x30
  HAL_GPIO_Init(GPIOC, &GPIO_InitStruct);
 8000b68:	f107 0324 	add.w	r3, r7, #36	; 0x24
 8000b6c:	4619      	mov	r1, r3
 8000b6e:	4829      	ldr	r0, [pc, #164]	; (8000c14 <MX_GPIO_Init+0x234>)
 8000b70:	f002 f996 	bl	8002ea0 <HAL_GPIO_Init>

  /*Configure GPIO pins : PBPin PBPin PBPin PBPin
                           PBPin */
  GPIO_InitStruct.Pin = LD1_Pin|WIFI_EN_Pin|LD3_Pin|LCD_EN_Pin
 8000b74:	f244 03c3 	movw	r3, #16579	; 0x40c3
 8000b78:	627b      	str	r3, [r7, #36]	; 0x24
                          |LCD_RST_Pin;
  GPIO_InitStruct.Mode = GPIO_MODE_OUTPUT_PP;
 8000b7a:	2301      	movs	r3, #1
 8000b7c:	62bb      	str	r3, [r7, #40]	; 0x28
  GPIO_InitStruct.Pull = GPIO_NOPULL;
 8000b7e:	2300      	movs	r3, #0
 8000b80:	62fb      	str	r3, [r7, #44]	; 0x2c
  GPIO_InitStruct.Speed = GPIO_SPEED_FREQ_LOW;
 8000b82:	2300      	movs	r3, #0
 8000b84:	633b      	str	r3, [r7, #48]	; 0x30
  HAL_GPIO_Init(GPIOB, &GPIO_InitStruct);
 8000b86:	f107 0324 	add.w	r3, r7, #36	; 0x24
 8000b8a:	4619      	mov	r1, r3
 8000b8c:	4822      	ldr	r0, [pc, #136]	; (8000c18 <MX_GPIO_Init+0x238>)
 8000b8e:	f002 f987 	bl	8002ea0 <HAL_GPIO_Init>

  /*Configure GPIO pins : PFPin PFPin */
  GPIO_InitStruct.Pin = LCD_D7_Pin|LCD_D6_Pin;
 8000b92:	f44f 4390 	mov.w	r3, #18432	; 0x4800
 8000b96:	627b      	str	r3, [r7, #36]	; 0x24
  GPIO_InitStruct.Mode = GPIO_MODE_OUTPUT_PP;
 8000b98:	2301      	movs	r3, #1
 8000b9a:	62bb      	str	r3, [r7, #40]	; 0x28
  GPIO_InitStruct.Pull = GPIO_NOPULL;
 8000b9c:	2300      	movs	r3, #0
 8000b9e:	62fb      	str	r3, [r7, #44]	; 0x2c
  GPIO_InitStruct.Speed = GPIO_SPEED_FREQ_LOW;
 8000ba0:	2300      	movs	r3, #0
 8000ba2:	633b      	str	r3, [r7, #48]	; 0x30
  HAL_GPIO_Init(GPIOF, &GPIO_InitStruct);
 8000ba4:	f107 0324 	add.w	r3, r7, #36	; 0x24
 8000ba8:	4619      	mov	r1, r3
 8000baa:	481c      	ldr	r0, [pc, #112]	; (8000c1c <MX_GPIO_Init+0x23c>)
 8000bac:	f002 f978 	bl	8002ea0 <HAL_GPIO_Init>

  /*Configure GPIO pins : PEPin PEPin PEPin PEPin */
  GPIO_InitStruct.Pin = LCD_ON_OFF_Pin|LCD_RW_Pin|LCD_5_Pin|LD2_Pin;
 8000bb0:	f242 1382 	movw	r3, #8578	; 0x2182
 8000bb4:	627b      	str	r3, [r7, #36]	; 0x24
  GPIO_InitStruct.Mode = GPIO_MODE_OUTPUT_PP;
 8000bb6:	2301      	movs	r3, #1
 8000bb8:	62bb      	str	r3, [r7, #40]	; 0x28
  GPIO_InitStruct.Pull = GPIO_NOPULL;
 8000bba:	2300      	movs	r3, #0
 8000bbc:	62fb      	str	r3, [r7, #44]	; 0x2c
  GPIO_InitStruct.Speed = GPIO_SPEED_FREQ_LOW;
 8000bbe:	2300      	movs	r3, #0
 8000bc0:	633b      	str	r3, [r7, #48]	; 0x30
  HAL_GPIO_Init(GPIOE, &GPIO_InitStruct);
 8000bc2:	f107 0324 	add.w	r3, r7, #36	; 0x24
 8000bc6:	4619      	mov	r1, r3
 8000bc8:	4815      	ldr	r0, [pc, #84]	; (8000c20 <MX_GPIO_Init+0x240>)
 8000bca:	f002 f969 	bl	8002ea0 <HAL_GPIO_Init>

  /*Configure GPIO pin : PtPin */
  GPIO_InitStruct.Pin = WIFI_RST_Pin;
 8000bce:	2308      	movs	r3, #8
 8000bd0:	627b      	str	r3, [r7, #36]	; 0x24
  GPIO_InitStruct.Mode = GPIO_MODE_OUTPUT_PP;
 8000bd2:	2301      	movs	r3, #1
 8000bd4:	62bb      	str	r3, [r7, #40]	; 0x28
  GPIO_InitStruct.Pull = GPIO_NOPULL;
 8000bd6:	2300      	movs	r3, #0
 8000bd8:	62fb      	str	r3, [r7, #44]	; 0x2c
  GPIO_InitStruct.Speed = GPIO_SPEED_FREQ_LOW;
 8000bda:	2300      	movs	r3, #0
 8000bdc:	633b      	str	r3, [r7, #48]	; 0x30
  HAL_GPIO_Init(WIFI_RST_GPIO_Port, &GPIO_InitStruct);
 8000bde:	f107 0324 	add.w	r3, r7, #36	; 0x24
 8000be2:	4619      	mov	r1, r3
 8000be4:	480f      	ldr	r0, [pc, #60]	; (8000c24 <MX_GPIO_Init+0x244>)
 8000be6:	f002 f95b 	bl	8002ea0 <HAL_GPIO_Init>

  /*Configure GPIO pin : PtPin */
  GPIO_InitStruct.Pin = LCD_D4_Pin;
 8000bea:	f44f 4380 	mov.w	r3, #16384	; 0x4000
 8000bee:	627b      	str	r3, [r7, #36]	; 0x24
  GPIO_InitStruct.Mode = GPIO_MODE_OUTPUT_PP;
 8000bf0:	2301      	movs	r3, #1
 8000bf2:	62bb      	str	r3, [r7, #40]	; 0x28
  GPIO_InitStruct.Pull = GPIO_NOPULL;
 8000bf4:	2300      	movs	r3, #0
 8000bf6:	62fb      	str	r3, [r7, #44]	; 0x2c
  GPIO_InitStruct.Speed = GPIO_SPEED_FREQ_LOW;
 8000bf8:	2300      	movs	r3, #0
 8000bfa:	633b      	str	r3, [r7, #48]	; 0x30
  HAL_GPIO_Init(LCD_D4_GPIO_Port, &GPIO_InitStruct);
 8000bfc:	f107 0324 	add.w	r3, r7, #36	; 0x24
 8000c00:	4619      	mov	r1, r3
 8000c02:	4809      	ldr	r0, [pc, #36]	; (8000c28 <MX_GPIO_Init+0x248>)
 8000c04:	f002 f94c 	bl	8002ea0 <HAL_GPIO_Init>

}
 8000c08:	bf00      	nop
 8000c0a:	3738      	adds	r7, #56	; 0x38
 8000c0c:	46bd      	mov	sp, r7
 8000c0e:	bd80      	pop	{r7, pc}
 8000c10:	58024400 	.word	0x58024400
 8000c14:	58020800 	.word	0x58020800
 8000c18:	58020400 	.word	0x58020400
 8000c1c:	58021400 	.word	0x58021400
 8000c20:	58021000 	.word	0x58021000
 8000c24:	58020c00 	.word	0x58020c00
 8000c28:	58021800 	.word	0x58021800

08000c2c <main>:
/**
  * @brief  The application entry point.
  * @retval int
  */
int main(void)
{
 8000c2c:	b590      	push	{r4, r7, lr}
 8000c2e:	b08d      	sub	sp, #52	; 0x34
 8000c30:	af00      	add	r7, sp, #0
  /* USER CODE BEGIN 1 */
	char bat_level[28];
	double moisture_level = 0;
 8000c32:	f04f 0300 	mov.w	r3, #0
 8000c36:	f04f 0400 	mov.w	r4, #0
 8000c3a:	e9c7 3408 	strd	r3, r4, [r7, #32]
  int32_t timeout;
/* USER CODE END Boot_Mode_Sequence_0 */

/* USER CODE BEGIN Boot_Mode_Sequence_1 */
  /* Wait until CPU2 boots and enters in stop mode or timeout*/
  timeout = 0xFFFF;
 8000c3e:	f64f 73ff 	movw	r3, #65535	; 0xffff
 8000c42:	62fb      	str	r3, [r7, #44]	; 0x2c
  while((__HAL_RCC_GET_FLAG(RCC_FLAG_D2CKRDY) != RESET) && (timeout-- > 0));
 8000c44:	bf00      	nop
 8000c46:	4b27      	ldr	r3, [pc, #156]	; (8000ce4 <main+0xb8>)
 8000c48:	681b      	ldr	r3, [r3, #0]
 8000c4a:	f403 4300 	and.w	r3, r3, #32768	; 0x8000
 8000c4e:	2b00      	cmp	r3, #0
 8000c50:	d004      	beq.n	8000c5c <main+0x30>
 8000c52:	6afb      	ldr	r3, [r7, #44]	; 0x2c
 8000c54:	1e5a      	subs	r2, r3, #1
 8000c56:	62fa      	str	r2, [r7, #44]	; 0x2c
 8000c58:	2b00      	cmp	r3, #0
 8000c5a:	dcf4      	bgt.n	8000c46 <main+0x1a>
  if ( timeout < 0 )
 8000c5c:	6afb      	ldr	r3, [r7, #44]	; 0x2c
 8000c5e:	2b00      	cmp	r3, #0
 8000c60:	da01      	bge.n	8000c66 <main+0x3a>
  {
  Error_Handler();
 8000c62:	f000 f929 	bl	8000eb8 <Error_Handler>
  }
/* USER CODE END Boot_Mode_Sequence_1 */
  /* MCU Configuration--------------------------------------------------------*/

  /* Reset of all peripherals, Initializes the Flash interface and the Systick. */
  HAL_Init();
 8000c66:	f000 fccf 	bl	8001608 <HAL_Init>

  /* USER CODE BEGIN Init */
  /* USER CODE END Init */

  /* Configure the system clock */
  SystemClock_Config();
 8000c6a:	f000 f83d 	bl	8000ce8 <SystemClock_Config>
/* USER CODE BEGIN Boot_Mode_Sequence_2 */
/* When system initialization is finished, Cortex-M7 will release Cortex-M4 by means of
HSEM notification */
/*HW semaphore Clock enable*/
__HAL_RCC_HSEM_CLK_ENABLE();
 8000c6e:	4b1d      	ldr	r3, [pc, #116]	; (8000ce4 <main+0xb8>)
 8000c70:	f8d3 30e0 	ldr.w	r3, [r3, #224]	; 0xe0
 8000c74:	4a1b      	ldr	r2, [pc, #108]	; (8000ce4 <main+0xb8>)
 8000c76:	f043 7300 	orr.w	r3, r3, #33554432	; 0x2000000
 8000c7a:	f8c2 30e0 	str.w	r3, [r2, #224]	; 0xe0
 8000c7e:	4b19      	ldr	r3, [pc, #100]	; (8000ce4 <main+0xb8>)
 8000c80:	f8d3 30e0 	ldr.w	r3, [r3, #224]	; 0xe0
 8000c84:	f003 7300 	and.w	r3, r3, #33554432	; 0x2000000
 8000c88:	603b      	str	r3, [r7, #0]
 8000c8a:	683b      	ldr	r3, [r7, #0]
/*Take HSEM */
HAL_HSEM_FastTake(HSEM_ID_0);
 8000c8c:	2000      	movs	r0, #0
 8000c8e:	f002 fad1 	bl	8003234 <HAL_HSEM_FastTake>
/*Release HSEM in order to notify the CPU2(CM4)*/
HAL_HSEM_Release(HSEM_ID_0,0);
 8000c92:	2100      	movs	r1, #0
 8000c94:	2000      	movs	r0, #0
 8000c96:	f002 fae7 	bl	8003268 <HAL_HSEM_Release>
/* wait until CPU2 wakes up from stop mode */
timeout = 0xFFFF;
 8000c9a:	f64f 73ff 	movw	r3, #65535	; 0xffff
 8000c9e:	62fb      	str	r3, [r7, #44]	; 0x2c
while((__HAL_RCC_GET_FLAG(RCC_FLAG_D2CKRDY) == RESET) && (timeout-- > 0));
 8000ca0:	bf00      	nop
 8000ca2:	4b10      	ldr	r3, [pc, #64]	; (8000ce4 <main+0xb8>)
 8000ca4:	681b      	ldr	r3, [r3, #0]
 8000ca6:	f403 4300 	and.w	r3, r3, #32768	; 0x8000
 8000caa:	2b00      	cmp	r3, #0
 8000cac:	d104      	bne.n	8000cb8 <main+0x8c>
 8000cae:	6afb      	ldr	r3, [r7, #44]	; 0x2c
 8000cb0:	1e5a      	subs	r2, r3, #1
 8000cb2:	62fa      	str	r2, [r7, #44]	; 0x2c
 8000cb4:	2b00      	cmp	r3, #0
 8000cb6:	dcf4      	bgt.n	8000ca2 <main+0x76>
if ( timeout < 0 )
 8000cb8:	6afb      	ldr	r3, [r7, #44]	; 0x2c
 8000cba:	2b00      	cmp	r3, #0
 8000cbc:	da01      	bge.n	8000cc2 <main+0x96>
{
Error_Handler();
 8000cbe:	f000 f8fb 	bl	8000eb8 <Error_Handler>
  /* USER CODE BEGIN SysInit */

  /* USER CODE END SysInit */

  /* Initialize all configured peripherals */
  MX_GPIO_Init();
 8000cc2:	f7ff fe8d 	bl	80009e0 <MX_GPIO_Init>
  MX_ADC1_Init();
 8000cc6:	f7ff fd21 	bl	800070c <MX_ADC1_Init>
  MX_ADC2_Init();
 8000cca:	f7ff fd97 	bl	80007fc <MX_ADC2_Init>
  MX_TIM1_Init();
 8000cce:	f000 f94d 	bl	8000f6c <MX_TIM1_Init>
  MX_TIM6_Init();
 8000cd2:	f000 f9f7 	bl	80010c4 <MX_TIM6_Init>
  MX_USART2_UART_Init();
 8000cd6:	f000 faa1 	bl	800121c <MX_USART2_UART_Init>
  MX_USART3_UART_Init();
 8000cda:	f000 faeb 	bl	80012b4 <MX_USART3_UART_Init>
  MX_USB_OTG_FS_PCD_Init();
 8000cde:	f000 fbdf 	bl	80014a0 <MX_USB_OTG_FS_PCD_Init>
  //buzzer_run(htim1, TIM_CHANNEL_1, 5);
  /* USER CODE END 2 */

  /* Infinite loop */
  /* USER CODE BEGIN WHILE */
  while (1)
 8000ce2:	e7fe      	b.n	8000ce2 <main+0xb6>
 8000ce4:	58024400 	.word	0x58024400

08000ce8 <SystemClock_Config>:
/**
  * @brief System Clock Configuration
  * @retval None
  */
void SystemClock_Config(void)
{
 8000ce8:	b580      	push	{r7, lr}
 8000cea:	b0cc      	sub	sp, #304	; 0x130
 8000cec:	af00      	add	r7, sp, #0
  RCC_OscInitTypeDef RCC_OscInitStruct = {0};
 8000cee:	f107 03e4 	add.w	r3, r7, #228	; 0xe4
 8000cf2:	224c      	movs	r2, #76	; 0x4c
 8000cf4:	2100      	movs	r1, #0
 8000cf6:	4618      	mov	r0, r3
 8000cf8:	f007 ffd4 	bl	8008ca4 <memset>
  RCC_ClkInitTypeDef RCC_ClkInitStruct = {0};
 8000cfc:	f107 03c4 	add.w	r3, r7, #196	; 0xc4
 8000d00:	2220      	movs	r2, #32
 8000d02:	2100      	movs	r1, #0
 8000d04:	4618      	mov	r0, r3
 8000d06:	f007 ffcd 	bl	8008ca4 <memset>
  RCC_PeriphCLKInitTypeDef PeriphClkInitStruct = {0};
 8000d0a:	f107 0308 	add.w	r3, r7, #8
 8000d0e:	4618      	mov	r0, r3
 8000d10:	23bc      	movs	r3, #188	; 0xbc
 8000d12:	461a      	mov	r2, r3
 8000d14:	2100      	movs	r1, #0
 8000d16:	f007 ffc5 	bl	8008ca4 <memset>

  /** Supply configuration update enable
  */
  HAL_PWREx_ConfigSupply(PWR_DIRECT_SMPS_SUPPLY);
 8000d1a:	2004      	movs	r0, #4
 8000d1c:	f002 fc00 	bl	8003520 <HAL_PWREx_ConfigSupply>
  /** Configure the main internal regulator output voltage
  */
  __HAL_PWR_VOLTAGESCALING_CONFIG(PWR_REGULATOR_VOLTAGE_SCALE0);
 8000d20:	1d3b      	adds	r3, r7, #4
 8000d22:	2200      	movs	r2, #0
 8000d24:	601a      	str	r2, [r3, #0]
 8000d26:	4b60      	ldr	r3, [pc, #384]	; (8000ea8 <SystemClock_Config+0x1c0>)
 8000d28:	699b      	ldr	r3, [r3, #24]
 8000d2a:	4a5f      	ldr	r2, [pc, #380]	; (8000ea8 <SystemClock_Config+0x1c0>)
 8000d2c:	f443 4340 	orr.w	r3, r3, #49152	; 0xc000
 8000d30:	6193      	str	r3, [r2, #24]
 8000d32:	4b5d      	ldr	r3, [pc, #372]	; (8000ea8 <SystemClock_Config+0x1c0>)
 8000d34:	699b      	ldr	r3, [r3, #24]
 8000d36:	f403 4240 	and.w	r2, r3, #49152	; 0xc000
 8000d3a:	1d3b      	adds	r3, r7, #4
 8000d3c:	601a      	str	r2, [r3, #0]
 8000d3e:	4b5b      	ldr	r3, [pc, #364]	; (8000eac <SystemClock_Config+0x1c4>)
 8000d40:	6adb      	ldr	r3, [r3, #44]	; 0x2c
 8000d42:	4a5a      	ldr	r2, [pc, #360]	; (8000eac <SystemClock_Config+0x1c4>)
 8000d44:	f043 0301 	orr.w	r3, r3, #1
 8000d48:	62d3      	str	r3, [r2, #44]	; 0x2c
 8000d4a:	4b58      	ldr	r3, [pc, #352]	; (8000eac <SystemClock_Config+0x1c4>)
 8000d4c:	6adb      	ldr	r3, [r3, #44]	; 0x2c
 8000d4e:	f003 0201 	and.w	r2, r3, #1
 8000d52:	1d3b      	adds	r3, r7, #4
 8000d54:	601a      	str	r2, [r3, #0]
 8000d56:	1d3b      	adds	r3, r7, #4
 8000d58:	681b      	ldr	r3, [r3, #0]

  while(!__HAL_PWR_GET_FLAG(PWR_FLAG_VOSRDY)) {}
 8000d5a:	bf00      	nop
 8000d5c:	4b52      	ldr	r3, [pc, #328]	; (8000ea8 <SystemClock_Config+0x1c0>)
 8000d5e:	699b      	ldr	r3, [r3, #24]
 8000d60:	f403 5300 	and.w	r3, r3, #8192	; 0x2000
 8000d64:	f5b3 5f00 	cmp.w	r3, #8192	; 0x2000
 8000d68:	d1f8      	bne.n	8000d5c <SystemClock_Config+0x74>
  /** Macro to configure the PLL clock source
  */
  __HAL_RCC_PLL_PLLSOURCE_CONFIG(RCC_PLLSOURCE_HSE);
 8000d6a:	4b51      	ldr	r3, [pc, #324]	; (8000eb0 <SystemClock_Config+0x1c8>)
 8000d6c:	6a9b      	ldr	r3, [r3, #40]	; 0x28
 8000d6e:	f023 0303 	bic.w	r3, r3, #3
 8000d72:	4a4f      	ldr	r2, [pc, #316]	; (8000eb0 <SystemClock_Config+0x1c8>)
 8000d74:	f043 0302 	orr.w	r3, r3, #2
 8000d78:	6293      	str	r3, [r2, #40]	; 0x28
  /** Initializes the RCC Oscillators according to the specified parameters
  * in the RCC_OscInitTypeDef structure.
  */
  RCC_OscInitStruct.OscillatorType = RCC_OSCILLATORTYPE_HSE;
 8000d7a:	2301      	movs	r3, #1
 8000d7c:	f8c7 30e4 	str.w	r3, [r7, #228]	; 0xe4
  RCC_OscInitStruct.HSEState = RCC_HSE_ON;
 8000d80:	f44f 3380 	mov.w	r3, #65536	; 0x10000
 8000d84:	f8c7 30e8 	str.w	r3, [r7, #232]	; 0xe8
  RCC_OscInitStruct.PLL.PLLState = RCC_PLL_ON;
 8000d88:	2302      	movs	r3, #2
 8000d8a:	f8c7 3108 	str.w	r3, [r7, #264]	; 0x108
  RCC_OscInitStruct.PLL.PLLSource = RCC_PLLSOURCE_HSE;
 8000d8e:	2302      	movs	r3, #2
 8000d90:	f8c7 310c 	str.w	r3, [r7, #268]	; 0x10c
  RCC_OscInitStruct.PLL.PLLM = 1;
 8000d94:	2301      	movs	r3, #1
 8000d96:	f8c7 3110 	str.w	r3, [r7, #272]	; 0x110
  RCC_OscInitStruct.PLL.PLLN = 120;
 8000d9a:	2378      	movs	r3, #120	; 0x78
 8000d9c:	f8c7 3114 	str.w	r3, [r7, #276]	; 0x114
  RCC_OscInitStruct.PLL.PLLP = 2;
 8000da0:	2302      	movs	r3, #2
 8000da2:	f8c7 3118 	str.w	r3, [r7, #280]	; 0x118
  RCC_OscInitStruct.PLL.PLLQ = 20;
 8000da6:	2314      	movs	r3, #20
 8000da8:	f8c7 311c 	str.w	r3, [r7, #284]	; 0x11c
  RCC_OscInitStruct.PLL.PLLR = 2;
 8000dac:	2302      	movs	r3, #2
 8000dae:	f8c7 3120 	str.w	r3, [r7, #288]	; 0x120
  RCC_OscInitStruct.PLL.PLLRGE = RCC_PLL1VCIRANGE_3;
 8000db2:	230c      	movs	r3, #12
 8000db4:	f8c7 3124 	str.w	r3, [r7, #292]	; 0x124
  RCC_OscInitStruct.PLL.PLLVCOSEL = RCC_PLL1VCOWIDE;
 8000db8:	2300      	movs	r3, #0
 8000dba:	f8c7 3128 	str.w	r3, [r7, #296]	; 0x128
  RCC_OscInitStruct.PLL.PLLFRACN = 0;
 8000dbe:	2300      	movs	r3, #0
 8000dc0:	f8c7 312c 	str.w	r3, [r7, #300]	; 0x12c
  if (HAL_RCC_OscConfig(&RCC_OscInitStruct) != HAL_OK)
 8000dc4:	f107 03e4 	add.w	r3, r7, #228	; 0xe4
 8000dc8:	4618      	mov	r0, r3
 8000dca:	f002 fc13 	bl	80035f4 <HAL_RCC_OscConfig>
 8000dce:	4603      	mov	r3, r0
 8000dd0:	2b00      	cmp	r3, #0
 8000dd2:	d001      	beq.n	8000dd8 <SystemClock_Config+0xf0>
  {
    Error_Handler();
 8000dd4:	f000 f870 	bl	8000eb8 <Error_Handler>
  }
  /** Initializes the CPU, AHB and APB buses clocks
  */
  RCC_ClkInitStruct.ClockType = RCC_CLOCKTYPE_HCLK|RCC_CLOCKTYPE_SYSCLK
 8000dd8:	233f      	movs	r3, #63	; 0x3f
 8000dda:	f8c7 30c4 	str.w	r3, [r7, #196]	; 0xc4
                              |RCC_CLOCKTYPE_PCLK1|RCC_CLOCKTYPE_PCLK2
                              |RCC_CLOCKTYPE_D3PCLK1|RCC_CLOCKTYPE_D1PCLK1;
  RCC_ClkInitStruct.SYSCLKSource = RCC_SYSCLKSOURCE_PLLCLK;
 8000dde:	2303      	movs	r3, #3
 8000de0:	f8c7 30c8 	str.w	r3, [r7, #200]	; 0xc8
  RCC_ClkInitStruct.SYSCLKDivider = RCC_SYSCLK_DIV1;
 8000de4:	2300      	movs	r3, #0
 8000de6:	f8c7 30cc 	str.w	r3, [r7, #204]	; 0xcc
  RCC_ClkInitStruct.AHBCLKDivider = RCC_HCLK_DIV2;
 8000dea:	2308      	movs	r3, #8
 8000dec:	f8c7 30d0 	str.w	r3, [r7, #208]	; 0xd0
  RCC_ClkInitStruct.APB3CLKDivider = RCC_APB3_DIV2;
 8000df0:	2340      	movs	r3, #64	; 0x40
 8000df2:	f8c7 30d4 	str.w	r3, [r7, #212]	; 0xd4
  RCC_ClkInitStruct.APB1CLKDivider = RCC_APB1_DIV2;
 8000df6:	2340      	movs	r3, #64	; 0x40
 8000df8:	f8c7 30d8 	str.w	r3, [r7, #216]	; 0xd8
  RCC_ClkInitStruct.APB2CLKDivider = RCC_APB2_DIV2;
 8000dfc:	f44f 6380 	mov.w	r3, #1024	; 0x400
 8000e00:	f8c7 30dc 	str.w	r3, [r7, #220]	; 0xdc
  RCC_ClkInitStruct.APB4CLKDivider = RCC_APB4_DIV2;
 8000e04:	2340      	movs	r3, #64	; 0x40
 8000e06:	f8c7 30e0 	str.w	r3, [r7, #224]	; 0xe0

  if (HAL_RCC_ClockConfig(&RCC_ClkInitStruct, FLASH_LATENCY_4) != HAL_OK)
 8000e0a:	f107 03c4 	add.w	r3, r7, #196	; 0xc4
 8000e0e:	2104      	movs	r1, #4
 8000e10:	4618      	mov	r0, r3
 8000e12:	f002 ffff 	bl	8003e14 <HAL_RCC_ClockConfig>
 8000e16:	4603      	mov	r3, r0
 8000e18:	2b00      	cmp	r3, #0
 8000e1a:	d001      	beq.n	8000e20 <SystemClock_Config+0x138>
  {
    Error_Handler();
 8000e1c:	f000 f84c 	bl	8000eb8 <Error_Handler>
  }
  PeriphClkInitStruct.PeriphClockSelection = RCC_PERIPHCLK_USART3|RCC_PERIPHCLK_USART2
 8000e20:	f107 0308 	add.w	r3, r7, #8
 8000e24:	4a23      	ldr	r2, [pc, #140]	; (8000eb4 <SystemClock_Config+0x1cc>)
 8000e26:	601a      	str	r2, [r3, #0]
                              |RCC_PERIPHCLK_ADC|RCC_PERIPHCLK_USB;
  PeriphClkInitStruct.PLL2.PLL2M = 1;
 8000e28:	f107 0308 	add.w	r3, r7, #8
 8000e2c:	2201      	movs	r2, #1
 8000e2e:	605a      	str	r2, [r3, #4]
  PeriphClkInitStruct.PLL2.PLL2N = 19;
 8000e30:	f107 0308 	add.w	r3, r7, #8
 8000e34:	2213      	movs	r2, #19
 8000e36:	609a      	str	r2, [r3, #8]
  PeriphClkInitStruct.PLL2.PLL2P = 3;
 8000e38:	f107 0308 	add.w	r3, r7, #8
 8000e3c:	2203      	movs	r2, #3
 8000e3e:	60da      	str	r2, [r3, #12]
  PeriphClkInitStruct.PLL2.PLL2Q = 2;
 8000e40:	f107 0308 	add.w	r3, r7, #8
 8000e44:	2202      	movs	r2, #2
 8000e46:	611a      	str	r2, [r3, #16]
  PeriphClkInitStruct.PLL2.PLL2R = 2;
 8000e48:	f107 0308 	add.w	r3, r7, #8
 8000e4c:	2202      	movs	r2, #2
 8000e4e:	615a      	str	r2, [r3, #20]
  PeriphClkInitStruct.PLL2.PLL2RGE = RCC_PLL2VCIRANGE_3;
 8000e50:	f107 0308 	add.w	r3, r7, #8
 8000e54:	22c0      	movs	r2, #192	; 0xc0
 8000e56:	619a      	str	r2, [r3, #24]
  PeriphClkInitStruct.PLL2.PLL2VCOSEL = RCC_PLL2VCOMEDIUM;
 8000e58:	f107 0308 	add.w	r3, r7, #8
 8000e5c:	2220      	movs	r2, #32
 8000e5e:	61da      	str	r2, [r3, #28]
  PeriphClkInitStruct.PLL2.PLL2FRACN = 0;
 8000e60:	f107 0308 	add.w	r3, r7, #8
 8000e64:	2200      	movs	r2, #0
 8000e66:	621a      	str	r2, [r3, #32]
  PeriphClkInitStruct.Usart234578ClockSelection = RCC_USART234578CLKSOURCE_D2PCLK1;
 8000e68:	f107 0308 	add.w	r3, r7, #8
 8000e6c:	2200      	movs	r2, #0
 8000e6e:	675a      	str	r2, [r3, #116]	; 0x74
  PeriphClkInitStruct.UsbClockSelection = RCC_USBCLKSOURCE_PLL;
 8000e70:	f107 0308 	add.w	r3, r7, #8
 8000e74:	f44f 1280 	mov.w	r2, #1048576	; 0x100000
 8000e78:	f8c3 2084 	str.w	r2, [r3, #132]	; 0x84
  PeriphClkInitStruct.AdcClockSelection = RCC_ADCCLKSOURCE_PLL2;
 8000e7c:	f107 0308 	add.w	r3, r7, #8
 8000e80:	2200      	movs	r2, #0
 8000e82:	f8c3 20a0 	str.w	r2, [r3, #160]	; 0xa0
  if (HAL_RCCEx_PeriphCLKConfig(&PeriphClkInitStruct) != HAL_OK)
 8000e86:	f107 0308 	add.w	r3, r7, #8
 8000e8a:	4618      	mov	r0, r3
 8000e8c:	f003 fb46 	bl	800451c <HAL_RCCEx_PeriphCLKConfig>
 8000e90:	4603      	mov	r3, r0
 8000e92:	2b00      	cmp	r3, #0
 8000e94:	d001      	beq.n	8000e9a <SystemClock_Config+0x1b2>
  {
    Error_Handler();
 8000e96:	f000 f80f 	bl	8000eb8 <Error_Handler>
  }
  /** Enable USB Voltage detector
  */
  HAL_PWREx_EnableUSBVoltageDetector();
 8000e9a:	f002 fb9b 	bl	80035d4 <HAL_PWREx_EnableUSBVoltageDetector>
}
 8000e9e:	bf00      	nop
 8000ea0:	f507 7798 	add.w	r7, r7, #304	; 0x130
 8000ea4:	46bd      	mov	sp, r7
 8000ea6:	bd80      	pop	{r7, pc}
 8000ea8:	58024800 	.word	0x58024800
 8000eac:	58000400 	.word	0x58000400
 8000eb0:	58024400 	.word	0x58024400
 8000eb4:	000c0002 	.word	0x000c0002

08000eb8 <Error_Handler>:
/**
  * @brief  This function is executed in case of error occurrence.
  * @retval None
  */
void Error_Handler(void)
{
 8000eb8:	b480      	push	{r7}
 8000eba:	af00      	add	r7, sp, #0
  /* USER CODE BEGIN Error_Handler_Debug */
  /* User can add his own implementation to report the HAL error return state */

  /* USER CODE END Error_Handler_Debug */
}
 8000ebc:	bf00      	nop
 8000ebe:	46bd      	mov	sp, r7
 8000ec0:	f85d 7b04 	ldr.w	r7, [sp], #4
 8000ec4:	4770      	bx	lr
	...

08000ec8 <HAL_MspInit>:
/* USER CODE END 0 */
/**
  * Initializes the Global MSP.
  */
void HAL_MspInit(void)
{
 8000ec8:	b480      	push	{r7}
 8000eca:	b083      	sub	sp, #12
 8000ecc:	af00      	add	r7, sp, #0
  /* USER CODE BEGIN MspInit 0 */

  /* USER CODE END MspInit 0 */

  __HAL_RCC_SYSCFG_CLK_ENABLE();
 8000ece:	4b0a      	ldr	r3, [pc, #40]	; (8000ef8 <HAL_MspInit+0x30>)
 8000ed0:	f8d3 30f4 	ldr.w	r3, [r3, #244]	; 0xf4
 8000ed4:	4a08      	ldr	r2, [pc, #32]	; (8000ef8 <HAL_MspInit+0x30>)
 8000ed6:	f043 0302 	orr.w	r3, r3, #2
 8000eda:	f8c2 30f4 	str.w	r3, [r2, #244]	; 0xf4
 8000ede:	4b06      	ldr	r3, [pc, #24]	; (8000ef8 <HAL_MspInit+0x30>)
 8000ee0:	f8d3 30f4 	ldr.w	r3, [r3, #244]	; 0xf4
 8000ee4:	f003 0302 	and.w	r3, r3, #2
 8000ee8:	607b      	str	r3, [r7, #4]
 8000eea:	687b      	ldr	r3, [r7, #4]
  /* System interrupt init*/

  /* USER CODE BEGIN MspInit 1 */

  /* USER CODE END MspInit 1 */
}
 8000eec:	bf00      	nop
 8000eee:	370c      	adds	r7, #12
 8000ef0:	46bd      	mov	sp, r7
 8000ef2:	f85d 7b04 	ldr.w	r7, [sp], #4
 8000ef6:	4770      	bx	lr
 8000ef8:	58024400 	.word	0x58024400

08000efc <NMI_Handler>:
/******************************************************************************/
/**
  * @brief This function handles Non maskable interrupt.
  */
void NMI_Handler(void)
{
 8000efc:	b480      	push	{r7}
 8000efe:	af00      	add	r7, sp, #0

  /* USER CODE END NonMaskableInt_IRQn 0 */
  /* USER CODE BEGIN NonMaskableInt_IRQn 1 */

  /* USER CODE END NonMaskableInt_IRQn 1 */
}
 8000f00:	bf00      	nop
 8000f02:	46bd      	mov	sp, r7
 8000f04:	f85d 7b04 	ldr.w	r7, [sp], #4
 8000f08:	4770      	bx	lr

08000f0a <HardFault_Handler>:

/**
  * @brief This function handles Hard fault interrupt.
  */
void HardFault_Handler(void)
{
 8000f0a:	b480      	push	{r7}
 8000f0c:	af00      	add	r7, sp, #0
  /* USER CODE BEGIN HardFault_IRQn 0 */

  /* USER CODE END HardFault_IRQn 0 */
  while (1)
 8000f0e:	e7fe      	b.n	8000f0e <HardFault_Handler+0x4>

08000f10 <MemManage_Handler>:

/**
  * @brief This function handles Memory management fault.
  */
void MemManage_Handler(void)
{
 8000f10:	b480      	push	{r7}
 8000f12:	af00      	add	r7, sp, #0
  /* USER CODE BEGIN MemoryManagement_IRQn 0 */

  /* USER CODE END MemoryManagement_IRQn 0 */
  while (1)
 8000f14:	e7fe      	b.n	8000f14 <MemManage_Handler+0x4>

08000f16 <BusFault_Handler>:

/**
  * @brief This function handles Pre-fetch fault, memory access fault.
  */
void BusFault_Handler(void)
{
 8000f16:	b480      	push	{r7}
 8000f18:	af00      	add	r7, sp, #0
  /* USER CODE BEGIN BusFault_IRQn 0 */

  /* USER CODE END BusFault_IRQn 0 */
  while (1)
 8000f1a:	e7fe      	b.n	8000f1a <BusFault_Handler+0x4>

08000f1c <UsageFault_Handler>:

/**
  * @brief This function handles Undefined instruction or illegal state.
  */
void UsageFault_Handler(void)
{
 8000f1c:	b480      	push	{r7}
 8000f1e:	af00      	add	r7, sp, #0
  /* USER CODE BEGIN UsageFault_IRQn 0 */

  /* USER CODE END UsageFault_IRQn 0 */
  while (1)
 8000f20:	e7fe      	b.n	8000f20 <UsageFault_Handler+0x4>

08000f22 <SVC_Handler>:

/**
  * @brief This function handles System service call via SWI instruction.
  */
void SVC_Handler(void)
{
 8000f22:	b480      	push	{r7}
 8000f24:	af00      	add	r7, sp, #0

  /* USER CODE END SVCall_IRQn 0 */
  /* USER CODE BEGIN SVCall_IRQn 1 */

  /* USER CODE END SVCall_IRQn 1 */
}
 8000f26:	bf00      	nop
 8000f28:	46bd      	mov	sp, r7
 8000f2a:	f85d 7b04 	ldr.w	r7, [sp], #4
 8000f2e:	4770      	bx	lr

08000f30 <DebugMon_Handler>:

/**
  * @brief This function handles Debug monitor.
  */
void DebugMon_Handler(void)
{
 8000f30:	b480      	push	{r7}
 8000f32:	af00      	add	r7, sp, #0

  /* USER CODE END DebugMonitor_IRQn 0 */
  /* USER CODE BEGIN DebugMonitor_IRQn 1 */

  /* USER CODE END DebugMonitor_IRQn 1 */
}
 8000f34:	bf00      	nop
 8000f36:	46bd      	mov	sp, r7
 8000f38:	f85d 7b04 	ldr.w	r7, [sp], #4
 8000f3c:	4770      	bx	lr

08000f3e <PendSV_Handler>:

/**
  * @brief This function handles Pendable request for system service.
  */
void PendSV_Handler(void)
{
 8000f3e:	b480      	push	{r7}
 8000f40:	af00      	add	r7, sp, #0

  /* USER CODE END PendSV_IRQn 0 */
  /* USER CODE BEGIN PendSV_IRQn 1 */

  /* USER CODE END PendSV_IRQn 1 */
}
 8000f42:	bf00      	nop
 8000f44:	46bd      	mov	sp, r7
 8000f46:	f85d 7b04 	ldr.w	r7, [sp], #4
 8000f4a:	4770      	bx	lr

08000f4c <SysTick_Handler>:

/**
  * @brief This function handles System tick timer.
  */
void SysTick_Handler(void)
{
 8000f4c:	b580      	push	{r7, lr}
 8000f4e:	af00      	add	r7, sp, #0
  /* USER CODE BEGIN SysTick_IRQn 0 */

  /* USER CODE END SysTick_IRQn 0 */
  HAL_IncTick();
 8000f50:	f000 fbcc 	bl	80016ec <HAL_IncTick>
  /* USER CODE BEGIN SysTick_IRQn 1 */

  /* USER CODE END SysTick_IRQn 1 */
}
 8000f54:	bf00      	nop
 8000f56:	bd80      	pop	{r7, pc}

08000f58 <USART2_IRQHandler>:

/**
  * @brief This function handles USART2 global interrupt.
  */
void USART2_IRQHandler(void)
{
 8000f58:	b580      	push	{r7, lr}
 8000f5a:	af00      	add	r7, sp, #0
  /* USER CODE BEGIN USART2_IRQn 0 */

  /* USER CODE END USART2_IRQn 0 */
  HAL_UART_IRQHandler(&huart2);
 8000f5c:	4802      	ldr	r0, [pc, #8]	; (8000f68 <USART2_IRQHandler+0x10>)
 8000f5e:	f006 f995 	bl	800728c <HAL_UART_IRQHandler>
  /* USER CODE BEGIN USART2_IRQn 1 */

  /* USER CODE END USART2_IRQn 1 */
}
 8000f62:	bf00      	nop
 8000f64:	bd80      	pop	{r7, pc}
 8000f66:	bf00      	nop
 8000f68:	2000021c 	.word	0x2000021c

08000f6c <MX_TIM1_Init>:
TIM_HandleTypeDef htim1;
TIM_HandleTypeDef htim6;

/* TIM1 init function */
void MX_TIM1_Init(void)
{
 8000f6c:	b580      	push	{r7, lr}
 8000f6e:	b09a      	sub	sp, #104	; 0x68
 8000f70:	af00      	add	r7, sp, #0
  TIM_ClockConfigTypeDef sClockSourceConfig = {0};
 8000f72:	f107 0358 	add.w	r3, r7, #88	; 0x58
 8000f76:	2200      	movs	r2, #0
 8000f78:	601a      	str	r2, [r3, #0]
 8000f7a:	605a      	str	r2, [r3, #4]
 8000f7c:	609a      	str	r2, [r3, #8]
 8000f7e:	60da      	str	r2, [r3, #12]
  TIM_MasterConfigTypeDef sMasterConfig = {0};
 8000f80:	f107 034c 	add.w	r3, r7, #76	; 0x4c
 8000f84:	2200      	movs	r2, #0
 8000f86:	601a      	str	r2, [r3, #0]
 8000f88:	605a      	str	r2, [r3, #4]
 8000f8a:	609a      	str	r2, [r3, #8]
  TIM_OC_InitTypeDef sConfigOC = {0};
 8000f8c:	f107 0330 	add.w	r3, r7, #48	; 0x30
 8000f90:	2200      	movs	r2, #0
 8000f92:	601a      	str	r2, [r3, #0]
 8000f94:	605a      	str	r2, [r3, #4]
 8000f96:	609a      	str	r2, [r3, #8]
 8000f98:	60da      	str	r2, [r3, #12]
 8000f9a:	611a      	str	r2, [r3, #16]
 8000f9c:	615a      	str	r2, [r3, #20]
 8000f9e:	619a      	str	r2, [r3, #24]
  TIM_BreakDeadTimeConfigTypeDef sBreakDeadTimeConfig = {0};
 8000fa0:	1d3b      	adds	r3, r7, #4
 8000fa2:	222c      	movs	r2, #44	; 0x2c
 8000fa4:	2100      	movs	r1, #0
 8000fa6:	4618      	mov	r0, r3
 8000fa8:	f007 fe7c 	bl	8008ca4 <memset>

  htim1.Instance = TIM1;
 8000fac:	4b43      	ldr	r3, [pc, #268]	; (80010bc <MX_TIM1_Init+0x150>)
 8000fae:	4a44      	ldr	r2, [pc, #272]	; (80010c0 <MX_TIM1_Init+0x154>)
 8000fb0:	601a      	str	r2, [r3, #0]
  htim1.Init.Prescaler = 240-1;
 8000fb2:	4b42      	ldr	r3, [pc, #264]	; (80010bc <MX_TIM1_Init+0x150>)
 8000fb4:	22ef      	movs	r2, #239	; 0xef
 8000fb6:	605a      	str	r2, [r3, #4]
  htim1.Init.CounterMode = TIM_COUNTERMODE_UP;
 8000fb8:	4b40      	ldr	r3, [pc, #256]	; (80010bc <MX_TIM1_Init+0x150>)
 8000fba:	2200      	movs	r2, #0
 8000fbc:	609a      	str	r2, [r3, #8]
  htim1.Init.Period = 1000-1;
 8000fbe:	4b3f      	ldr	r3, [pc, #252]	; (80010bc <MX_TIM1_Init+0x150>)
 8000fc0:	f240 32e7 	movw	r2, #999	; 0x3e7
 8000fc4:	60da      	str	r2, [r3, #12]
  htim1.Init.ClockDivision = TIM_CLOCKDIVISION_DIV1;
 8000fc6:	4b3d      	ldr	r3, [pc, #244]	; (80010bc <MX_TIM1_Init+0x150>)
 8000fc8:	2200      	movs	r2, #0
 8000fca:	611a      	str	r2, [r3, #16]
  htim1.Init.RepetitionCounter = 0;
 8000fcc:	4b3b      	ldr	r3, [pc, #236]	; (80010bc <MX_TIM1_Init+0x150>)
 8000fce:	2200      	movs	r2, #0
 8000fd0:	615a      	str	r2, [r3, #20]
  htim1.Init.AutoReloadPreload = TIM_AUTORELOAD_PRELOAD_DISABLE;
 8000fd2:	4b3a      	ldr	r3, [pc, #232]	; (80010bc <MX_TIM1_Init+0x150>)
 8000fd4:	2200      	movs	r2, #0
 8000fd6:	619a      	str	r2, [r3, #24]
  if (HAL_TIM_Base_Init(&htim1) != HAL_OK)
 8000fd8:	4838      	ldr	r0, [pc, #224]	; (80010bc <MX_TIM1_Init+0x150>)
 8000fda:	f005 f963 	bl	80062a4 <HAL_TIM_Base_Init>
 8000fde:	4603      	mov	r3, r0
 8000fe0:	2b00      	cmp	r3, #0
 8000fe2:	d001      	beq.n	8000fe8 <MX_TIM1_Init+0x7c>
  {
    Error_Handler();
 8000fe4:	f7ff ff68 	bl	8000eb8 <Error_Handler>
  }
  sClockSourceConfig.ClockSource = TIM_CLOCKSOURCE_INTERNAL;
 8000fe8:	f44f 5380 	mov.w	r3, #4096	; 0x1000
 8000fec:	65bb      	str	r3, [r7, #88]	; 0x58
  if (HAL_TIM_ConfigClockSource(&htim1, &sClockSourceConfig) != HAL_OK)
 8000fee:	f107 0358 	add.w	r3, r7, #88	; 0x58
 8000ff2:	4619      	mov	r1, r3
 8000ff4:	4831      	ldr	r0, [pc, #196]	; (80010bc <MX_TIM1_Init+0x150>)
 8000ff6:	f005 fb1d 	bl	8006634 <HAL_TIM_ConfigClockSource>
 8000ffa:	4603      	mov	r3, r0
 8000ffc:	2b00      	cmp	r3, #0
 8000ffe:	d001      	beq.n	8001004 <MX_TIM1_Init+0x98>
  {
    Error_Handler();
 8001000:	f7ff ff5a 	bl	8000eb8 <Error_Handler>
  }
  if (HAL_TIM_PWM_Init(&htim1) != HAL_OK)
 8001004:	482d      	ldr	r0, [pc, #180]	; (80010bc <MX_TIM1_Init+0x150>)
 8001006:	f005 f9a4 	bl	8006352 <HAL_TIM_PWM_Init>
 800100a:	4603      	mov	r3, r0
 800100c:	2b00      	cmp	r3, #0
 800100e:	d001      	beq.n	8001014 <MX_TIM1_Init+0xa8>
  {
    Error_Handler();
 8001010:	f7ff ff52 	bl	8000eb8 <Error_Handler>
  }
  sMasterConfig.MasterOutputTrigger = TIM_TRGO_RESET;
 8001014:	2300      	movs	r3, #0
 8001016:	64fb      	str	r3, [r7, #76]	; 0x4c
  sMasterConfig.MasterOutputTrigger2 = TIM_TRGO2_RESET;
 8001018:	2300      	movs	r3, #0
 800101a:	653b      	str	r3, [r7, #80]	; 0x50
  sMasterConfig.MasterSlaveMode = TIM_MASTERSLAVEMODE_DISABLE;
 800101c:	2300      	movs	r3, #0
 800101e:	657b      	str	r3, [r7, #84]	; 0x54
  if (HAL_TIMEx_MasterConfigSynchronization(&htim1, &sMasterConfig) != HAL_OK)
 8001020:	f107 034c 	add.w	r3, r7, #76	; 0x4c
 8001024:	4619      	mov	r1, r3
 8001026:	4825      	ldr	r0, [pc, #148]	; (80010bc <MX_TIM1_Init+0x150>)
 8001028:	f005 ffda 	bl	8006fe0 <HAL_TIMEx_MasterConfigSynchronization>
 800102c:	4603      	mov	r3, r0
 800102e:	2b00      	cmp	r3, #0
 8001030:	d001      	beq.n	8001036 <MX_TIM1_Init+0xca>
  {
    Error_Handler();
 8001032:	f7ff ff41 	bl	8000eb8 <Error_Handler>
  }
  sConfigOC.OCMode = TIM_OCMODE_PWM1;
 8001036:	2360      	movs	r3, #96	; 0x60
 8001038:	633b      	str	r3, [r7, #48]	; 0x30
  sConfigOC.Pulse = 0;
 800103a:	2300      	movs	r3, #0
 800103c:	637b      	str	r3, [r7, #52]	; 0x34
  sConfigOC.OCPolarity = TIM_OCPOLARITY_HIGH;
 800103e:	2300      	movs	r3, #0
 8001040:	63bb      	str	r3, [r7, #56]	; 0x38
  sConfigOC.OCNPolarity = TIM_OCNPOLARITY_HIGH;
 8001042:	2300      	movs	r3, #0
 8001044:	63fb      	str	r3, [r7, #60]	; 0x3c
  sConfigOC.OCFastMode = TIM_OCFAST_DISABLE;
 8001046:	2300      	movs	r3, #0
 8001048:	643b      	str	r3, [r7, #64]	; 0x40
  sConfigOC.OCIdleState = TIM_OCIDLESTATE_RESET;
 800104a:	2300      	movs	r3, #0
 800104c:	647b      	str	r3, [r7, #68]	; 0x44
  sConfigOC.OCNIdleState = TIM_OCNIDLESTATE_RESET;
 800104e:	2300      	movs	r3, #0
 8001050:	64bb      	str	r3, [r7, #72]	; 0x48
  if (HAL_TIM_PWM_ConfigChannel(&htim1, &sConfigOC, TIM_CHANNEL_1) != HAL_OK)
 8001052:	f107 0330 	add.w	r3, r7, #48	; 0x30
 8001056:	2200      	movs	r2, #0
 8001058:	4619      	mov	r1, r3
 800105a:	4818      	ldr	r0, [pc, #96]	; (80010bc <MX_TIM1_Init+0x150>)
 800105c:	f005 f9da 	bl	8006414 <HAL_TIM_PWM_ConfigChannel>
 8001060:	4603      	mov	r3, r0
 8001062:	2b00      	cmp	r3, #0
 8001064:	d001      	beq.n	800106a <MX_TIM1_Init+0xfe>
  {
    Error_Handler();
 8001066:	f7ff ff27 	bl	8000eb8 <Error_Handler>
  }
  sBreakDeadTimeConfig.OffStateRunMode = TIM_OSSR_DISABLE;
 800106a:	2300      	movs	r3, #0
 800106c:	607b      	str	r3, [r7, #4]
  sBreakDeadTimeConfig.OffStateIDLEMode = TIM_OSSI_DISABLE;
 800106e:	2300      	movs	r3, #0
 8001070:	60bb      	str	r3, [r7, #8]
  sBreakDeadTimeConfig.LockLevel = TIM_LOCKLEVEL_OFF;
 8001072:	2300      	movs	r3, #0
 8001074:	60fb      	str	r3, [r7, #12]
  sBreakDeadTimeConfig.DeadTime = 0;
 8001076:	2300      	movs	r3, #0
 8001078:	613b      	str	r3, [r7, #16]
  sBreakDeadTimeConfig.BreakState = TIM_BREAK_DISABLE;
 800107a:	2300      	movs	r3, #0
 800107c:	617b      	str	r3, [r7, #20]
  sBreakDeadTimeConfig.BreakPolarity = TIM_BREAKPOLARITY_HIGH;
 800107e:	f44f 5300 	mov.w	r3, #8192	; 0x2000
 8001082:	61bb      	str	r3, [r7, #24]
  sBreakDeadTimeConfig.BreakFilter = 0;
 8001084:	2300      	movs	r3, #0
 8001086:	61fb      	str	r3, [r7, #28]
  sBreakDeadTimeConfig.Break2State = TIM_BREAK2_DISABLE;
 8001088:	2300      	movs	r3, #0
 800108a:	623b      	str	r3, [r7, #32]
  sBreakDeadTimeConfig.Break2Polarity = TIM_BREAK2POLARITY_HIGH;
 800108c:	f04f 7300 	mov.w	r3, #33554432	; 0x2000000
 8001090:	627b      	str	r3, [r7, #36]	; 0x24
  sBreakDeadTimeConfig.Break2Filter = 0;
 8001092:	2300      	movs	r3, #0
 8001094:	62bb      	str	r3, [r7, #40]	; 0x28
  sBreakDeadTimeConfig.AutomaticOutput = TIM_AUTOMATICOUTPUT_DISABLE;
 8001096:	2300      	movs	r3, #0
 8001098:	62fb      	str	r3, [r7, #44]	; 0x2c
  if (HAL_TIMEx_ConfigBreakDeadTime(&htim1, &sBreakDeadTimeConfig) != HAL_OK)
 800109a:	1d3b      	adds	r3, r7, #4
 800109c:	4619      	mov	r1, r3
 800109e:	4807      	ldr	r0, [pc, #28]	; (80010bc <MX_TIM1_Init+0x150>)
 80010a0:	f006 f826 	bl	80070f0 <HAL_TIMEx_ConfigBreakDeadTime>
 80010a4:	4603      	mov	r3, r0
 80010a6:	2b00      	cmp	r3, #0
 80010a8:	d001      	beq.n	80010ae <MX_TIM1_Init+0x142>
  {
    Error_Handler();
 80010aa:	f7ff ff05 	bl	8000eb8 <Error_Handler>
  }
  HAL_TIM_MspPostInit(&htim1);
 80010ae:	4803      	ldr	r0, [pc, #12]	; (80010bc <MX_TIM1_Init+0x150>)
 80010b0:	f000 f878 	bl	80011a4 <HAL_TIM_MspPostInit>

}
 80010b4:	bf00      	nop
 80010b6:	3768      	adds	r7, #104	; 0x68
 80010b8:	46bd      	mov	sp, r7
 80010ba:	bd80      	pop	{r7, pc}
 80010bc:	20000144 	.word	0x20000144
 80010c0:	40010000 	.word	0x40010000

080010c4 <MX_TIM6_Init>:
/* TIM6 init function */
void MX_TIM6_Init(void)
{
 80010c4:	b580      	push	{r7, lr}
 80010c6:	b084      	sub	sp, #16
 80010c8:	af00      	add	r7, sp, #0
  TIM_MasterConfigTypeDef sMasterConfig = {0};
 80010ca:	1d3b      	adds	r3, r7, #4
 80010cc:	2200      	movs	r2, #0
 80010ce:	601a      	str	r2, [r3, #0]
 80010d0:	605a      	str	r2, [r3, #4]
 80010d2:	609a      	str	r2, [r3, #8]

  htim6.Instance = TIM6;
 80010d4:	4b14      	ldr	r3, [pc, #80]	; (8001128 <MX_TIM6_Init+0x64>)
 80010d6:	4a15      	ldr	r2, [pc, #84]	; (800112c <MX_TIM6_Init+0x68>)
 80010d8:	601a      	str	r2, [r3, #0]
  htim6.Init.Prescaler = 239;
 80010da:	4b13      	ldr	r3, [pc, #76]	; (8001128 <MX_TIM6_Init+0x64>)
 80010dc:	22ef      	movs	r2, #239	; 0xef
 80010de:	605a      	str	r2, [r3, #4]
  htim6.Init.CounterMode = TIM_COUNTERMODE_UP;
 80010e0:	4b11      	ldr	r3, [pc, #68]	; (8001128 <MX_TIM6_Init+0x64>)
 80010e2:	2200      	movs	r2, #0
 80010e4:	609a      	str	r2, [r3, #8]
  htim6.Init.Period = 65534;
 80010e6:	4b10      	ldr	r3, [pc, #64]	; (8001128 <MX_TIM6_Init+0x64>)
 80010e8:	f64f 72fe 	movw	r2, #65534	; 0xfffe
 80010ec:	60da      	str	r2, [r3, #12]
  htim6.Init.AutoReloadPreload = TIM_AUTORELOAD_PRELOAD_DISABLE;
 80010ee:	4b0e      	ldr	r3, [pc, #56]	; (8001128 <MX_TIM6_Init+0x64>)
 80010f0:	2200      	movs	r2, #0
 80010f2:	619a      	str	r2, [r3, #24]
  if (HAL_TIM_Base_Init(&htim6) != HAL_OK)
 80010f4:	480c      	ldr	r0, [pc, #48]	; (8001128 <MX_TIM6_Init+0x64>)
 80010f6:	f005 f8d5 	bl	80062a4 <HAL_TIM_Base_Init>
 80010fa:	4603      	mov	r3, r0
 80010fc:	2b00      	cmp	r3, #0
 80010fe:	d001      	beq.n	8001104 <MX_TIM6_Init+0x40>
  {
    Error_Handler();
 8001100:	f7ff feda 	bl	8000eb8 <Error_Handler>
  }
  sMasterConfig.MasterOutputTrigger = TIM_TRGO_RESET;
 8001104:	2300      	movs	r3, #0
 8001106:	607b      	str	r3, [r7, #4]
  sMasterConfig.MasterSlaveMode = TIM_MASTERSLAVEMODE_DISABLE;
 8001108:	2300      	movs	r3, #0
 800110a:	60fb      	str	r3, [r7, #12]
  if (HAL_TIMEx_MasterConfigSynchronization(&htim6, &sMasterConfig) != HAL_OK)
 800110c:	1d3b      	adds	r3, r7, #4
 800110e:	4619      	mov	r1, r3
 8001110:	4805      	ldr	r0, [pc, #20]	; (8001128 <MX_TIM6_Init+0x64>)
 8001112:	f005 ff65 	bl	8006fe0 <HAL_TIMEx_MasterConfigSynchronization>
 8001116:	4603      	mov	r3, r0
 8001118:	2b00      	cmp	r3, #0
 800111a:	d001      	beq.n	8001120 <MX_TIM6_Init+0x5c>
  {
    Error_Handler();
 800111c:	f7ff fecc 	bl	8000eb8 <Error_Handler>
  }

}
 8001120:	bf00      	nop
 8001122:	3710      	adds	r7, #16
 8001124:	46bd      	mov	sp, r7
 8001126:	bd80      	pop	{r7, pc}
 8001128:	200000f8 	.word	0x200000f8
 800112c:	40001000 	.word	0x40001000

08001130 <HAL_TIM_Base_MspInit>:

void HAL_TIM_Base_MspInit(TIM_HandleTypeDef* tim_baseHandle)
{
 8001130:	b480      	push	{r7}
 8001132:	b085      	sub	sp, #20
 8001134:	af00      	add	r7, sp, #0
 8001136:	6078      	str	r0, [r7, #4]

  if(tim_baseHandle->Instance==TIM1)
 8001138:	687b      	ldr	r3, [r7, #4]
 800113a:	681b      	ldr	r3, [r3, #0]
 800113c:	4a16      	ldr	r2, [pc, #88]	; (8001198 <HAL_TIM_Base_MspInit+0x68>)
 800113e:	4293      	cmp	r3, r2
 8001140:	d10f      	bne.n	8001162 <HAL_TIM_Base_MspInit+0x32>
  {
  /* USER CODE BEGIN TIM1_MspInit 0 */

  /* USER CODE END TIM1_MspInit 0 */
    /* TIM1 clock enable */
    __HAL_RCC_TIM1_CLK_ENABLE();
 8001142:	4b16      	ldr	r3, [pc, #88]	; (800119c <HAL_TIM_Base_MspInit+0x6c>)
 8001144:	f8d3 30f0 	ldr.w	r3, [r3, #240]	; 0xf0
 8001148:	4a14      	ldr	r2, [pc, #80]	; (800119c <HAL_TIM_Base_MspInit+0x6c>)
 800114a:	f043 0301 	orr.w	r3, r3, #1
 800114e:	f8c2 30f0 	str.w	r3, [r2, #240]	; 0xf0
 8001152:	4b12      	ldr	r3, [pc, #72]	; (800119c <HAL_TIM_Base_MspInit+0x6c>)
 8001154:	f8d3 30f0 	ldr.w	r3, [r3, #240]	; 0xf0
 8001158:	f003 0301 	and.w	r3, r3, #1
 800115c:	60fb      	str	r3, [r7, #12]
 800115e:	68fb      	ldr	r3, [r7, #12]
    __HAL_RCC_TIM6_CLK_ENABLE();
  /* USER CODE BEGIN TIM6_MspInit 1 */

  /* USER CODE END TIM6_MspInit 1 */
  }
}
 8001160:	e013      	b.n	800118a <HAL_TIM_Base_MspInit+0x5a>
  else if(tim_baseHandle->Instance==TIM6)
 8001162:	687b      	ldr	r3, [r7, #4]
 8001164:	681b      	ldr	r3, [r3, #0]
 8001166:	4a0e      	ldr	r2, [pc, #56]	; (80011a0 <HAL_TIM_Base_MspInit+0x70>)
 8001168:	4293      	cmp	r3, r2
 800116a:	d10e      	bne.n	800118a <HAL_TIM_Base_MspInit+0x5a>
    __HAL_RCC_TIM6_CLK_ENABLE();
 800116c:	4b0b      	ldr	r3, [pc, #44]	; (800119c <HAL_TIM_Base_MspInit+0x6c>)
 800116e:	f8d3 30e8 	ldr.w	r3, [r3, #232]	; 0xe8
 8001172:	4a0a      	ldr	r2, [pc, #40]	; (800119c <HAL_TIM_Base_MspInit+0x6c>)
 8001174:	f043 0310 	orr.w	r3, r3, #16
 8001178:	f8c2 30e8 	str.w	r3, [r2, #232]	; 0xe8
 800117c:	4b07      	ldr	r3, [pc, #28]	; (800119c <HAL_TIM_Base_MspInit+0x6c>)
 800117e:	f8d3 30e8 	ldr.w	r3, [r3, #232]	; 0xe8
 8001182:	f003 0310 	and.w	r3, r3, #16
 8001186:	60bb      	str	r3, [r7, #8]
 8001188:	68bb      	ldr	r3, [r7, #8]
}
 800118a:	bf00      	nop
 800118c:	3714      	adds	r7, #20
 800118e:	46bd      	mov	sp, r7
 8001190:	f85d 7b04 	ldr.w	r7, [sp], #4
 8001194:	4770      	bx	lr
 8001196:	bf00      	nop
 8001198:	40010000 	.word	0x40010000
 800119c:	58024400 	.word	0x58024400
 80011a0:	40001000 	.word	0x40001000

080011a4 <HAL_TIM_MspPostInit>:
void HAL_TIM_MspPostInit(TIM_HandleTypeDef* timHandle)
{
 80011a4:	b580      	push	{r7, lr}
 80011a6:	b088      	sub	sp, #32
 80011a8:	af00      	add	r7, sp, #0
 80011aa:	6078      	str	r0, [r7, #4]

  GPIO_InitTypeDef GPIO_InitStruct = {0};
 80011ac:	f107 030c 	add.w	r3, r7, #12
 80011b0:	2200      	movs	r2, #0
 80011b2:	601a      	str	r2, [r3, #0]
 80011b4:	605a      	str	r2, [r3, #4]
 80011b6:	609a      	str	r2, [r3, #8]
 80011b8:	60da      	str	r2, [r3, #12]
 80011ba:	611a      	str	r2, [r3, #16]
  if(timHandle->Instance==TIM1)
 80011bc:	687b      	ldr	r3, [r7, #4]
 80011be:	681b      	ldr	r3, [r3, #0]
 80011c0:	4a13      	ldr	r2, [pc, #76]	; (8001210 <HAL_TIM_MspPostInit+0x6c>)
 80011c2:	4293      	cmp	r3, r2
 80011c4:	d11f      	bne.n	8001206 <HAL_TIM_MspPostInit+0x62>
  {
  /* USER CODE BEGIN TIM1_MspPostInit 0 */

  /* USER CODE END TIM1_MspPostInit 0 */

    __HAL_RCC_GPIOE_CLK_ENABLE();
 80011c6:	4b13      	ldr	r3, [pc, #76]	; (8001214 <HAL_TIM_MspPostInit+0x70>)
 80011c8:	f8d3 30e0 	ldr.w	r3, [r3, #224]	; 0xe0
 80011cc:	4a11      	ldr	r2, [pc, #68]	; (8001214 <HAL_TIM_MspPostInit+0x70>)
 80011ce:	f043 0310 	orr.w	r3, r3, #16
 80011d2:	f8c2 30e0 	str.w	r3, [r2, #224]	; 0xe0
 80011d6:	4b0f      	ldr	r3, [pc, #60]	; (8001214 <HAL_TIM_MspPostInit+0x70>)
 80011d8:	f8d3 30e0 	ldr.w	r3, [r3, #224]	; 0xe0
 80011dc:	f003 0310 	and.w	r3, r3, #16
 80011e0:	60bb      	str	r3, [r7, #8]
 80011e2:	68bb      	ldr	r3, [r7, #8]
    /**TIM1 GPIO Configuration
    PE9     ------> TIM1_CH1
    */
    GPIO_InitStruct.Pin = BUZZ_PWM_Pin;
 80011e4:	f44f 7300 	mov.w	r3, #512	; 0x200
 80011e8:	60fb      	str	r3, [r7, #12]
    GPIO_InitStruct.Mode = GPIO_MODE_AF_PP;
 80011ea:	2302      	movs	r3, #2
 80011ec:	613b      	str	r3, [r7, #16]
    GPIO_InitStruct.Pull = GPIO_NOPULL;
 80011ee:	2300      	movs	r3, #0
 80011f0:	617b      	str	r3, [r7, #20]
    GPIO_InitStruct.Speed = GPIO_SPEED_FREQ_LOW;
 80011f2:	2300      	movs	r3, #0
 80011f4:	61bb      	str	r3, [r7, #24]
    GPIO_InitStruct.Alternate = GPIO_AF1_TIM1;
 80011f6:	2301      	movs	r3, #1
 80011f8:	61fb      	str	r3, [r7, #28]
    HAL_GPIO_Init(BUZZ_PWM_GPIO_Port, &GPIO_InitStruct);
 80011fa:	f107 030c 	add.w	r3, r7, #12
 80011fe:	4619      	mov	r1, r3
 8001200:	4805      	ldr	r0, [pc, #20]	; (8001218 <HAL_TIM_MspPostInit+0x74>)
 8001202:	f001 fe4d 	bl	8002ea0 <HAL_GPIO_Init>
  /* USER CODE BEGIN TIM1_MspPostInit 1 */

  /* USER CODE END TIM1_MspPostInit 1 */
  }

}
 8001206:	bf00      	nop
 8001208:	3720      	adds	r7, #32
 800120a:	46bd      	mov	sp, r7
 800120c:	bd80      	pop	{r7, pc}
 800120e:	bf00      	nop
 8001210:	40010000 	.word	0x40010000
 8001214:	58024400 	.word	0x58024400
 8001218:	58021000 	.word	0x58021000

0800121c <MX_USART2_UART_Init>:
UART_HandleTypeDef huart3;

/* USART2 init function */

void MX_USART2_UART_Init(void)
{
 800121c:	b580      	push	{r7, lr}
 800121e:	af00      	add	r7, sp, #0

  huart2.Instance = USART2;
 8001220:	4b22      	ldr	r3, [pc, #136]	; (80012ac <MX_USART2_UART_Init+0x90>)
 8001222:	4a23      	ldr	r2, [pc, #140]	; (80012b0 <MX_USART2_UART_Init+0x94>)
 8001224:	601a      	str	r2, [r3, #0]
  huart2.Init.BaudRate = 115200;
 8001226:	4b21      	ldr	r3, [pc, #132]	; (80012ac <MX_USART2_UART_Init+0x90>)
 8001228:	f44f 32e1 	mov.w	r2, #115200	; 0x1c200
 800122c:	605a      	str	r2, [r3, #4]
  huart2.Init.WordLength = UART_WORDLENGTH_8B;
 800122e:	4b1f      	ldr	r3, [pc, #124]	; (80012ac <MX_USART2_UART_Init+0x90>)
 8001230:	2200      	movs	r2, #0
 8001232:	609a      	str	r2, [r3, #8]
  huart2.Init.StopBits = UART_STOPBITS_1;
 8001234:	4b1d      	ldr	r3, [pc, #116]	; (80012ac <MX_USART2_UART_Init+0x90>)
 8001236:	2200      	movs	r2, #0
 8001238:	60da      	str	r2, [r3, #12]
  huart2.Init.Parity = UART_PARITY_NONE;
 800123a:	4b1c      	ldr	r3, [pc, #112]	; (80012ac <MX_USART2_UART_Init+0x90>)
 800123c:	2200      	movs	r2, #0
 800123e:	611a      	str	r2, [r3, #16]
  huart2.Init.Mode = UART_MODE_TX_RX;
 8001240:	4b1a      	ldr	r3, [pc, #104]	; (80012ac <MX_USART2_UART_Init+0x90>)
 8001242:	220c      	movs	r2, #12
 8001244:	615a      	str	r2, [r3, #20]
  huart2.Init.HwFlowCtl = UART_HWCONTROL_NONE;
 8001246:	4b19      	ldr	r3, [pc, #100]	; (80012ac <MX_USART2_UART_Init+0x90>)
 8001248:	2200      	movs	r2, #0
 800124a:	619a      	str	r2, [r3, #24]
  huart2.Init.OverSampling = UART_OVERSAMPLING_16;
 800124c:	4b17      	ldr	r3, [pc, #92]	; (80012ac <MX_USART2_UART_Init+0x90>)
 800124e:	2200      	movs	r2, #0
 8001250:	61da      	str	r2, [r3, #28]
  huart2.Init.OneBitSampling = UART_ONE_BIT_SAMPLE_DISABLE;
 8001252:	4b16      	ldr	r3, [pc, #88]	; (80012ac <MX_USART2_UART_Init+0x90>)
 8001254:	2200      	movs	r2, #0
 8001256:	621a      	str	r2, [r3, #32]
  huart2.Init.ClockPrescaler = UART_PRESCALER_DIV1;
 8001258:	4b14      	ldr	r3, [pc, #80]	; (80012ac <MX_USART2_UART_Init+0x90>)
 800125a:	2200      	movs	r2, #0
 800125c:	625a      	str	r2, [r3, #36]	; 0x24
  huart2.AdvancedInit.AdvFeatureInit = UART_ADVFEATURE_NO_INIT;
 800125e:	4b13      	ldr	r3, [pc, #76]	; (80012ac <MX_USART2_UART_Init+0x90>)
 8001260:	2200      	movs	r2, #0
 8001262:	629a      	str	r2, [r3, #40]	; 0x28
  if (HAL_UART_Init(&huart2) != HAL_OK)
 8001264:	4811      	ldr	r0, [pc, #68]	; (80012ac <MX_USART2_UART_Init+0x90>)
 8001266:	f005 ffc1 	bl	80071ec <HAL_UART_Init>
 800126a:	4603      	mov	r3, r0
 800126c:	2b00      	cmp	r3, #0
 800126e:	d001      	beq.n	8001274 <MX_USART2_UART_Init+0x58>
  {
    Error_Handler();
 8001270:	f7ff fe22 	bl	8000eb8 <Error_Handler>
  }
  if (HAL_UARTEx_SetTxFifoThreshold(&huart2, UART_TXFIFO_THRESHOLD_1_8) != HAL_OK)
 8001274:	2100      	movs	r1, #0
 8001276:	480d      	ldr	r0, [pc, #52]	; (80012ac <MX_USART2_UART_Init+0x90>)
 8001278:	f007 f961 	bl	800853e <HAL_UARTEx_SetTxFifoThreshold>
 800127c:	4603      	mov	r3, r0
 800127e:	2b00      	cmp	r3, #0
 8001280:	d001      	beq.n	8001286 <MX_USART2_UART_Init+0x6a>
  {
    Error_Handler();
 8001282:	f7ff fe19 	bl	8000eb8 <Error_Handler>
  }
  if (HAL_UARTEx_SetRxFifoThreshold(&huart2, UART_RXFIFO_THRESHOLD_1_8) != HAL_OK)
 8001286:	2100      	movs	r1, #0
 8001288:	4808      	ldr	r0, [pc, #32]	; (80012ac <MX_USART2_UART_Init+0x90>)
 800128a:	f007 f996 	bl	80085ba <HAL_UARTEx_SetRxFifoThreshold>
 800128e:	4603      	mov	r3, r0
 8001290:	2b00      	cmp	r3, #0
 8001292:	d001      	beq.n	8001298 <MX_USART2_UART_Init+0x7c>
  {
    Error_Handler();
 8001294:	f7ff fe10 	bl	8000eb8 <Error_Handler>
  }
  if (HAL_UARTEx_DisableFifoMode(&huart2) != HAL_OK)
 8001298:	4804      	ldr	r0, [pc, #16]	; (80012ac <MX_USART2_UART_Init+0x90>)
 800129a:	f007 f917 	bl	80084cc <HAL_UARTEx_DisableFifoMode>
 800129e:	4603      	mov	r3, r0
 80012a0:	2b00      	cmp	r3, #0
 80012a2:	d001      	beq.n	80012a8 <MX_USART2_UART_Init+0x8c>
  {
    Error_Handler();
 80012a4:	f7ff fe08 	bl	8000eb8 <Error_Handler>
  }

}
 80012a8:	bf00      	nop
 80012aa:	bd80      	pop	{r7, pc}
 80012ac:	2000021c 	.word	0x2000021c
 80012b0:	40004400 	.word	0x40004400

080012b4 <MX_USART3_UART_Init>:
/* USART3 init function */

void MX_USART3_UART_Init(void)
{
 80012b4:	b580      	push	{r7, lr}
 80012b6:	af00      	add	r7, sp, #0

  huart3.Instance = USART3;
 80012b8:	4b22      	ldr	r3, [pc, #136]	; (8001344 <MX_USART3_UART_Init+0x90>)
 80012ba:	4a23      	ldr	r2, [pc, #140]	; (8001348 <MX_USART3_UART_Init+0x94>)
 80012bc:	601a      	str	r2, [r3, #0]
  huart3.Init.BaudRate = 115200;
 80012be:	4b21      	ldr	r3, [pc, #132]	; (8001344 <MX_USART3_UART_Init+0x90>)
 80012c0:	f44f 32e1 	mov.w	r2, #115200	; 0x1c200
 80012c4:	605a      	str	r2, [r3, #4]
  huart3.Init.WordLength = UART_WORDLENGTH_8B;
 80012c6:	4b1f      	ldr	r3, [pc, #124]	; (8001344 <MX_USART3_UART_Init+0x90>)
 80012c8:	2200      	movs	r2, #0
 80012ca:	609a      	str	r2, [r3, #8]
  huart3.Init.StopBits = UART_STOPBITS_1;
 80012cc:	4b1d      	ldr	r3, [pc, #116]	; (8001344 <MX_USART3_UART_Init+0x90>)
 80012ce:	2200      	movs	r2, #0
 80012d0:	60da      	str	r2, [r3, #12]
  huart3.Init.Parity = UART_PARITY_NONE;
 80012d2:	4b1c      	ldr	r3, [pc, #112]	; (8001344 <MX_USART3_UART_Init+0x90>)
 80012d4:	2200      	movs	r2, #0
 80012d6:	611a      	str	r2, [r3, #16]
  huart3.Init.Mode = UART_MODE_TX_RX;
 80012d8:	4b1a      	ldr	r3, [pc, #104]	; (8001344 <MX_USART3_UART_Init+0x90>)
 80012da:	220c      	movs	r2, #12
 80012dc:	615a      	str	r2, [r3, #20]
  huart3.Init.HwFlowCtl = UART_HWCONTROL_NONE;
 80012de:	4b19      	ldr	r3, [pc, #100]	; (8001344 <MX_USART3_UART_Init+0x90>)
 80012e0:	2200      	movs	r2, #0
 80012e2:	619a      	str	r2, [r3, #24]
  huart3.Init.OverSampling = UART_OVERSAMPLING_16;
 80012e4:	4b17      	ldr	r3, [pc, #92]	; (8001344 <MX_USART3_UART_Init+0x90>)
 80012e6:	2200      	movs	r2, #0
 80012e8:	61da      	str	r2, [r3, #28]
  huart3.Init.OneBitSampling = UART_ONE_BIT_SAMPLE_DISABLE;
 80012ea:	4b16      	ldr	r3, [pc, #88]	; (8001344 <MX_USART3_UART_Init+0x90>)
 80012ec:	2200      	movs	r2, #0
 80012ee:	621a      	str	r2, [r3, #32]
  huart3.Init.ClockPrescaler = UART_PRESCALER_DIV1;
 80012f0:	4b14      	ldr	r3, [pc, #80]	; (8001344 <MX_USART3_UART_Init+0x90>)
 80012f2:	2200      	movs	r2, #0
 80012f4:	625a      	str	r2, [r3, #36]	; 0x24
  huart3.AdvancedInit.AdvFeatureInit = UART_ADVFEATURE_NO_INIT;
 80012f6:	4b13      	ldr	r3, [pc, #76]	; (8001344 <MX_USART3_UART_Init+0x90>)
 80012f8:	2200      	movs	r2, #0
 80012fa:	629a      	str	r2, [r3, #40]	; 0x28
  if (HAL_UART_Init(&huart3) != HAL_OK)
 80012fc:	4811      	ldr	r0, [pc, #68]	; (8001344 <MX_USART3_UART_Init+0x90>)
 80012fe:	f005 ff75 	bl	80071ec <HAL_UART_Init>
 8001302:	4603      	mov	r3, r0
 8001304:	2b00      	cmp	r3, #0
 8001306:	d001      	beq.n	800130c <MX_USART3_UART_Init+0x58>
  {
    Error_Handler();
 8001308:	f7ff fdd6 	bl	8000eb8 <Error_Handler>
  }
  if (HAL_UARTEx_SetTxFifoThreshold(&huart3, UART_TXFIFO_THRESHOLD_1_8) != HAL_OK)
 800130c:	2100      	movs	r1, #0
 800130e:	480d      	ldr	r0, [pc, #52]	; (8001344 <MX_USART3_UART_Init+0x90>)
 8001310:	f007 f915 	bl	800853e <HAL_UARTEx_SetTxFifoThreshold>
 8001314:	4603      	mov	r3, r0
 8001316:	2b00      	cmp	r3, #0
 8001318:	d001      	beq.n	800131e <MX_USART3_UART_Init+0x6a>
  {
    Error_Handler();
 800131a:	f7ff fdcd 	bl	8000eb8 <Error_Handler>
  }
  if (HAL_UARTEx_SetRxFifoThreshold(&huart3, UART_RXFIFO_THRESHOLD_1_8) != HAL_OK)
 800131e:	2100      	movs	r1, #0
 8001320:	4808      	ldr	r0, [pc, #32]	; (8001344 <MX_USART3_UART_Init+0x90>)
 8001322:	f007 f94a 	bl	80085ba <HAL_UARTEx_SetRxFifoThreshold>
 8001326:	4603      	mov	r3, r0
 8001328:	2b00      	cmp	r3, #0
 800132a:	d001      	beq.n	8001330 <MX_USART3_UART_Init+0x7c>
  {
    Error_Handler();
 800132c:	f7ff fdc4 	bl	8000eb8 <Error_Handler>
  }
  if (HAL_UARTEx_DisableFifoMode(&huart3) != HAL_OK)
 8001330:	4804      	ldr	r0, [pc, #16]	; (8001344 <MX_USART3_UART_Init+0x90>)
 8001332:	f007 f8cb 	bl	80084cc <HAL_UARTEx_DisableFifoMode>
 8001336:	4603      	mov	r3, r0
 8001338:	2b00      	cmp	r3, #0
 800133a:	d001      	beq.n	8001340 <MX_USART3_UART_Init+0x8c>
  {
    Error_Handler();
 800133c:	f7ff fdbc 	bl	8000eb8 <Error_Handler>
  }

}
 8001340:	bf00      	nop
 8001342:	bd80      	pop	{r7, pc}
 8001344:	20000190 	.word	0x20000190
 8001348:	40004800 	.word	0x40004800

0800134c <HAL_UART_MspInit>:

void HAL_UART_MspInit(UART_HandleTypeDef* uartHandle)
{
 800134c:	b580      	push	{r7, lr}
 800134e:	b08c      	sub	sp, #48	; 0x30
 8001350:	af00      	add	r7, sp, #0
 8001352:	6078      	str	r0, [r7, #4]

  GPIO_InitTypeDef GPIO_InitStruct = {0};
 8001354:	f107 031c 	add.w	r3, r7, #28
 8001358:	2200      	movs	r2, #0
 800135a:	601a      	str	r2, [r3, #0]
 800135c:	605a      	str	r2, [r3, #4]
 800135e:	609a      	str	r2, [r3, #8]
 8001360:	60da      	str	r2, [r3, #12]
 8001362:	611a      	str	r2, [r3, #16]
  if(uartHandle->Instance==USART2)
 8001364:	687b      	ldr	r3, [r7, #4]
 8001366:	681b      	ldr	r3, [r3, #0]
 8001368:	4a48      	ldr	r2, [pc, #288]	; (800148c <HAL_UART_MspInit+0x140>)
 800136a:	4293      	cmp	r3, r2
 800136c:	d155      	bne.n	800141a <HAL_UART_MspInit+0xce>
  {
  /* USER CODE BEGIN USART2_MspInit 0 */

  /* USER CODE END USART2_MspInit 0 */
    /* USART2 clock enable */
    __HAL_RCC_USART2_CLK_ENABLE();
 800136e:	4b48      	ldr	r3, [pc, #288]	; (8001490 <HAL_UART_MspInit+0x144>)
 8001370:	f8d3 30e8 	ldr.w	r3, [r3, #232]	; 0xe8
 8001374:	4a46      	ldr	r2, [pc, #280]	; (8001490 <HAL_UART_MspInit+0x144>)
 8001376:	f443 3300 	orr.w	r3, r3, #131072	; 0x20000
 800137a:	f8c2 30e8 	str.w	r3, [r2, #232]	; 0xe8
 800137e:	4b44      	ldr	r3, [pc, #272]	; (8001490 <HAL_UART_MspInit+0x144>)
 8001380:	f8d3 30e8 	ldr.w	r3, [r3, #232]	; 0xe8
 8001384:	f403 3300 	and.w	r3, r3, #131072	; 0x20000
 8001388:	61bb      	str	r3, [r7, #24]
 800138a:	69bb      	ldr	r3, [r7, #24]

    __HAL_RCC_GPIOA_CLK_ENABLE();
 800138c:	4b40      	ldr	r3, [pc, #256]	; (8001490 <HAL_UART_MspInit+0x144>)
 800138e:	f8d3 30e0 	ldr.w	r3, [r3, #224]	; 0xe0
 8001392:	4a3f      	ldr	r2, [pc, #252]	; (8001490 <HAL_UART_MspInit+0x144>)
 8001394:	f043 0301 	orr.w	r3, r3, #1
 8001398:	f8c2 30e0 	str.w	r3, [r2, #224]	; 0xe0
 800139c:	4b3c      	ldr	r3, [pc, #240]	; (8001490 <HAL_UART_MspInit+0x144>)
 800139e:	f8d3 30e0 	ldr.w	r3, [r3, #224]	; 0xe0
 80013a2:	f003 0301 	and.w	r3, r3, #1
 80013a6:	617b      	str	r3, [r7, #20]
 80013a8:	697b      	ldr	r3, [r7, #20]
    __HAL_RCC_GPIOD_CLK_ENABLE();
 80013aa:	4b39      	ldr	r3, [pc, #228]	; (8001490 <HAL_UART_MspInit+0x144>)
 80013ac:	f8d3 30e0 	ldr.w	r3, [r3, #224]	; 0xe0
 80013b0:	4a37      	ldr	r2, [pc, #220]	; (8001490 <HAL_UART_MspInit+0x144>)
 80013b2:	f043 0308 	orr.w	r3, r3, #8
 80013b6:	f8c2 30e0 	str.w	r3, [r2, #224]	; 0xe0
 80013ba:	4b35      	ldr	r3, [pc, #212]	; (8001490 <HAL_UART_MspInit+0x144>)
 80013bc:	f8d3 30e0 	ldr.w	r3, [r3, #224]	; 0xe0
 80013c0:	f003 0308 	and.w	r3, r3, #8
 80013c4:	613b      	str	r3, [r7, #16]
 80013c6:	693b      	ldr	r3, [r7, #16]
    /**USART2 GPIO Configuration
    PA3     ------> USART2_RX
    PD5     ------> USART2_TX
    */
    GPIO_InitStruct.Pin = WIFI_TX_Pin;
 80013c8:	2308      	movs	r3, #8
 80013ca:	61fb      	str	r3, [r7, #28]
    GPIO_InitStruct.Mode = GPIO_MODE_AF_PP;
 80013cc:	2302      	movs	r3, #2
 80013ce:	623b      	str	r3, [r7, #32]
    GPIO_InitStruct.Pull = GPIO_NOPULL;
 80013d0:	2300      	movs	r3, #0
 80013d2:	627b      	str	r3, [r7, #36]	; 0x24
    GPIO_InitStruct.Speed = GPIO_SPEED_FREQ_LOW;
 80013d4:	2300      	movs	r3, #0
 80013d6:	62bb      	str	r3, [r7, #40]	; 0x28
    GPIO_InitStruct.Alternate = GPIO_AF7_USART2;
 80013d8:	2307      	movs	r3, #7
 80013da:	62fb      	str	r3, [r7, #44]	; 0x2c
    HAL_GPIO_Init(WIFI_TX_GPIO_Port, &GPIO_InitStruct);
 80013dc:	f107 031c 	add.w	r3, r7, #28
 80013e0:	4619      	mov	r1, r3
 80013e2:	482c      	ldr	r0, [pc, #176]	; (8001494 <HAL_UART_MspInit+0x148>)
 80013e4:	f001 fd5c 	bl	8002ea0 <HAL_GPIO_Init>

    GPIO_InitStruct.Pin = WIFI_RX_Pin;
 80013e8:	2320      	movs	r3, #32
 80013ea:	61fb      	str	r3, [r7, #28]
    GPIO_InitStruct.Mode = GPIO_MODE_AF_PP;
 80013ec:	2302      	movs	r3, #2
 80013ee:	623b      	str	r3, [r7, #32]
    GPIO_InitStruct.Pull = GPIO_NOPULL;
 80013f0:	2300      	movs	r3, #0
 80013f2:	627b      	str	r3, [r7, #36]	; 0x24
    GPIO_InitStruct.Speed = GPIO_SPEED_FREQ_LOW;
 80013f4:	2300      	movs	r3, #0
 80013f6:	62bb      	str	r3, [r7, #40]	; 0x28
    GPIO_InitStruct.Alternate = GPIO_AF7_USART2;
 80013f8:	2307      	movs	r3, #7
 80013fa:	62fb      	str	r3, [r7, #44]	; 0x2c
    HAL_GPIO_Init(WIFI_RX_GPIO_Port, &GPIO_InitStruct);
 80013fc:	f107 031c 	add.w	r3, r7, #28
 8001400:	4619      	mov	r1, r3
 8001402:	4825      	ldr	r0, [pc, #148]	; (8001498 <HAL_UART_MspInit+0x14c>)
 8001404:	f001 fd4c 	bl	8002ea0 <HAL_GPIO_Init>

    /* USART2 interrupt Init */
    HAL_NVIC_SetPriority(USART2_IRQn, 0, 0);
 8001408:	2200      	movs	r2, #0
 800140a:	2100      	movs	r1, #0
 800140c:	2026      	movs	r0, #38	; 0x26
 800140e:	f001 face 	bl	80029ae <HAL_NVIC_SetPriority>
    HAL_NVIC_EnableIRQ(USART2_IRQn);
 8001412:	2026      	movs	r0, #38	; 0x26
 8001414:	f001 fae5 	bl	80029e2 <HAL_NVIC_EnableIRQ>

  /* USER CODE BEGIN USART3_MspInit 1 */

  /* USER CODE END USART3_MspInit 1 */
  }
}
 8001418:	e033      	b.n	8001482 <HAL_UART_MspInit+0x136>
  else if(uartHandle->Instance==USART3)
 800141a:	687b      	ldr	r3, [r7, #4]
 800141c:	681b      	ldr	r3, [r3, #0]
 800141e:	4a1f      	ldr	r2, [pc, #124]	; (800149c <HAL_UART_MspInit+0x150>)
 8001420:	4293      	cmp	r3, r2
 8001422:	d12e      	bne.n	8001482 <HAL_UART_MspInit+0x136>
    __HAL_RCC_USART3_CLK_ENABLE();
 8001424:	4b1a      	ldr	r3, [pc, #104]	; (8001490 <HAL_UART_MspInit+0x144>)
 8001426:	f8d3 30e8 	ldr.w	r3, [r3, #232]	; 0xe8
 800142a:	4a19      	ldr	r2, [pc, #100]	; (8001490 <HAL_UART_MspInit+0x144>)
 800142c:	f443 2380 	orr.w	r3, r3, #262144	; 0x40000
 8001430:	f8c2 30e8 	str.w	r3, [r2, #232]	; 0xe8
 8001434:	4b16      	ldr	r3, [pc, #88]	; (8001490 <HAL_UART_MspInit+0x144>)
 8001436:	f8d3 30e8 	ldr.w	r3, [r3, #232]	; 0xe8
 800143a:	f403 2380 	and.w	r3, r3, #262144	; 0x40000
 800143e:	60fb      	str	r3, [r7, #12]
 8001440:	68fb      	ldr	r3, [r7, #12]
    __HAL_RCC_GPIOD_CLK_ENABLE();
 8001442:	4b13      	ldr	r3, [pc, #76]	; (8001490 <HAL_UART_MspInit+0x144>)
 8001444:	f8d3 30e0 	ldr.w	r3, [r3, #224]	; 0xe0
 8001448:	4a11      	ldr	r2, [pc, #68]	; (8001490 <HAL_UART_MspInit+0x144>)
 800144a:	f043 0308 	orr.w	r3, r3, #8
 800144e:	f8c2 30e0 	str.w	r3, [r2, #224]	; 0xe0
 8001452:	4b0f      	ldr	r3, [pc, #60]	; (8001490 <HAL_UART_MspInit+0x144>)
 8001454:	f8d3 30e0 	ldr.w	r3, [r3, #224]	; 0xe0
 8001458:	f003 0308 	and.w	r3, r3, #8
 800145c:	60bb      	str	r3, [r7, #8]
 800145e:	68bb      	ldr	r3, [r7, #8]
    GPIO_InitStruct.Pin = STLINK_RX_Pin|STLINK_TX_Pin;
 8001460:	f44f 7340 	mov.w	r3, #768	; 0x300
 8001464:	61fb      	str	r3, [r7, #28]
    GPIO_InitStruct.Mode = GPIO_MODE_AF_PP;
 8001466:	2302      	movs	r3, #2
 8001468:	623b      	str	r3, [r7, #32]
    GPIO_InitStruct.Pull = GPIO_NOPULL;
 800146a:	2300      	movs	r3, #0
 800146c:	627b      	str	r3, [r7, #36]	; 0x24
    GPIO_InitStruct.Speed = GPIO_SPEED_FREQ_LOW;
 800146e:	2300      	movs	r3, #0
 8001470:	62bb      	str	r3, [r7, #40]	; 0x28
    GPIO_InitStruct.Alternate = GPIO_AF7_USART3;
 8001472:	2307      	movs	r3, #7
 8001474:	62fb      	str	r3, [r7, #44]	; 0x2c
    HAL_GPIO_Init(GPIOD, &GPIO_InitStruct);
 8001476:	f107 031c 	add.w	r3, r7, #28
 800147a:	4619      	mov	r1, r3
 800147c:	4806      	ldr	r0, [pc, #24]	; (8001498 <HAL_UART_MspInit+0x14c>)
 800147e:	f001 fd0f 	bl	8002ea0 <HAL_GPIO_Init>
}
 8001482:	bf00      	nop
 8001484:	3730      	adds	r7, #48	; 0x30
 8001486:	46bd      	mov	sp, r7
 8001488:	bd80      	pop	{r7, pc}
 800148a:	bf00      	nop
 800148c:	40004400 	.word	0x40004400
 8001490:	58024400 	.word	0x58024400
 8001494:	58020000 	.word	0x58020000
 8001498:	58020c00 	.word	0x58020c00
 800149c:	40004800 	.word	0x40004800

080014a0 <MX_USB_OTG_FS_PCD_Init>:
PCD_HandleTypeDef hpcd_USB_OTG_FS;

/* USB_OTG_FS init function */

void MX_USB_OTG_FS_PCD_Init(void)
{
 80014a0:	b580      	push	{r7, lr}
 80014a2:	af00      	add	r7, sp, #0

  hpcd_USB_OTG_FS.Instance = USB_OTG_FS;
 80014a4:	4b15      	ldr	r3, [pc, #84]	; (80014fc <MX_USB_OTG_FS_PCD_Init+0x5c>)
 80014a6:	4a16      	ldr	r2, [pc, #88]	; (8001500 <MX_USB_OTG_FS_PCD_Init+0x60>)
 80014a8:	601a      	str	r2, [r3, #0]
  hpcd_USB_OTG_FS.Init.dev_endpoints = 9;
 80014aa:	4b14      	ldr	r3, [pc, #80]	; (80014fc <MX_USB_OTG_FS_PCD_Init+0x5c>)
 80014ac:	2209      	movs	r2, #9
 80014ae:	605a      	str	r2, [r3, #4]
  hpcd_USB_OTG_FS.Init.speed = PCD_SPEED_FULL;
 80014b0:	4b12      	ldr	r3, [pc, #72]	; (80014fc <MX_USB_OTG_FS_PCD_Init+0x5c>)
 80014b2:	2202      	movs	r2, #2
 80014b4:	60da      	str	r2, [r3, #12]
  hpcd_USB_OTG_FS.Init.dma_enable = DISABLE;
 80014b6:	4b11      	ldr	r3, [pc, #68]	; (80014fc <MX_USB_OTG_FS_PCD_Init+0x5c>)
 80014b8:	2200      	movs	r2, #0
 80014ba:	611a      	str	r2, [r3, #16]
  hpcd_USB_OTG_FS.Init.phy_itface = PCD_PHY_EMBEDDED;
 80014bc:	4b0f      	ldr	r3, [pc, #60]	; (80014fc <MX_USB_OTG_FS_PCD_Init+0x5c>)
 80014be:	2202      	movs	r2, #2
 80014c0:	619a      	str	r2, [r3, #24]
  hpcd_USB_OTG_FS.Init.Sof_enable = DISABLE;
 80014c2:	4b0e      	ldr	r3, [pc, #56]	; (80014fc <MX_USB_OTG_FS_PCD_Init+0x5c>)
 80014c4:	2200      	movs	r2, #0
 80014c6:	61da      	str	r2, [r3, #28]
  hpcd_USB_OTG_FS.Init.low_power_enable = DISABLE;
 80014c8:	4b0c      	ldr	r3, [pc, #48]	; (80014fc <MX_USB_OTG_FS_PCD_Init+0x5c>)
 80014ca:	2200      	movs	r2, #0
 80014cc:	621a      	str	r2, [r3, #32]
  hpcd_USB_OTG_FS.Init.lpm_enable = DISABLE;
 80014ce:	4b0b      	ldr	r3, [pc, #44]	; (80014fc <MX_USB_OTG_FS_PCD_Init+0x5c>)
 80014d0:	2200      	movs	r2, #0
 80014d2:	625a      	str	r2, [r3, #36]	; 0x24
  hpcd_USB_OTG_FS.Init.battery_charging_enable = ENABLE;
 80014d4:	4b09      	ldr	r3, [pc, #36]	; (80014fc <MX_USB_OTG_FS_PCD_Init+0x5c>)
 80014d6:	2201      	movs	r2, #1
 80014d8:	629a      	str	r2, [r3, #40]	; 0x28
  hpcd_USB_OTG_FS.Init.vbus_sensing_enable = ENABLE;
 80014da:	4b08      	ldr	r3, [pc, #32]	; (80014fc <MX_USB_OTG_FS_PCD_Init+0x5c>)
 80014dc:	2201      	movs	r2, #1
 80014de:	62da      	str	r2, [r3, #44]	; 0x2c
  hpcd_USB_OTG_FS.Init.use_dedicated_ep1 = DISABLE;
 80014e0:	4b06      	ldr	r3, [pc, #24]	; (80014fc <MX_USB_OTG_FS_PCD_Init+0x5c>)
 80014e2:	2200      	movs	r2, #0
 80014e4:	631a      	str	r2, [r3, #48]	; 0x30
  if (HAL_PCD_Init(&hpcd_USB_OTG_FS) != HAL_OK)
 80014e6:	4805      	ldr	r0, [pc, #20]	; (80014fc <MX_USB_OTG_FS_PCD_Init+0x5c>)
 80014e8:	f001 fed2 	bl	8003290 <HAL_PCD_Init>
 80014ec:	4603      	mov	r3, r0
 80014ee:	2b00      	cmp	r3, #0
 80014f0:	d001      	beq.n	80014f6 <MX_USB_OTG_FS_PCD_Init+0x56>
  {
    Error_Handler();
 80014f2:	f7ff fce1 	bl	8000eb8 <Error_Handler>
  }

}
 80014f6:	bf00      	nop
 80014f8:	bd80      	pop	{r7, pc}
 80014fa:	bf00      	nop
 80014fc:	200002a8 	.word	0x200002a8
 8001500:	40080000 	.word	0x40080000

08001504 <HAL_PCD_MspInit>:

void HAL_PCD_MspInit(PCD_HandleTypeDef* pcdHandle)
{
 8001504:	b580      	push	{r7, lr}
 8001506:	b08a      	sub	sp, #40	; 0x28
 8001508:	af00      	add	r7, sp, #0
 800150a:	6078      	str	r0, [r7, #4]

  GPIO_InitTypeDef GPIO_InitStruct = {0};
 800150c:	f107 0314 	add.w	r3, r7, #20
 8001510:	2200      	movs	r2, #0
 8001512:	601a      	str	r2, [r3, #0]
 8001514:	605a      	str	r2, [r3, #4]
 8001516:	609a      	str	r2, [r3, #8]
 8001518:	60da      	str	r2, [r3, #12]
 800151a:	611a      	str	r2, [r3, #16]
  if(pcdHandle->Instance==USB_OTG_FS)
 800151c:	687b      	ldr	r3, [r7, #4]
 800151e:	681b      	ldr	r3, [r3, #0]
 8001520:	4a21      	ldr	r2, [pc, #132]	; (80015a8 <HAL_PCD_MspInit+0xa4>)
 8001522:	4293      	cmp	r3, r2
 8001524:	d13b      	bne.n	800159e <HAL_PCD_MspInit+0x9a>
  {
  /* USER CODE BEGIN USB_OTG_FS_MspInit 0 */

  /* USER CODE END USB_OTG_FS_MspInit 0 */

    __HAL_RCC_GPIOA_CLK_ENABLE();
 8001526:	4b21      	ldr	r3, [pc, #132]	; (80015ac <HAL_PCD_MspInit+0xa8>)
 8001528:	f8d3 30e0 	ldr.w	r3, [r3, #224]	; 0xe0
 800152c:	4a1f      	ldr	r2, [pc, #124]	; (80015ac <HAL_PCD_MspInit+0xa8>)
 800152e:	f043 0301 	orr.w	r3, r3, #1
 8001532:	f8c2 30e0 	str.w	r3, [r2, #224]	; 0xe0
 8001536:	4b1d      	ldr	r3, [pc, #116]	; (80015ac <HAL_PCD_MspInit+0xa8>)
 8001538:	f8d3 30e0 	ldr.w	r3, [r3, #224]	; 0xe0
 800153c:	f003 0301 	and.w	r3, r3, #1
 8001540:	613b      	str	r3, [r7, #16]
 8001542:	693b      	ldr	r3, [r7, #16]
    PA8     ------> USB_OTG_FS_SOF
    PA9     ------> USB_OTG_FS_VBUS
    PA11     ------> USB_OTG_FS_DM
    PA12     ------> USB_OTG_FS_DP
    */
    GPIO_InitStruct.Pin = GPIO_PIN_8|GPIO_PIN_11|GPIO_PIN_12;
 8001544:	f44f 53c8 	mov.w	r3, #6400	; 0x1900
 8001548:	617b      	str	r3, [r7, #20]
    GPIO_InitStruct.Mode = GPIO_MODE_AF_PP;
 800154a:	2302      	movs	r3, #2
 800154c:	61bb      	str	r3, [r7, #24]
    GPIO_InitStruct.Pull = GPIO_NOPULL;
 800154e:	2300      	movs	r3, #0
 8001550:	61fb      	str	r3, [r7, #28]
    GPIO_InitStruct.Speed = GPIO_SPEED_FREQ_LOW;
 8001552:	2300      	movs	r3, #0
 8001554:	623b      	str	r3, [r7, #32]
    GPIO_InitStruct.Alternate = GPIO_AF10_OTG1_FS;
 8001556:	230a      	movs	r3, #10
 8001558:	627b      	str	r3, [r7, #36]	; 0x24
    HAL_GPIO_Init(GPIOA, &GPIO_InitStruct);
 800155a:	f107 0314 	add.w	r3, r7, #20
 800155e:	4619      	mov	r1, r3
 8001560:	4813      	ldr	r0, [pc, #76]	; (80015b0 <HAL_PCD_MspInit+0xac>)
 8001562:	f001 fc9d 	bl	8002ea0 <HAL_GPIO_Init>

    GPIO_InitStruct.Pin = GPIO_PIN_9;
 8001566:	f44f 7300 	mov.w	r3, #512	; 0x200
 800156a:	617b      	str	r3, [r7, #20]
    GPIO_InitStruct.Mode = GPIO_MODE_INPUT;
 800156c:	2300      	movs	r3, #0
 800156e:	61bb      	str	r3, [r7, #24]
    GPIO_InitStruct.Pull = GPIO_NOPULL;
 8001570:	2300      	movs	r3, #0
 8001572:	61fb      	str	r3, [r7, #28]
    HAL_GPIO_Init(GPIOA, &GPIO_InitStruct);
 8001574:	f107 0314 	add.w	r3, r7, #20
 8001578:	4619      	mov	r1, r3
 800157a:	480d      	ldr	r0, [pc, #52]	; (80015b0 <HAL_PCD_MspInit+0xac>)
 800157c:	f001 fc90 	bl	8002ea0 <HAL_GPIO_Init>

    /* USB_OTG_FS clock enable */
    __HAL_RCC_USB_OTG_FS_CLK_ENABLE();
 8001580:	4b0a      	ldr	r3, [pc, #40]	; (80015ac <HAL_PCD_MspInit+0xa8>)
 8001582:	f8d3 30d8 	ldr.w	r3, [r3, #216]	; 0xd8
 8001586:	4a09      	ldr	r2, [pc, #36]	; (80015ac <HAL_PCD_MspInit+0xa8>)
 8001588:	f043 6300 	orr.w	r3, r3, #134217728	; 0x8000000
 800158c:	f8c2 30d8 	str.w	r3, [r2, #216]	; 0xd8
 8001590:	4b06      	ldr	r3, [pc, #24]	; (80015ac <HAL_PCD_MspInit+0xa8>)
 8001592:	f8d3 30d8 	ldr.w	r3, [r3, #216]	; 0xd8
 8001596:	f003 6300 	and.w	r3, r3, #134217728	; 0x8000000
 800159a:	60fb      	str	r3, [r7, #12]
 800159c:	68fb      	ldr	r3, [r7, #12]
  /* USER CODE BEGIN USB_OTG_FS_MspInit 1 */

  /* USER CODE END USB_OTG_FS_MspInit 1 */
  }
}
 800159e:	bf00      	nop
 80015a0:	3728      	adds	r7, #40	; 0x28
 80015a2:	46bd      	mov	sp, r7
 80015a4:	bd80      	pop	{r7, pc}
 80015a6:	bf00      	nop
 80015a8:	40080000 	.word	0x40080000
 80015ac:	58024400 	.word	0x58024400
 80015b0:	58020000 	.word	0x58020000

080015b4 <Reset_Handler>:

    .section  .text.Reset_Handler
  .weak  Reset_Handler
  .type  Reset_Handler, %function
Reset_Handler:  
  ldr   sp, =_estack      /* set stack pointer */
 80015b4:	f8df d034 	ldr.w	sp, [pc, #52]	; 80015ec <LoopFillZerobss+0x10>

/* Call the clock system intitialization function.*/
  bl  SystemInit
 80015b8:	f7ff f80e 	bl	80005d8 <SystemInit>

/* Copy the data segment initializers from flash to SRAM */  
  movs  r1, #0
 80015bc:	2100      	movs	r1, #0
  b  LoopCopyDataInit
 80015be:	e003      	b.n	80015c8 <LoopCopyDataInit>

080015c0 <CopyDataInit>:

CopyDataInit:
  ldr  r3, =_sidata
 80015c0:	4b0b      	ldr	r3, [pc, #44]	; (80015f0 <LoopFillZerobss+0x14>)
  ldr  r3, [r3, r1]
 80015c2:	585b      	ldr	r3, [r3, r1]
  str  r3, [r0, r1]
 80015c4:	5043      	str	r3, [r0, r1]
  adds  r1, r1, #4
 80015c6:	3104      	adds	r1, #4

080015c8 <LoopCopyDataInit>:
    
LoopCopyDataInit:
  ldr  r0, =_sdata
 80015c8:	480a      	ldr	r0, [pc, #40]	; (80015f4 <LoopFillZerobss+0x18>)
  ldr  r3, =_edata
 80015ca:	4b0b      	ldr	r3, [pc, #44]	; (80015f8 <LoopFillZerobss+0x1c>)
  adds  r2, r0, r1
 80015cc:	1842      	adds	r2, r0, r1
  cmp  r2, r3
 80015ce:	429a      	cmp	r2, r3
  bcc  CopyDataInit
 80015d0:	d3f6      	bcc.n	80015c0 <CopyDataInit>
  ldr  r2, =_sbss
 80015d2:	4a0a      	ldr	r2, [pc, #40]	; (80015fc <LoopFillZerobss+0x20>)
  b  LoopFillZerobss
 80015d4:	e002      	b.n	80015dc <LoopFillZerobss>

080015d6 <FillZerobss>:
/* Zero fill the bss segment. */  
FillZerobss:
  movs  r3, #0
 80015d6:	2300      	movs	r3, #0
  str  r3, [r2], #4
 80015d8:	f842 3b04 	str.w	r3, [r2], #4

080015dc <LoopFillZerobss>:
    
LoopFillZerobss:
  ldr  r3, = _ebss
 80015dc:	4b08      	ldr	r3, [pc, #32]	; (8001600 <LoopFillZerobss+0x24>)
  cmp  r2, r3
 80015de:	429a      	cmp	r2, r3
  bcc  FillZerobss
 80015e0:	d3f9      	bcc.n	80015d6 <FillZerobss>

/* Call static constructors */
    bl __libc_init_array
 80015e2:	f007 fb3b 	bl	8008c5c <__libc_init_array>
/* Call the application's entry point.*/
  bl  main
 80015e6:	f7ff fb21 	bl	8000c2c <main>
  bx  lr    
 80015ea:	4770      	bx	lr
  ldr   sp, =_estack      /* set stack pointer */
 80015ec:	20020000 	.word	0x20020000
  ldr  r3, =_sidata
 80015f0:	08008d14 	.word	0x08008d14
  ldr  r0, =_sdata
 80015f4:	20000000 	.word	0x20000000
  ldr  r3, =_edata
 80015f8:	20000010 	.word	0x20000010
  ldr  r2, =_sbss
 80015fc:	20000010 	.word	0x20000010
  ldr  r3, = _ebss
 8001600:	200006b4 	.word	0x200006b4

08001604 <ADC3_IRQHandler>:
 * @retval None       
*/
    .section  .text.Default_Handler,"ax",%progbits
Default_Handler:
Infinite_Loop:
  b  Infinite_Loop
 8001604:	e7fe      	b.n	8001604 <ADC3_IRQHandler>
	...

08001608 <HAL_Init>:
  *         need to ensure that the SysTick time base is always set to 1 millisecond
  *         to have correct HAL operation.
  * @retval HAL status
  */
HAL_StatusTypeDef HAL_Init(void)
{
 8001608:	b580      	push	{r7, lr}
 800160a:	b082      	sub	sp, #8
 800160c:	af00      	add	r7, sp, #0
   __HAL_ART_CONFIG_BASE_ADDRESS(0x08100000UL);  /* Configure the Cortex-M4 ART Base address to the Flash Bank 2 : */
   __HAL_ART_ENABLE();                           /* Enable the Cortex-M4 ART */
#endif /* DUAL_CORE &&  CORE_CM4 */

  /* Set Interrupt Group Priority */
  HAL_NVIC_SetPriorityGrouping(NVIC_PRIORITYGROUP_4);
 800160e:	2003      	movs	r0, #3
 8001610:	f001 f9c2 	bl	8002998 <HAL_NVIC_SetPriorityGrouping>

  /* Update the SystemCoreClock global variable */
#if defined(RCC_D1CFGR_D1CPRE)
  common_system_clock = HAL_RCC_GetSysClockFreq() >> ((D1CorePrescTable[(RCC->D1CFGR & RCC_D1CFGR_D1CPRE)>> RCC_D1CFGR_D1CPRE_Pos]) & 0x1FU);
 8001614:	f002 fdb4 	bl	8004180 <HAL_RCC_GetSysClockFreq>
 8001618:	4601      	mov	r1, r0
 800161a:	4b15      	ldr	r3, [pc, #84]	; (8001670 <HAL_Init+0x68>)
 800161c:	699b      	ldr	r3, [r3, #24]
 800161e:	0a1b      	lsrs	r3, r3, #8
 8001620:	f003 030f 	and.w	r3, r3, #15
 8001624:	4a13      	ldr	r2, [pc, #76]	; (8001674 <HAL_Init+0x6c>)
 8001626:	5cd3      	ldrb	r3, [r2, r3]
 8001628:	f003 031f 	and.w	r3, r3, #31
 800162c:	fa21 f303 	lsr.w	r3, r1, r3
 8001630:	607b      	str	r3, [r7, #4]
  common_system_clock = HAL_RCC_GetSysClockFreq() >> ((D1CorePrescTable[(RCC->CDCFGR1 & RCC_CDCFGR1_CDCPRE)>> RCC_CDCFGR1_CDCPRE_Pos]) & 0x1FU);
#endif

  /* Update the SystemD2Clock global variable */
#if defined(RCC_D1CFGR_HPRE)
  SystemD2Clock = (common_system_clock >> ((D1CorePrescTable[(RCC->D1CFGR & RCC_D1CFGR_HPRE)>> RCC_D1CFGR_HPRE_Pos]) & 0x1FU));
 8001632:	4b0f      	ldr	r3, [pc, #60]	; (8001670 <HAL_Init+0x68>)
 8001634:	699b      	ldr	r3, [r3, #24]
 8001636:	f003 030f 	and.w	r3, r3, #15
 800163a:	4a0e      	ldr	r2, [pc, #56]	; (8001674 <HAL_Init+0x6c>)
 800163c:	5cd3      	ldrb	r3, [r2, r3]
 800163e:	f003 031f 	and.w	r3, r3, #31
 8001642:	687a      	ldr	r2, [r7, #4]
 8001644:	fa22 f303 	lsr.w	r3, r2, r3
 8001648:	4a0b      	ldr	r2, [pc, #44]	; (8001678 <HAL_Init+0x70>)
 800164a:	6013      	str	r3, [r2, #0]
#endif

#if defined(DUAL_CORE) && defined(CORE_CM4)
  SystemCoreClock = SystemD2Clock;
#else
  SystemCoreClock = common_system_clock;
 800164c:	4a0b      	ldr	r2, [pc, #44]	; (800167c <HAL_Init+0x74>)
 800164e:	687b      	ldr	r3, [r7, #4]
 8001650:	6013      	str	r3, [r2, #0]
#endif /* DUAL_CORE && CORE_CM4 */

  /* Use systick as time base source and configure 1ms tick (default clock after Reset is HSI) */
  if(HAL_InitTick(TICK_INT_PRIORITY) != HAL_OK)
 8001652:	2000      	movs	r0, #0
 8001654:	f000 f814 	bl	8001680 <HAL_InitTick>
 8001658:	4603      	mov	r3, r0
 800165a:	2b00      	cmp	r3, #0
 800165c:	d001      	beq.n	8001662 <HAL_Init+0x5a>
  {
    return HAL_ERROR;
 800165e:	2301      	movs	r3, #1
 8001660:	e002      	b.n	8001668 <HAL_Init+0x60>
  }

  /* Init the low level hardware */
  HAL_MspInit();
 8001662:	f7ff fc31 	bl	8000ec8 <HAL_MspInit>

  /* Return function status */
  return HAL_OK;
 8001666:	2300      	movs	r3, #0
}
 8001668:	4618      	mov	r0, r3
 800166a:	3708      	adds	r7, #8
 800166c:	46bd      	mov	sp, r7
 800166e:	bd80      	pop	{r7, pc}
 8001670:	58024400 	.word	0x58024400
 8001674:	08008cdc 	.word	0x08008cdc
 8001678:	20000004 	.word	0x20000004
 800167c:	20000000 	.word	0x20000000

08001680 <HAL_InitTick>:
  *       implementation  in user file.
  * @param TickPriority: Tick interrupt priority.
  * @retval HAL status
  */
__weak HAL_StatusTypeDef HAL_InitTick(uint32_t TickPriority)
{
 8001680:	b580      	push	{r7, lr}
 8001682:	b082      	sub	sp, #8
 8001684:	af00      	add	r7, sp, #0
 8001686:	6078      	str	r0, [r7, #4]
  /* Check uwTickFreq for MisraC 2012 (even if uwTickFreq is a enum type that don't take the value zero)*/
  if((uint32_t)uwTickFreq == 0UL)
 8001688:	4b15      	ldr	r3, [pc, #84]	; (80016e0 <HAL_InitTick+0x60>)
 800168a:	781b      	ldrb	r3, [r3, #0]
 800168c:	2b00      	cmp	r3, #0
 800168e:	d101      	bne.n	8001694 <HAL_InitTick+0x14>
  {
    return HAL_ERROR;
 8001690:	2301      	movs	r3, #1
 8001692:	e021      	b.n	80016d8 <HAL_InitTick+0x58>
  }

    /* Configure the SysTick to have interrupt in 1ms time basis*/
    if (HAL_SYSTICK_Config(SystemCoreClock / (1000UL / (uint32_t)uwTickFreq)) > 0U)
 8001694:	4b13      	ldr	r3, [pc, #76]	; (80016e4 <HAL_InitTick+0x64>)
 8001696:	681a      	ldr	r2, [r3, #0]
 8001698:	4b11      	ldr	r3, [pc, #68]	; (80016e0 <HAL_InitTick+0x60>)
 800169a:	781b      	ldrb	r3, [r3, #0]
 800169c:	4619      	mov	r1, r3
 800169e:	f44f 737a 	mov.w	r3, #1000	; 0x3e8
 80016a2:	fbb3 f3f1 	udiv	r3, r3, r1
 80016a6:	fbb2 f3f3 	udiv	r3, r2, r3
 80016aa:	4618      	mov	r0, r3
 80016ac:	f001 f9a7 	bl	80029fe <HAL_SYSTICK_Config>
 80016b0:	4603      	mov	r3, r0
 80016b2:	2b00      	cmp	r3, #0
 80016b4:	d001      	beq.n	80016ba <HAL_InitTick+0x3a>
    {
      return HAL_ERROR;
 80016b6:	2301      	movs	r3, #1
 80016b8:	e00e      	b.n	80016d8 <HAL_InitTick+0x58>
    }

  /* Configure the SysTick IRQ priority */
  if (TickPriority < (1UL << __NVIC_PRIO_BITS))
 80016ba:	687b      	ldr	r3, [r7, #4]
 80016bc:	2b0f      	cmp	r3, #15
 80016be:	d80a      	bhi.n	80016d6 <HAL_InitTick+0x56>
  {
    HAL_NVIC_SetPriority(SysTick_IRQn, TickPriority, 0U);
 80016c0:	2200      	movs	r2, #0
 80016c2:	6879      	ldr	r1, [r7, #4]
 80016c4:	f04f 30ff 	mov.w	r0, #4294967295	; 0xffffffff
 80016c8:	f001 f971 	bl	80029ae <HAL_NVIC_SetPriority>
    uwTickPrio = TickPriority;
 80016cc:	4a06      	ldr	r2, [pc, #24]	; (80016e8 <HAL_InitTick+0x68>)
 80016ce:	687b      	ldr	r3, [r7, #4]
 80016d0:	6013      	str	r3, [r2, #0]
  {
    return HAL_ERROR;
  }

  /* Return function status */
  return HAL_OK;
 80016d2:	2300      	movs	r3, #0
 80016d4:	e000      	b.n	80016d8 <HAL_InitTick+0x58>
    return HAL_ERROR;
 80016d6:	2301      	movs	r3, #1
}
 80016d8:	4618      	mov	r0, r3
 80016da:	3708      	adds	r7, #8
 80016dc:	46bd      	mov	sp, r7
 80016de:	bd80      	pop	{r7, pc}
 80016e0:	2000000c 	.word	0x2000000c
 80016e4:	20000000 	.word	0x20000000
 80016e8:	20000008 	.word	0x20000008

080016ec <HAL_IncTick>:
 * @note This function is declared as __weak to be overwritten in case of other
  *      implementations in user file.
  * @retval None
  */
__weak void HAL_IncTick(void)
{
 80016ec:	b480      	push	{r7}
 80016ee:	af00      	add	r7, sp, #0
  uwTick += (uint32_t)uwTickFreq;
 80016f0:	4b06      	ldr	r3, [pc, #24]	; (800170c <HAL_IncTick+0x20>)
 80016f2:	781b      	ldrb	r3, [r3, #0]
 80016f4:	461a      	mov	r2, r3
 80016f6:	4b06      	ldr	r3, [pc, #24]	; (8001710 <HAL_IncTick+0x24>)
 80016f8:	681b      	ldr	r3, [r3, #0]
 80016fa:	4413      	add	r3, r2
 80016fc:	4a04      	ldr	r2, [pc, #16]	; (8001710 <HAL_IncTick+0x24>)
 80016fe:	6013      	str	r3, [r2, #0]
}
 8001700:	bf00      	nop
 8001702:	46bd      	mov	sp, r7
 8001704:	f85d 7b04 	ldr.w	r7, [sp], #4
 8001708:	4770      	bx	lr
 800170a:	bf00      	nop
 800170c:	2000000c 	.word	0x2000000c
 8001710:	200006b0 	.word	0x200006b0

08001714 <HAL_GetTick>:
  * @note This function is declared as __weak to be overwritten in case of other
  *       implementations in user file.
  * @retval tick value
  */
__weak uint32_t HAL_GetTick(void)
{
 8001714:	b480      	push	{r7}
 8001716:	af00      	add	r7, sp, #0
  return uwTick;
 8001718:	4b03      	ldr	r3, [pc, #12]	; (8001728 <HAL_GetTick+0x14>)
 800171a:	681b      	ldr	r3, [r3, #0]
}
 800171c:	4618      	mov	r0, r3
 800171e:	46bd      	mov	sp, r7
 8001720:	f85d 7b04 	ldr.w	r7, [sp], #4
 8001724:	4770      	bx	lr
 8001726:	bf00      	nop
 8001728:	200006b0 	.word	0x200006b0

0800172c <HAL_Delay>:
  *       implementations in user file.
  * @param Delay  specifies the delay time length, in milliseconds.
  * @retval None
  */
__weak void HAL_Delay(uint32_t Delay)
{
 800172c:	b580      	push	{r7, lr}
 800172e:	b084      	sub	sp, #16
 8001730:	af00      	add	r7, sp, #0
 8001732:	6078      	str	r0, [r7, #4]
  uint32_t tickstart = HAL_GetTick();
 8001734:	f7ff ffee 	bl	8001714 <HAL_GetTick>
 8001738:	60b8      	str	r0, [r7, #8]
  uint32_t wait = Delay;
 800173a:	687b      	ldr	r3, [r7, #4]
 800173c:	60fb      	str	r3, [r7, #12]

  /* Add a freq to guarantee minimum wait */
  if (wait < HAL_MAX_DELAY)
 800173e:	68fb      	ldr	r3, [r7, #12]
 8001740:	f1b3 3fff 	cmp.w	r3, #4294967295	; 0xffffffff
 8001744:	d005      	beq.n	8001752 <HAL_Delay+0x26>
  {
    wait += (uint32_t)(uwTickFreq);
 8001746:	4b09      	ldr	r3, [pc, #36]	; (800176c <HAL_Delay+0x40>)
 8001748:	781b      	ldrb	r3, [r3, #0]
 800174a:	461a      	mov	r2, r3
 800174c:	68fb      	ldr	r3, [r7, #12]
 800174e:	4413      	add	r3, r2
 8001750:	60fb      	str	r3, [r7, #12]
  }

  while ((HAL_GetTick() - tickstart) < wait)
 8001752:	bf00      	nop
 8001754:	f7ff ffde 	bl	8001714 <HAL_GetTick>
 8001758:	4602      	mov	r2, r0
 800175a:	68bb      	ldr	r3, [r7, #8]
 800175c:	1ad3      	subs	r3, r2, r3
 800175e:	68fa      	ldr	r2, [r7, #12]
 8001760:	429a      	cmp	r2, r3
 8001762:	d8f7      	bhi.n	8001754 <HAL_Delay+0x28>
  {
  }
}
 8001764:	bf00      	nop
 8001766:	3710      	adds	r7, #16
 8001768:	46bd      	mov	sp, r7
 800176a:	bd80      	pop	{r7, pc}
 800176c:	2000000c 	.word	0x2000000c

08001770 <HAL_GetREVID>:
/**
  * @brief  Returns the device revision identifier.
  * @retval Device revision identifier
  */
uint32_t HAL_GetREVID(void)
{
 8001770:	b480      	push	{r7}
 8001772:	af00      	add	r7, sp, #0
   return((DBGMCU->IDCODE) >> 16);
 8001774:	4b03      	ldr	r3, [pc, #12]	; (8001784 <HAL_GetREVID+0x14>)
 8001776:	681b      	ldr	r3, [r3, #0]
 8001778:	0c1b      	lsrs	r3, r3, #16
}
 800177a:	4618      	mov	r0, r3
 800177c:	46bd      	mov	sp, r7
 800177e:	f85d 7b04 	ldr.w	r7, [sp], #4
 8001782:	4770      	bx	lr
 8001784:	5c001000 	.word	0x5c001000

08001788 <LL_ADC_SetCommonClock>:
  *         @arg @ref LL_ADC_CLOCK_ASYNC_DIV128
  *         @arg @ref LL_ADC_CLOCK_ASYNC_DIV256
  * @retval None
  */
__STATIC_INLINE void LL_ADC_SetCommonClock(ADC_Common_TypeDef *ADCxy_COMMON, uint32_t CommonClock)
{
 8001788:	b480      	push	{r7}
 800178a:	b083      	sub	sp, #12
 800178c:	af00      	add	r7, sp, #0
 800178e:	6078      	str	r0, [r7, #4]
 8001790:	6039      	str	r1, [r7, #0]
  MODIFY_REG(ADCxy_COMMON->CCR, ADC_CCR_CKMODE | ADC_CCR_PRESC, CommonClock);
 8001792:	687b      	ldr	r3, [r7, #4]
 8001794:	689b      	ldr	r3, [r3, #8]
 8001796:	f423 127c 	bic.w	r2, r3, #4128768	; 0x3f0000
 800179a:	683b      	ldr	r3, [r7, #0]
 800179c:	431a      	orrs	r2, r3
 800179e:	687b      	ldr	r3, [r7, #4]
 80017a0:	609a      	str	r2, [r3, #8]
}
 80017a2:	bf00      	nop
 80017a4:	370c      	adds	r7, #12
 80017a6:	46bd      	mov	sp, r7
 80017a8:	f85d 7b04 	ldr.w	r7, [sp], #4
 80017ac:	4770      	bx	lr

080017ae <LL_ADC_SetCommonPathInternalCh>:
  *         @arg @ref LL_ADC_PATH_INTERNAL_TEMPSENSOR
  *         @arg @ref LL_ADC_PATH_INTERNAL_VBAT
  * @retval None
  */
__STATIC_INLINE void LL_ADC_SetCommonPathInternalCh(ADC_Common_TypeDef *ADCxy_COMMON, uint32_t PathInternal)
{
 80017ae:	b480      	push	{r7}
 80017b0:	b083      	sub	sp, #12
 80017b2:	af00      	add	r7, sp, #0
 80017b4:	6078      	str	r0, [r7, #4]
 80017b6:	6039      	str	r1, [r7, #0]
  MODIFY_REG(ADCxy_COMMON->CCR, ADC_CCR_VREFEN | ADC_CCR_TSEN | ADC_CCR_VBATEN, PathInternal);
 80017b8:	687b      	ldr	r3, [r7, #4]
 80017ba:	689b      	ldr	r3, [r3, #8]
 80017bc:	f023 72e0 	bic.w	r2, r3, #29360128	; 0x1c00000
 80017c0:	683b      	ldr	r3, [r7, #0]
 80017c2:	431a      	orrs	r2, r3
 80017c4:	687b      	ldr	r3, [r7, #4]
 80017c6:	609a      	str	r2, [r3, #8]
}
 80017c8:	bf00      	nop
 80017ca:	370c      	adds	r7, #12
 80017cc:	46bd      	mov	sp, r7
 80017ce:	f85d 7b04 	ldr.w	r7, [sp], #4
 80017d2:	4770      	bx	lr

080017d4 <LL_ADC_GetCommonPathInternalCh>:
  *         @arg @ref LL_ADC_PATH_INTERNAL_VREFINT
  *         @arg @ref LL_ADC_PATH_INTERNAL_TEMPSENSOR
  *         @arg @ref LL_ADC_PATH_INTERNAL_VBAT
  */
__STATIC_INLINE uint32_t LL_ADC_GetCommonPathInternalCh(ADC_Common_TypeDef *ADCxy_COMMON)
{
 80017d4:	b480      	push	{r7}
 80017d6:	b083      	sub	sp, #12
 80017d8:	af00      	add	r7, sp, #0
 80017da:	6078      	str	r0, [r7, #4]
  return (uint32_t)(READ_BIT(ADCxy_COMMON->CCR, ADC_CCR_VREFEN | ADC_CCR_TSEN | ADC_CCR_VBATEN));
 80017dc:	687b      	ldr	r3, [r7, #4]
 80017de:	689b      	ldr	r3, [r3, #8]
 80017e0:	f003 73e0 	and.w	r3, r3, #29360128	; 0x1c00000
}
 80017e4:	4618      	mov	r0, r3
 80017e6:	370c      	adds	r7, #12
 80017e8:	46bd      	mov	sp, r7
 80017ea:	f85d 7b04 	ldr.w	r7, [sp], #4
 80017ee:	4770      	bx	lr

080017f0 <LL_ADC_SetOffset>:
  *             Other channels are slow channels (conversion rate: refer to reference manual).
  * @param  OffsetLevel Value between Min_Data=0x000 and Max_Data=0x1FFFFFF
  * @retval None
  */
__STATIC_INLINE void LL_ADC_SetOffset(ADC_TypeDef *ADCx, uint32_t Offsety, uint32_t Channel, uint32_t OffsetLevel)
{
 80017f0:	b480      	push	{r7}
 80017f2:	b087      	sub	sp, #28
 80017f4:	af00      	add	r7, sp, #0
 80017f6:	60f8      	str	r0, [r7, #12]
 80017f8:	60b9      	str	r1, [r7, #8]
 80017fa:	607a      	str	r2, [r7, #4]
 80017fc:	603b      	str	r3, [r7, #0]
  __IO uint32_t *preg = __ADC_PTR_REG_OFFSET(ADCx->OFR1, Offsety);
 80017fe:	68fb      	ldr	r3, [r7, #12]
 8001800:	3360      	adds	r3, #96	; 0x60
 8001802:	461a      	mov	r2, r3
 8001804:	68bb      	ldr	r3, [r7, #8]
 8001806:	009b      	lsls	r3, r3, #2
 8001808:	4413      	add	r3, r2
 800180a:	617b      	str	r3, [r7, #20]
               ADC3_OFR1_OFFSET1_EN | (Channel & ADC_CHANNEL_ID_NUMBER_MASK) | OffsetLevel);
  }
  else
#endif /* ADC_VER_V5_V90 */
  {
    MODIFY_REG(*preg,
 800180c:	697b      	ldr	r3, [r7, #20]
 800180e:	681b      	ldr	r3, [r3, #0]
 8001810:	f003 4200 	and.w	r2, r3, #2147483648	; 0x80000000
 8001814:	687b      	ldr	r3, [r7, #4]
 8001816:	f003 41f8 	and.w	r1, r3, #2080374784	; 0x7c000000
 800181a:	683b      	ldr	r3, [r7, #0]
 800181c:	430b      	orrs	r3, r1
 800181e:	431a      	orrs	r2, r3
 8001820:	697b      	ldr	r3, [r7, #20]
 8001822:	601a      	str	r2, [r3, #0]
               ADC_OFR1_OFFSET1_CH | ADC_OFR1_OFFSET1,
               (Channel & ADC_CHANNEL_ID_NUMBER_MASK) | OffsetLevel);
  }
}
 8001824:	bf00      	nop
 8001826:	371c      	adds	r7, #28
 8001828:	46bd      	mov	sp, r7
 800182a:	f85d 7b04 	ldr.w	r7, [sp], #4
 800182e:	4770      	bx	lr

08001830 <LL_ADC_SetDataRightShift>:
  *         @arg @ref LL_ADC_OFFSET_RSHIFT_ENABLE
  *         @arg @ref LL_ADC_OFFSET_RSHIFT_DISABLE
  * @retval Returned None
  */
__STATIC_INLINE void LL_ADC_SetDataRightShift(ADC_TypeDef *ADCx, uint32_t Offsety, uint32_t RigthShift)
{
 8001830:	b480      	push	{r7}
 8001832:	b085      	sub	sp, #20
 8001834:	af00      	add	r7, sp, #0
 8001836:	60f8      	str	r0, [r7, #12]
 8001838:	60b9      	str	r1, [r7, #8]
 800183a:	607a      	str	r2, [r7, #4]
  MODIFY_REG(ADCx->CFGR2, (ADC_CFGR2_RSHIFT1 | ADC_CFGR2_RSHIFT2 | ADC_CFGR2_RSHIFT3 | ADC_CFGR2_RSHIFT4), RigthShift << (Offsety & 0x1FUL));
 800183c:	68fb      	ldr	r3, [r7, #12]
 800183e:	691b      	ldr	r3, [r3, #16]
 8001840:	f423 42f0 	bic.w	r2, r3, #30720	; 0x7800
 8001844:	68bb      	ldr	r3, [r7, #8]
 8001846:	f003 031f 	and.w	r3, r3, #31
 800184a:	6879      	ldr	r1, [r7, #4]
 800184c:	fa01 f303 	lsl.w	r3, r1, r3
 8001850:	431a      	orrs	r2, r3
 8001852:	68fb      	ldr	r3, [r7, #12]
 8001854:	611a      	str	r2, [r3, #16]
}
 8001856:	bf00      	nop
 8001858:	3714      	adds	r7, #20
 800185a:	46bd      	mov	sp, r7
 800185c:	f85d 7b04 	ldr.w	r7, [sp], #4
 8001860:	4770      	bx	lr

08001862 <LL_ADC_SetOffsetSignedSaturation>:
  *         @arg @ref LL_ADC_OFFSET_SIGNED_SATURATION_ENABLE
  *         @arg @ref LL_ADC_OFFSET_SIGNED_SATURATION_DISABLE
  * @retval Returned None
  */
__STATIC_INLINE void LL_ADC_SetOffsetSignedSaturation(ADC_TypeDef *ADCx, uint32_t Offsety, uint32_t OffsetSignedSaturation)
{
 8001862:	b480      	push	{r7}
 8001864:	b087      	sub	sp, #28
 8001866:	af00      	add	r7, sp, #0
 8001868:	60f8      	str	r0, [r7, #12]
 800186a:	60b9      	str	r1, [r7, #8]
 800186c:	607a      	str	r2, [r7, #4]
    /* Function not available on this instance */
  }
  else
#endif  /* ADC_VER_V5_V90 */
  {
    __IO uint32_t *preg = __ADC_PTR_REG_OFFSET(ADCx->OFR1, Offsety);
 800186e:	68fb      	ldr	r3, [r7, #12]
 8001870:	3360      	adds	r3, #96	; 0x60
 8001872:	461a      	mov	r2, r3
 8001874:	68bb      	ldr	r3, [r7, #8]
 8001876:	009b      	lsls	r3, r3, #2
 8001878:	4413      	add	r3, r2
 800187a:	617b      	str	r3, [r7, #20]
    MODIFY_REG(*preg, ADC_OFR1_SSATE, OffsetSignedSaturation);
 800187c:	697b      	ldr	r3, [r7, #20]
 800187e:	681b      	ldr	r3, [r3, #0]
 8001880:	f023 4200 	bic.w	r2, r3, #2147483648	; 0x80000000
 8001884:	687b      	ldr	r3, [r7, #4]
 8001886:	431a      	orrs	r2, r3
 8001888:	697b      	ldr	r3, [r7, #20]
 800188a:	601a      	str	r2, [r3, #0]
  }
}
 800188c:	bf00      	nop
 800188e:	371c      	adds	r7, #28
 8001890:	46bd      	mov	sp, r7
 8001892:	f85d 7b04 	ldr.w	r7, [sp], #4
 8001896:	4770      	bx	lr

08001898 <LL_ADC_REG_SetSequencerRanks>:
  *         (3) On STM32H7, fast channel (0.125 us for 14-bit resolution (ADC conversion rate up to 8 Ms/s)).
  *             Other channels are slow channels (conversion rate: refer to reference manual).
  * @retval None
  */
__STATIC_INLINE void LL_ADC_REG_SetSequencerRanks(ADC_TypeDef *ADCx, uint32_t Rank, uint32_t Channel)
{
 8001898:	b480      	push	{r7}
 800189a:	b087      	sub	sp, #28
 800189c:	af00      	add	r7, sp, #0
 800189e:	60f8      	str	r0, [r7, #12]
 80018a0:	60b9      	str	r1, [r7, #8]
 80018a2:	607a      	str	r2, [r7, #4]
  /* Set bits with content of parameter "Channel" with bits position          */
  /* in register and register position depending on parameter "Rank".         */
  /* Parameters "Rank" and "Channel" are used with masks because containing   */
  /* other bits reserved for other purpose.                                   */
  __IO uint32_t *preg = __ADC_PTR_REG_OFFSET(ADCx->SQR1, ((Rank & ADC_REG_SQRX_REGOFFSET_MASK) >> ADC_SQRX_REGOFFSET_POS));
 80018a4:	68fb      	ldr	r3, [r7, #12]
 80018a6:	3330      	adds	r3, #48	; 0x30
 80018a8:	461a      	mov	r2, r3
 80018aa:	68bb      	ldr	r3, [r7, #8]
 80018ac:	0a1b      	lsrs	r3, r3, #8
 80018ae:	009b      	lsls	r3, r3, #2
 80018b0:	f003 030c 	and.w	r3, r3, #12
 80018b4:	4413      	add	r3, r2
 80018b6:	617b      	str	r3, [r7, #20]

  MODIFY_REG(*preg,
 80018b8:	697b      	ldr	r3, [r7, #20]
 80018ba:	681a      	ldr	r2, [r3, #0]
 80018bc:	68bb      	ldr	r3, [r7, #8]
 80018be:	f003 031f 	and.w	r3, r3, #31
 80018c2:	211f      	movs	r1, #31
 80018c4:	fa01 f303 	lsl.w	r3, r1, r3
 80018c8:	43db      	mvns	r3, r3
 80018ca:	401a      	ands	r2, r3
 80018cc:	687b      	ldr	r3, [r7, #4]
 80018ce:	0e9b      	lsrs	r3, r3, #26
 80018d0:	f003 011f 	and.w	r1, r3, #31
 80018d4:	68bb      	ldr	r3, [r7, #8]
 80018d6:	f003 031f 	and.w	r3, r3, #31
 80018da:	fa01 f303 	lsl.w	r3, r1, r3
 80018de:	431a      	orrs	r2, r3
 80018e0:	697b      	ldr	r3, [r7, #20]
 80018e2:	601a      	str	r2, [r3, #0]
             ADC_CHANNEL_ID_NUMBER_MASK_POSBIT0 << (Rank & ADC_REG_RANK_ID_SQRX_MASK),
             ((Channel & ADC_CHANNEL_ID_NUMBER_MASK) >> ADC_CHANNEL_ID_NUMBER_BITOFFSET_POS) << (Rank & ADC_REG_RANK_ID_SQRX_MASK));
}
 80018e4:	bf00      	nop
 80018e6:	371c      	adds	r7, #28
 80018e8:	46bd      	mov	sp, r7
 80018ea:	f85d 7b04 	ldr.w	r7, [sp], #4
 80018ee:	4770      	bx	lr

080018f0 <LL_ADC_SetChannelSamplingTime>:
  *         @arg @ref LL_ADC_SAMPLINGTIME_387CYCLES_5
  *         @arg @ref LL_ADC_SAMPLINGTIME_810CYCLES_5
  * @retval None
  */
__STATIC_INLINE void LL_ADC_SetChannelSamplingTime(ADC_TypeDef *ADCx, uint32_t Channel, uint32_t SamplingTime)
{
 80018f0:	b480      	push	{r7}
 80018f2:	b087      	sub	sp, #28
 80018f4:	af00      	add	r7, sp, #0
 80018f6:	60f8      	str	r0, [r7, #12]
 80018f8:	60b9      	str	r1, [r7, #8]
 80018fa:	607a      	str	r2, [r7, #4]
  /* Set bits with content of parameter "SamplingTime" with bits position     */
  /* in register and register position depending on parameter "Channel".      */
  /* Parameter "Channel" is used with masks because containing                */
  /* other bits reserved for other purpose.                                   */
  __IO uint32_t *preg = __ADC_PTR_REG_OFFSET(ADCx->SMPR1, ((Channel & ADC_CHANNEL_SMPRX_REGOFFSET_MASK) >> ADC_SMPRX_REGOFFSET_POS));
 80018fc:	68fb      	ldr	r3, [r7, #12]
 80018fe:	3314      	adds	r3, #20
 8001900:	461a      	mov	r2, r3
 8001902:	68bb      	ldr	r3, [r7, #8]
 8001904:	0e5b      	lsrs	r3, r3, #25
 8001906:	009b      	lsls	r3, r3, #2
 8001908:	f003 0304 	and.w	r3, r3, #4
 800190c:	4413      	add	r3, r2
 800190e:	617b      	str	r3, [r7, #20]

  MODIFY_REG(*preg,
 8001910:	697b      	ldr	r3, [r7, #20]
 8001912:	681a      	ldr	r2, [r3, #0]
 8001914:	68bb      	ldr	r3, [r7, #8]
 8001916:	0d1b      	lsrs	r3, r3, #20
 8001918:	f003 031f 	and.w	r3, r3, #31
 800191c:	2107      	movs	r1, #7
 800191e:	fa01 f303 	lsl.w	r3, r1, r3
 8001922:	43db      	mvns	r3, r3
 8001924:	401a      	ands	r2, r3
 8001926:	68bb      	ldr	r3, [r7, #8]
 8001928:	0d1b      	lsrs	r3, r3, #20
 800192a:	f003 031f 	and.w	r3, r3, #31
 800192e:	6879      	ldr	r1, [r7, #4]
 8001930:	fa01 f303 	lsl.w	r3, r1, r3
 8001934:	431a      	orrs	r2, r3
 8001936:	697b      	ldr	r3, [r7, #20]
 8001938:	601a      	str	r2, [r3, #0]
             ADC_SMPR1_SMP0 << ((Channel & ADC_CHANNEL_SMPx_BITOFFSET_MASK) >> ADC_CHANNEL_SMPx_BITOFFSET_POS),
             SamplingTime   << ((Channel & ADC_CHANNEL_SMPx_BITOFFSET_MASK) >> ADC_CHANNEL_SMPx_BITOFFSET_POS));
}
 800193a:	bf00      	nop
 800193c:	371c      	adds	r7, #28
 800193e:	46bd      	mov	sp, r7
 8001940:	f85d 7b04 	ldr.w	r7, [sp], #4
 8001944:	4770      	bx	lr
	...

08001948 <LL_ADC_SetChannelSingleDiff>:
  *         @arg @ref LL_ADC_SINGLE_ENDED
  *         @arg @ref LL_ADC_DIFFERENTIAL_ENDED
  * @retval None
  */
__STATIC_INLINE void LL_ADC_SetChannelSingleDiff(ADC_TypeDef *ADCx, uint32_t Channel, uint32_t SingleDiff)
{
 8001948:	b480      	push	{r7}
 800194a:	b085      	sub	sp, #20
 800194c:	af00      	add	r7, sp, #0
 800194e:	60f8      	str	r0, [r7, #12]
 8001950:	60b9      	str	r1, [r7, #8]
 8001952:	607a      	str	r2, [r7, #4]
  }
#else  /* ADC_VER_V5_V90 */
  /* Bits of channels in single or differential mode are set only for         */
  /* differential mode (for single mode, mask of bits allowed to be set is    */
  /* shifted out of range of bits of channels in single or differential mode. */
  MODIFY_REG(ADCx->DIFSEL,
 8001954:	68fb      	ldr	r3, [r7, #12]
 8001956:	f8d3 20c0 	ldr.w	r2, [r3, #192]	; 0xc0
 800195a:	68bb      	ldr	r3, [r7, #8]
 800195c:	f3c3 0313 	ubfx	r3, r3, #0, #20
 8001960:	43db      	mvns	r3, r3
 8001962:	401a      	ands	r2, r3
 8001964:	687b      	ldr	r3, [r7, #4]
 8001966:	f003 0318 	and.w	r3, r3, #24
 800196a:	4908      	ldr	r1, [pc, #32]	; (800198c <LL_ADC_SetChannelSingleDiff+0x44>)
 800196c:	40d9      	lsrs	r1, r3
 800196e:	68bb      	ldr	r3, [r7, #8]
 8001970:	400b      	ands	r3, r1
 8001972:	f3c3 0313 	ubfx	r3, r3, #0, #20
 8001976:	431a      	orrs	r2, r3
 8001978:	68fb      	ldr	r3, [r7, #12]
 800197a:	f8c3 20c0 	str.w	r2, [r3, #192]	; 0xc0
             Channel & ADC_SINGLEDIFF_CHANNEL_MASK,
             (Channel & ADC_SINGLEDIFF_CHANNEL_MASK) & (ADC_DIFSEL_DIFSEL >> (SingleDiff & ADC_SINGLEDIFF_CHANNEL_SHIFT_MASK)));
#endif
}
 800197e:	bf00      	nop
 8001980:	3714      	adds	r7, #20
 8001982:	46bd      	mov	sp, r7
 8001984:	f85d 7b04 	ldr.w	r7, [sp], #4
 8001988:	4770      	bx	lr
 800198a:	bf00      	nop
 800198c:	000fffff 	.word	0x000fffff

08001990 <LL_ADC_DisableDeepPowerDown>:
  * @rmtoll CR       DEEPPWD        LL_ADC_DisableDeepPowerDown
  * @param  ADCx ADC instance
  * @retval None
  */
__STATIC_INLINE void LL_ADC_DisableDeepPowerDown(ADC_TypeDef *ADCx)
{
 8001990:	b480      	push	{r7}
 8001992:	b083      	sub	sp, #12
 8001994:	af00      	add	r7, sp, #0
 8001996:	6078      	str	r0, [r7, #4]
  /* Note: Write register with some additional bits forced to state reset     */
  /*       instead of modifying only the selected bit for this function,      */
  /*       to not interfere with bits with HW property "rs".                  */
  CLEAR_BIT(ADCx->CR, (ADC_CR_DEEPPWD | ADC_CR_BITS_PROPERTY_RS));
 8001998:	687b      	ldr	r3, [r7, #4]
 800199a:	689a      	ldr	r2, [r3, #8]
 800199c:	4b04      	ldr	r3, [pc, #16]	; (80019b0 <LL_ADC_DisableDeepPowerDown+0x20>)
 800199e:	4013      	ands	r3, r2
 80019a0:	687a      	ldr	r2, [r7, #4]
 80019a2:	6093      	str	r3, [r2, #8]
}
 80019a4:	bf00      	nop
 80019a6:	370c      	adds	r7, #12
 80019a8:	46bd      	mov	sp, r7
 80019aa:	f85d 7b04 	ldr.w	r7, [sp], #4
 80019ae:	4770      	bx	lr
 80019b0:	5fffffc0 	.word	0x5fffffc0

080019b4 <LL_ADC_IsDeepPowerDownEnabled>:
  * @rmtoll CR       DEEPPWD        LL_ADC_IsDeepPowerDownEnabled
  * @param  ADCx ADC instance
  * @retval 0: deep power down is disabled, 1: deep power down is enabled.
  */
__STATIC_INLINE uint32_t LL_ADC_IsDeepPowerDownEnabled(ADC_TypeDef *ADCx)
{
 80019b4:	b480      	push	{r7}
 80019b6:	b083      	sub	sp, #12
 80019b8:	af00      	add	r7, sp, #0
 80019ba:	6078      	str	r0, [r7, #4]
  return ((READ_BIT(ADCx->CR, ADC_CR_DEEPPWD) == (ADC_CR_DEEPPWD)) ? 1UL : 0UL);
 80019bc:	687b      	ldr	r3, [r7, #4]
 80019be:	689b      	ldr	r3, [r3, #8]
 80019c0:	f003 5300 	and.w	r3, r3, #536870912	; 0x20000000
 80019c4:	f1b3 5f00 	cmp.w	r3, #536870912	; 0x20000000
 80019c8:	d101      	bne.n	80019ce <LL_ADC_IsDeepPowerDownEnabled+0x1a>
 80019ca:	2301      	movs	r3, #1
 80019cc:	e000      	b.n	80019d0 <LL_ADC_IsDeepPowerDownEnabled+0x1c>
 80019ce:	2300      	movs	r3, #0
}
 80019d0:	4618      	mov	r0, r3
 80019d2:	370c      	adds	r7, #12
 80019d4:	46bd      	mov	sp, r7
 80019d6:	f85d 7b04 	ldr.w	r7, [sp], #4
 80019da:	4770      	bx	lr

080019dc <LL_ADC_EnableInternalRegulator>:
  * @rmtoll CR       ADVREGEN       LL_ADC_EnableInternalRegulator
  * @param  ADCx ADC instance
  * @retval None
  */
__STATIC_INLINE void LL_ADC_EnableInternalRegulator(ADC_TypeDef *ADCx)
{
 80019dc:	b480      	push	{r7}
 80019de:	b083      	sub	sp, #12
 80019e0:	af00      	add	r7, sp, #0
 80019e2:	6078      	str	r0, [r7, #4]
  /* Note: Write register with some additional bits forced to state reset     */
  /*       instead of modifying only the selected bit for this function,      */
  /*       to not interfere with bits with HW property "rs".                  */
  MODIFY_REG(ADCx->CR,
 80019e4:	687b      	ldr	r3, [r7, #4]
 80019e6:	689a      	ldr	r2, [r3, #8]
 80019e8:	4b05      	ldr	r3, [pc, #20]	; (8001a00 <LL_ADC_EnableInternalRegulator+0x24>)
 80019ea:	4013      	ands	r3, r2
 80019ec:	f043 5280 	orr.w	r2, r3, #268435456	; 0x10000000
 80019f0:	687b      	ldr	r3, [r7, #4]
 80019f2:	609a      	str	r2, [r3, #8]
             ADC_CR_BITS_PROPERTY_RS,
             ADC_CR_ADVREGEN);
}
 80019f4:	bf00      	nop
 80019f6:	370c      	adds	r7, #12
 80019f8:	46bd      	mov	sp, r7
 80019fa:	f85d 7b04 	ldr.w	r7, [sp], #4
 80019fe:	4770      	bx	lr
 8001a00:	6fffffc0 	.word	0x6fffffc0

08001a04 <LL_ADC_IsInternalRegulatorEnabled>:
  * @rmtoll CR       ADVREGEN       LL_ADC_IsInternalRegulatorEnabled
  * @param  ADCx ADC instance
  * @retval 0: internal regulator is disabled, 1: internal regulator is enabled.
  */
__STATIC_INLINE uint32_t LL_ADC_IsInternalRegulatorEnabled(ADC_TypeDef *ADCx)
{
 8001a04:	b480      	push	{r7}
 8001a06:	b083      	sub	sp, #12
 8001a08:	af00      	add	r7, sp, #0
 8001a0a:	6078      	str	r0, [r7, #4]
  return ((READ_BIT(ADCx->CR, ADC_CR_ADVREGEN) == (ADC_CR_ADVREGEN)) ? 1UL : 0UL);
 8001a0c:	687b      	ldr	r3, [r7, #4]
 8001a0e:	689b      	ldr	r3, [r3, #8]
 8001a10:	f003 5380 	and.w	r3, r3, #268435456	; 0x10000000
 8001a14:	f1b3 5f80 	cmp.w	r3, #268435456	; 0x10000000
 8001a18:	d101      	bne.n	8001a1e <LL_ADC_IsInternalRegulatorEnabled+0x1a>
 8001a1a:	2301      	movs	r3, #1
 8001a1c:	e000      	b.n	8001a20 <LL_ADC_IsInternalRegulatorEnabled+0x1c>
 8001a1e:	2300      	movs	r3, #0
}
 8001a20:	4618      	mov	r0, r3
 8001a22:	370c      	adds	r7, #12
 8001a24:	46bd      	mov	sp, r7
 8001a26:	f85d 7b04 	ldr.w	r7, [sp], #4
 8001a2a:	4770      	bx	lr

08001a2c <LL_ADC_IsEnabled>:
  * @rmtoll CR       ADEN           LL_ADC_IsEnabled
  * @param  ADCx ADC instance
  * @retval 0: ADC is disabled, 1: ADC is enabled.
  */
__STATIC_INLINE uint32_t LL_ADC_IsEnabled(ADC_TypeDef *ADCx)
{
 8001a2c:	b480      	push	{r7}
 8001a2e:	b083      	sub	sp, #12
 8001a30:	af00      	add	r7, sp, #0
 8001a32:	6078      	str	r0, [r7, #4]
  return ((READ_BIT(ADCx->CR, ADC_CR_ADEN) == (ADC_CR_ADEN)) ? 1UL : 0UL);
 8001a34:	687b      	ldr	r3, [r7, #4]
 8001a36:	689b      	ldr	r3, [r3, #8]
 8001a38:	f003 0301 	and.w	r3, r3, #1
 8001a3c:	2b01      	cmp	r3, #1
 8001a3e:	d101      	bne.n	8001a44 <LL_ADC_IsEnabled+0x18>
 8001a40:	2301      	movs	r3, #1
 8001a42:	e000      	b.n	8001a46 <LL_ADC_IsEnabled+0x1a>
 8001a44:	2300      	movs	r3, #0
}
 8001a46:	4618      	mov	r0, r3
 8001a48:	370c      	adds	r7, #12
 8001a4a:	46bd      	mov	sp, r7
 8001a4c:	f85d 7b04 	ldr.w	r7, [sp], #4
 8001a50:	4770      	bx	lr

08001a52 <LL_ADC_REG_IsConversionOngoing>:
  * @rmtoll CR       ADSTART        LL_ADC_REG_IsConversionOngoing
  * @param  ADCx ADC instance
  * @retval 0: no conversion is on going on ADC group regular.
  */
__STATIC_INLINE uint32_t LL_ADC_REG_IsConversionOngoing(ADC_TypeDef *ADCx)
{
 8001a52:	b480      	push	{r7}
 8001a54:	b083      	sub	sp, #12
 8001a56:	af00      	add	r7, sp, #0
 8001a58:	6078      	str	r0, [r7, #4]
  return ((READ_BIT(ADCx->CR, ADC_CR_ADSTART) == (ADC_CR_ADSTART)) ? 1UL : 0UL);
 8001a5a:	687b      	ldr	r3, [r7, #4]
 8001a5c:	689b      	ldr	r3, [r3, #8]
 8001a5e:	f003 0304 	and.w	r3, r3, #4
 8001a62:	2b04      	cmp	r3, #4
 8001a64:	d101      	bne.n	8001a6a <LL_ADC_REG_IsConversionOngoing+0x18>
 8001a66:	2301      	movs	r3, #1
 8001a68:	e000      	b.n	8001a6c <LL_ADC_REG_IsConversionOngoing+0x1a>
 8001a6a:	2300      	movs	r3, #0
}
 8001a6c:	4618      	mov	r0, r3
 8001a6e:	370c      	adds	r7, #12
 8001a70:	46bd      	mov	sp, r7
 8001a72:	f85d 7b04 	ldr.w	r7, [sp], #4
 8001a76:	4770      	bx	lr

08001a78 <LL_ADC_INJ_IsConversionOngoing>:
  * @rmtoll CR       JADSTART       LL_ADC_INJ_IsConversionOngoing
  * @param  ADCx ADC instance
  * @retval 0: no conversion is on going on ADC group injected.
  */
__STATIC_INLINE uint32_t LL_ADC_INJ_IsConversionOngoing(ADC_TypeDef *ADCx)
{
 8001a78:	b480      	push	{r7}
 8001a7a:	b083      	sub	sp, #12
 8001a7c:	af00      	add	r7, sp, #0
 8001a7e:	6078      	str	r0, [r7, #4]
  return ((READ_BIT(ADCx->CR, ADC_CR_JADSTART) == (ADC_CR_JADSTART)) ? 1UL : 0UL);
 8001a80:	687b      	ldr	r3, [r7, #4]
 8001a82:	689b      	ldr	r3, [r3, #8]
 8001a84:	f003 0308 	and.w	r3, r3, #8
 8001a88:	2b08      	cmp	r3, #8
 8001a8a:	d101      	bne.n	8001a90 <LL_ADC_INJ_IsConversionOngoing+0x18>
 8001a8c:	2301      	movs	r3, #1
 8001a8e:	e000      	b.n	8001a92 <LL_ADC_INJ_IsConversionOngoing+0x1a>
 8001a90:	2300      	movs	r3, #0
}
 8001a92:	4618      	mov	r0, r3
 8001a94:	370c      	adds	r7, #12
 8001a96:	46bd      	mov	sp, r7
 8001a98:	f85d 7b04 	ldr.w	r7, [sp], #4
 8001a9c:	4770      	bx	lr
	...

08001aa0 <HAL_ADC_Init>:
  *         without  disabling the other ADCs.
  * @param hadc ADC handle
  * @retval HAL status
  */
HAL_StatusTypeDef HAL_ADC_Init(ADC_HandleTypeDef *hadc)
{
 8001aa0:	b590      	push	{r4, r7, lr}
 8001aa2:	b089      	sub	sp, #36	; 0x24
 8001aa4:	af00      	add	r7, sp, #0
 8001aa6:	6078      	str	r0, [r7, #4]
  HAL_StatusTypeDef tmp_hal_status = HAL_OK;
 8001aa8:	2300      	movs	r3, #0
 8001aaa:	77fb      	strb	r3, [r7, #31]
  uint32_t tmpCFGR;
  uint32_t tmp_adc_reg_is_conversion_on_going;
  __IO uint32_t wait_loop_index = 0UL;
 8001aac:	2300      	movs	r3, #0
 8001aae:	60bb      	str	r3, [r7, #8]
  uint32_t tmp_adc_is_conversion_on_going_regular;
  uint32_t tmp_adc_is_conversion_on_going_injected;

  /* Check ADC handle */
  if (hadc == NULL)
 8001ab0:	687b      	ldr	r3, [r7, #4]
 8001ab2:	2b00      	cmp	r3, #0
 8001ab4:	d101      	bne.n	8001aba <HAL_ADC_Init+0x1a>
  {
    return HAL_ERROR;
 8001ab6:	2301      	movs	r3, #1
 8001ab8:	e18e      	b.n	8001dd8 <HAL_ADC_Init+0x338>
  assert_param(IS_ADC_EOC_SELECTION(hadc->Init.EOCSelection));
  assert_param(IS_ADC_OVERRUN(hadc->Init.Overrun));
  assert_param(IS_FUNCTIONAL_STATE(hadc->Init.LowPowerAutoWait));
  assert_param(IS_FUNCTIONAL_STATE(hadc->Init.OversamplingMode));

  if (hadc->Init.ScanConvMode != ADC_SCAN_DISABLE)
 8001aba:	687b      	ldr	r3, [r7, #4]
 8001abc:	68db      	ldr	r3, [r3, #12]
 8001abe:	2b00      	cmp	r3, #0
  /* DISCEN and CONT bits cannot be set at the same time */
  assert_param(!((hadc->Init.DiscontinuousConvMode == ENABLE) && (hadc->Init.ContinuousConvMode == ENABLE)));

  /* Actions performed only if ADC is coming from state reset:                */
  /* - Initialization of ADC MSP                                              */
  if (hadc->State == HAL_ADC_STATE_RESET)
 8001ac0:	687b      	ldr	r3, [r7, #4]
 8001ac2:	6d5b      	ldr	r3, [r3, #84]	; 0x54
 8001ac4:	2b00      	cmp	r3, #0
 8001ac6:	d109      	bne.n	8001adc <HAL_ADC_Init+0x3c>

    /* Init the low level hardware */
    hadc->MspInitCallback(hadc);
#else
    /* Init the low level hardware */
    HAL_ADC_MspInit(hadc);
 8001ac8:	6878      	ldr	r0, [r7, #4]
 8001aca:	f7fe fefd 	bl	80008c8 <HAL_ADC_MspInit>
#endif /* USE_HAL_ADC_REGISTER_CALLBACKS */

    /* Set ADC error code to none */
    ADC_CLEAR_ERRORCODE(hadc);
 8001ace:	687b      	ldr	r3, [r7, #4]
 8001ad0:	2200      	movs	r2, #0
 8001ad2:	659a      	str	r2, [r3, #88]	; 0x58

    /* Initialize Lock */
    hadc->Lock = HAL_UNLOCKED;
 8001ad4:	687b      	ldr	r3, [r7, #4]
 8001ad6:	2200      	movs	r2, #0
 8001ad8:	f883 2050 	strb.w	r2, [r3, #80]	; 0x50
  }

  /* - Exit from deep-power-down mode and ADC voltage regulator enable        */
  if (LL_ADC_IsDeepPowerDownEnabled(hadc->Instance) != 0UL)
 8001adc:	687b      	ldr	r3, [r7, #4]
 8001ade:	681b      	ldr	r3, [r3, #0]
 8001ae0:	4618      	mov	r0, r3
 8001ae2:	f7ff ff67 	bl	80019b4 <LL_ADC_IsDeepPowerDownEnabled>
 8001ae6:	4603      	mov	r3, r0
 8001ae8:	2b00      	cmp	r3, #0
 8001aea:	d004      	beq.n	8001af6 <HAL_ADC_Init+0x56>
  {
    /* Disable ADC deep power down mode */
    LL_ADC_DisableDeepPowerDown(hadc->Instance);
 8001aec:	687b      	ldr	r3, [r7, #4]
 8001aee:	681b      	ldr	r3, [r3, #0]
 8001af0:	4618      	mov	r0, r3
 8001af2:	f7ff ff4d 	bl	8001990 <LL_ADC_DisableDeepPowerDown>
    /* System was in deep power down mode, calibration must
     be relaunched or a previously saved calibration factor
     re-applied once the ADC voltage regulator is enabled */
  }

  if (LL_ADC_IsInternalRegulatorEnabled(hadc->Instance) == 0UL)
 8001af6:	687b      	ldr	r3, [r7, #4]
 8001af8:	681b      	ldr	r3, [r3, #0]
 8001afa:	4618      	mov	r0, r3
 8001afc:	f7ff ff82 	bl	8001a04 <LL_ADC_IsInternalRegulatorEnabled>
 8001b00:	4603      	mov	r3, r0
 8001b02:	2b00      	cmp	r3, #0
 8001b04:	d113      	bne.n	8001b2e <HAL_ADC_Init+0x8e>
  {
    /* Enable ADC internal voltage regulator */
    LL_ADC_EnableInternalRegulator(hadc->Instance);
 8001b06:	687b      	ldr	r3, [r7, #4]
 8001b08:	681b      	ldr	r3, [r3, #0]
 8001b0a:	4618      	mov	r0, r3
 8001b0c:	f7ff ff66 	bl	80019dc <LL_ADC_EnableInternalRegulator>

    /* Note: Variable divided by 2 to compensate partially              */
    /*       CPU processing cycles, scaling in us split to not          */
    /*       exceed 32 bits register capacity and handle low frequency. */
    wait_loop_index = ((LL_ADC_DELAY_INTERNAL_REGUL_STAB_US / 10UL) * (SystemCoreClock / (100000UL * 2UL)));
 8001b10:	4b9a      	ldr	r3, [pc, #616]	; (8001d7c <HAL_ADC_Init+0x2dc>)
 8001b12:	681b      	ldr	r3, [r3, #0]
 8001b14:	099b      	lsrs	r3, r3, #6
 8001b16:	4a9a      	ldr	r2, [pc, #616]	; (8001d80 <HAL_ADC_Init+0x2e0>)
 8001b18:	fba2 2303 	umull	r2, r3, r2, r3
 8001b1c:	099b      	lsrs	r3, r3, #6
 8001b1e:	60bb      	str	r3, [r7, #8]
    while (wait_loop_index != 0UL)
 8001b20:	e002      	b.n	8001b28 <HAL_ADC_Init+0x88>
    {
      wait_loop_index--;
 8001b22:	68bb      	ldr	r3, [r7, #8]
 8001b24:	3b01      	subs	r3, #1
 8001b26:	60bb      	str	r3, [r7, #8]
    while (wait_loop_index != 0UL)
 8001b28:	68bb      	ldr	r3, [r7, #8]
 8001b2a:	2b00      	cmp	r3, #0
 8001b2c:	d1f9      	bne.n	8001b22 <HAL_ADC_Init+0x82>
  }

  /* Verification that ADC voltage regulator is correctly enabled, whether    */
  /* or not ADC is coming from state reset (if any potential problem of       */
  /* clocking, voltage regulator would not be enabled).                       */
  if (LL_ADC_IsInternalRegulatorEnabled(hadc->Instance) == 0UL)
 8001b2e:	687b      	ldr	r3, [r7, #4]
 8001b30:	681b      	ldr	r3, [r3, #0]
 8001b32:	4618      	mov	r0, r3
 8001b34:	f7ff ff66 	bl	8001a04 <LL_ADC_IsInternalRegulatorEnabled>
 8001b38:	4603      	mov	r3, r0
 8001b3a:	2b00      	cmp	r3, #0
 8001b3c:	d10d      	bne.n	8001b5a <HAL_ADC_Init+0xba>
  {
    /* Update ADC state machine to error */
    SET_BIT(hadc->State, HAL_ADC_STATE_ERROR_INTERNAL);
 8001b3e:	687b      	ldr	r3, [r7, #4]
 8001b40:	6d5b      	ldr	r3, [r3, #84]	; 0x54
 8001b42:	f043 0210 	orr.w	r2, r3, #16
 8001b46:	687b      	ldr	r3, [r7, #4]
 8001b48:	655a      	str	r2, [r3, #84]	; 0x54

    /* Set ADC error code to ADC peripheral internal error */
    SET_BIT(hadc->ErrorCode, HAL_ADC_ERROR_INTERNAL);
 8001b4a:	687b      	ldr	r3, [r7, #4]
 8001b4c:	6d9b      	ldr	r3, [r3, #88]	; 0x58
 8001b4e:	f043 0201 	orr.w	r2, r3, #1
 8001b52:	687b      	ldr	r3, [r7, #4]
 8001b54:	659a      	str	r2, [r3, #88]	; 0x58

    tmp_hal_status = HAL_ERROR;
 8001b56:	2301      	movs	r3, #1
 8001b58:	77fb      	strb	r3, [r7, #31]

  /* Configuration of ADC parameters if previous preliminary actions are      */
  /* correctly completed and if there is no conversion on going on regular    */
  /* group (ADC may already be enabled at this point if HAL_ADC_Init() is     */
  /* called to update a parameter on the fly).                                */
  tmp_adc_reg_is_conversion_on_going = LL_ADC_REG_IsConversionOngoing(hadc->Instance);
 8001b5a:	687b      	ldr	r3, [r7, #4]
 8001b5c:	681b      	ldr	r3, [r3, #0]
 8001b5e:	4618      	mov	r0, r3
 8001b60:	f7ff ff77 	bl	8001a52 <LL_ADC_REG_IsConversionOngoing>
 8001b64:	6178      	str	r0, [r7, #20]

  if (((hadc->State & HAL_ADC_STATE_ERROR_INTERNAL) == 0UL)
 8001b66:	687b      	ldr	r3, [r7, #4]
 8001b68:	6d5b      	ldr	r3, [r3, #84]	; 0x54
 8001b6a:	f003 0310 	and.w	r3, r3, #16
 8001b6e:	2b00      	cmp	r3, #0
 8001b70:	f040 8129 	bne.w	8001dc6 <HAL_ADC_Init+0x326>
      && (tmp_adc_reg_is_conversion_on_going == 0UL)
 8001b74:	697b      	ldr	r3, [r7, #20]
 8001b76:	2b00      	cmp	r3, #0
 8001b78:	f040 8125 	bne.w	8001dc6 <HAL_ADC_Init+0x326>
     )
  {
    /* Set ADC state */
    ADC_STATE_CLR_SET(hadc->State,
 8001b7c:	687b      	ldr	r3, [r7, #4]
 8001b7e:	6d5b      	ldr	r3, [r3, #84]	; 0x54
 8001b80:	f423 7381 	bic.w	r3, r3, #258	; 0x102
 8001b84:	f043 0202 	orr.w	r2, r3, #2
 8001b88:	687b      	ldr	r3, [r7, #4]
 8001b8a:	655a      	str	r2, [r3, #84]	; 0x54
    /* Configuration of common ADC parameters                                 */

    /* Parameters update conditioned to ADC state:                            */
    /* Parameters that can be updated only when ADC is disabled:              */
    /*  - clock configuration                                                 */
    if (LL_ADC_IsEnabled(hadc->Instance) == 0UL)
 8001b8c:	687b      	ldr	r3, [r7, #4]
 8001b8e:	681b      	ldr	r3, [r3, #0]
 8001b90:	4618      	mov	r0, r3
 8001b92:	f7ff ff4b 	bl	8001a2c <LL_ADC_IsEnabled>
 8001b96:	4603      	mov	r3, r0
 8001b98:	2b00      	cmp	r3, #0
 8001b9a:	d136      	bne.n	8001c0a <HAL_ADC_Init+0x16a>
    {
      if (__LL_ADC_IS_ENABLED_ALL_COMMON_INSTANCE(__LL_ADC_COMMON_INSTANCE(hadc->Instance)) == 0UL)
 8001b9c:	687b      	ldr	r3, [r7, #4]
 8001b9e:	681b      	ldr	r3, [r3, #0]
 8001ba0:	4a78      	ldr	r2, [pc, #480]	; (8001d84 <HAL_ADC_Init+0x2e4>)
 8001ba2:	4293      	cmp	r3, r2
 8001ba4:	d004      	beq.n	8001bb0 <HAL_ADC_Init+0x110>
 8001ba6:	687b      	ldr	r3, [r7, #4]
 8001ba8:	681b      	ldr	r3, [r3, #0]
 8001baa:	4a77      	ldr	r2, [pc, #476]	; (8001d88 <HAL_ADC_Init+0x2e8>)
 8001bac:	4293      	cmp	r3, r2
 8001bae:	d10e      	bne.n	8001bce <HAL_ADC_Init+0x12e>
 8001bb0:	4874      	ldr	r0, [pc, #464]	; (8001d84 <HAL_ADC_Init+0x2e4>)
 8001bb2:	f7ff ff3b 	bl	8001a2c <LL_ADC_IsEnabled>
 8001bb6:	4604      	mov	r4, r0
 8001bb8:	4873      	ldr	r0, [pc, #460]	; (8001d88 <HAL_ADC_Init+0x2e8>)
 8001bba:	f7ff ff37 	bl	8001a2c <LL_ADC_IsEnabled>
 8001bbe:	4603      	mov	r3, r0
 8001bc0:	4323      	orrs	r3, r4
 8001bc2:	2b00      	cmp	r3, #0
 8001bc4:	bf0c      	ite	eq
 8001bc6:	2301      	moveq	r3, #1
 8001bc8:	2300      	movne	r3, #0
 8001bca:	b2db      	uxtb	r3, r3
 8001bcc:	e008      	b.n	8001be0 <HAL_ADC_Init+0x140>
 8001bce:	486f      	ldr	r0, [pc, #444]	; (8001d8c <HAL_ADC_Init+0x2ec>)
 8001bd0:	f7ff ff2c 	bl	8001a2c <LL_ADC_IsEnabled>
 8001bd4:	4603      	mov	r3, r0
 8001bd6:	2b00      	cmp	r3, #0
 8001bd8:	bf0c      	ite	eq
 8001bda:	2301      	moveq	r3, #1
 8001bdc:	2300      	movne	r3, #0
 8001bde:	b2db      	uxtb	r3, r3
 8001be0:	2b00      	cmp	r3, #0
 8001be2:	d012      	beq.n	8001c0a <HAL_ADC_Init+0x16a>
        /*     parameters: MDMA, DMACFG, DELAY, DUAL (set by API                */
        /*     HAL_ADCEx_MultiModeConfigChannel() )                             */
        /*   - internal measurement paths: Vbat, temperature sensor, Vref       */
        /*     (set into HAL_ADC_ConfigChannel() or                             */
        /*     HAL_ADCEx_InjectedConfigChannel() )                              */
        LL_ADC_SetCommonClock(__LL_ADC_COMMON_INSTANCE(hadc->Instance), hadc->Init.ClockPrescaler);
 8001be4:	687b      	ldr	r3, [r7, #4]
 8001be6:	681b      	ldr	r3, [r3, #0]
 8001be8:	4a66      	ldr	r2, [pc, #408]	; (8001d84 <HAL_ADC_Init+0x2e4>)
 8001bea:	4293      	cmp	r3, r2
 8001bec:	d004      	beq.n	8001bf8 <HAL_ADC_Init+0x158>
 8001bee:	687b      	ldr	r3, [r7, #4]
 8001bf0:	681b      	ldr	r3, [r3, #0]
 8001bf2:	4a65      	ldr	r2, [pc, #404]	; (8001d88 <HAL_ADC_Init+0x2e8>)
 8001bf4:	4293      	cmp	r3, r2
 8001bf6:	d101      	bne.n	8001bfc <HAL_ADC_Init+0x15c>
 8001bf8:	4a65      	ldr	r2, [pc, #404]	; (8001d90 <HAL_ADC_Init+0x2f0>)
 8001bfa:	e000      	b.n	8001bfe <HAL_ADC_Init+0x15e>
 8001bfc:	4a65      	ldr	r2, [pc, #404]	; (8001d94 <HAL_ADC_Init+0x2f4>)
 8001bfe:	687b      	ldr	r3, [r7, #4]
 8001c00:	685b      	ldr	r3, [r3, #4]
 8001c02:	4619      	mov	r1, r3
 8001c04:	4610      	mov	r0, r2
 8001c06:	f7ff fdbf 	bl	8001788 <LL_ADC_SetCommonClock>
                  ADC_CFGR_REG_DISCONTINUOUS((uint32_t)hadc->Init.DiscontinuousConvMode));
    }

#else

    if ((HAL_GetREVID() > REV_ID_Y) && (ADC_RESOLUTION_8B == hadc->Init.Resolution))
 8001c0a:	f7ff fdb1 	bl	8001770 <HAL_GetREVID>
 8001c0e:	4602      	mov	r2, r0
 8001c10:	f241 0303 	movw	r3, #4099	; 0x1003
 8001c14:	429a      	cmp	r2, r3
 8001c16:	d914      	bls.n	8001c42 <HAL_ADC_Init+0x1a2>
 8001c18:	687b      	ldr	r3, [r7, #4]
 8001c1a:	689b      	ldr	r3, [r3, #8]
 8001c1c:	2b10      	cmp	r3, #16
 8001c1e:	d110      	bne.n	8001c42 <HAL_ADC_Init+0x1a2>
    {
      /* for STM32H7 silicon rev.B and above , ADC_CFGR_RES value for 8bits resolution is : b111 */
      tmpCFGR  = (ADC_CFGR_CONTINUOUS((uint32_t)hadc->Init.ContinuousConvMode)          |
 8001c20:	687b      	ldr	r3, [r7, #4]
 8001c22:	7d5b      	ldrb	r3, [r3, #21]
 8001c24:	035a      	lsls	r2, r3, #13
                  hadc->Init.Overrun                                                    |
 8001c26:	687b      	ldr	r3, [r7, #4]
 8001c28:	6b1b      	ldr	r3, [r3, #48]	; 0x30
      tmpCFGR  = (ADC_CFGR_CONTINUOUS((uint32_t)hadc->Init.ContinuousConvMode)          |
 8001c2a:	431a      	orrs	r2, r3
                  hadc->Init.Resolution | (ADC_CFGR_RES_1 | ADC_CFGR_RES_0)                |
 8001c2c:	687b      	ldr	r3, [r7, #4]
 8001c2e:	689b      	ldr	r3, [r3, #8]
                  hadc->Init.Overrun                                                    |
 8001c30:	431a      	orrs	r2, r3
                  ADC_CFGR_REG_DISCONTINUOUS((uint32_t)hadc->Init.DiscontinuousConvMode));
 8001c32:	687b      	ldr	r3, [r7, #4]
 8001c34:	7f1b      	ldrb	r3, [r3, #28]
 8001c36:	041b      	lsls	r3, r3, #16
                  hadc->Init.Resolution | (ADC_CFGR_RES_1 | ADC_CFGR_RES_0)                |
 8001c38:	4313      	orrs	r3, r2
      tmpCFGR  = (ADC_CFGR_CONTINUOUS((uint32_t)hadc->Init.ContinuousConvMode)          |
 8001c3a:	f043 030c 	orr.w	r3, r3, #12
 8001c3e:	61bb      	str	r3, [r7, #24]
 8001c40:	e00d      	b.n	8001c5e <HAL_ADC_Init+0x1be>
    }
    else
    {

      tmpCFGR  = (ADC_CFGR_CONTINUOUS((uint32_t)hadc->Init.ContinuousConvMode)          |
 8001c42:	687b      	ldr	r3, [r7, #4]
 8001c44:	7d5b      	ldrb	r3, [r3, #21]
 8001c46:	035a      	lsls	r2, r3, #13
                  hadc->Init.Overrun                                                    |
 8001c48:	687b      	ldr	r3, [r7, #4]
 8001c4a:	6b1b      	ldr	r3, [r3, #48]	; 0x30
      tmpCFGR  = (ADC_CFGR_CONTINUOUS((uint32_t)hadc->Init.ContinuousConvMode)          |
 8001c4c:	431a      	orrs	r2, r3
                  hadc->Init.Resolution                                                 |
 8001c4e:	687b      	ldr	r3, [r7, #4]
 8001c50:	689b      	ldr	r3, [r3, #8]
                  hadc->Init.Overrun                                                    |
 8001c52:	431a      	orrs	r2, r3
                  ADC_CFGR_REG_DISCONTINUOUS((uint32_t)hadc->Init.DiscontinuousConvMode));
 8001c54:	687b      	ldr	r3, [r7, #4]
 8001c56:	7f1b      	ldrb	r3, [r3, #28]
 8001c58:	041b      	lsls	r3, r3, #16
      tmpCFGR  = (ADC_CFGR_CONTINUOUS((uint32_t)hadc->Init.ContinuousConvMode)          |
 8001c5a:	4313      	orrs	r3, r2
 8001c5c:	61bb      	str	r3, [r7, #24]
    }

#endif /* ADC_VER_V5_3 */

    if (hadc->Init.DiscontinuousConvMode == ENABLE)
 8001c5e:	687b      	ldr	r3, [r7, #4]
 8001c60:	7f1b      	ldrb	r3, [r3, #28]
 8001c62:	2b01      	cmp	r3, #1
 8001c64:	d106      	bne.n	8001c74 <HAL_ADC_Init+0x1d4>
    {
      tmpCFGR |= ADC_CFGR_DISCONTINUOUS_NUM(hadc->Init.NbrOfDiscConversion);
 8001c66:	687b      	ldr	r3, [r7, #4]
 8001c68:	6a1b      	ldr	r3, [r3, #32]
 8001c6a:	3b01      	subs	r3, #1
 8001c6c:	045b      	lsls	r3, r3, #17
 8001c6e:	69ba      	ldr	r2, [r7, #24]
 8001c70:	4313      	orrs	r3, r2
 8001c72:	61bb      	str	r3, [r7, #24]
    /* Enable external trigger if trigger selection is different of software  */
    /* start.                                                                 */
    /* Note: This configuration keeps the hardware feature of parameter       */
    /*       ExternalTrigConvEdge "trigger edge none" equivalent to           */
    /*       software start.                                                  */
    if (hadc->Init.ExternalTrigConv != ADC_SOFTWARE_START)
 8001c74:	687b      	ldr	r3, [r7, #4]
 8001c76:	6a5b      	ldr	r3, [r3, #36]	; 0x24
 8001c78:	2b00      	cmp	r3, #0
 8001c7a:	d009      	beq.n	8001c90 <HAL_ADC_Init+0x1f0>
    {
      tmpCFGR |= ((hadc->Init.ExternalTrigConv & ADC_CFGR_EXTSEL)
 8001c7c:	687b      	ldr	r3, [r7, #4]
 8001c7e:	6a5b      	ldr	r3, [r3, #36]	; 0x24
 8001c80:	f403 7278 	and.w	r2, r3, #992	; 0x3e0
                  | hadc->Init.ExternalTrigConvEdge
 8001c84:	687b      	ldr	r3, [r7, #4]
 8001c86:	6a9b      	ldr	r3, [r3, #40]	; 0x28
 8001c88:	4313      	orrs	r3, r2
      tmpCFGR |= ((hadc->Init.ExternalTrigConv & ADC_CFGR_EXTSEL)
 8001c8a:	69ba      	ldr	r2, [r7, #24]
 8001c8c:	4313      	orrs	r3, r2
 8001c8e:	61bb      	str	r3, [r7, #24]
      /* Update Configuration Register CFGR */
      MODIFY_REG(hadc->Instance->CFGR, ADC_CFGR_FIELDS_1, tmpCFGR);
    }
#else
    /* Update Configuration Register CFGR */
    MODIFY_REG(hadc->Instance->CFGR, ADC_CFGR_FIELDS_1, tmpCFGR);
 8001c90:	687b      	ldr	r3, [r7, #4]
 8001c92:	681b      	ldr	r3, [r3, #0]
 8001c94:	68da      	ldr	r2, [r3, #12]
 8001c96:	4b40      	ldr	r3, [pc, #256]	; (8001d98 <HAL_ADC_Init+0x2f8>)
 8001c98:	4013      	ands	r3, r2
 8001c9a:	687a      	ldr	r2, [r7, #4]
 8001c9c:	6812      	ldr	r2, [r2, #0]
 8001c9e:	69b9      	ldr	r1, [r7, #24]
 8001ca0:	430b      	orrs	r3, r1
 8001ca2:	60d3      	str	r3, [r2, #12]
    /* Parameters that can be updated when ADC is disabled or enabled without */
    /* conversion on going on regular and injected groups:                    */
    /*  - Conversion data management      Init.ConversionDataManagement       */
    /*  - LowPowerAutoWait feature        Init.LowPowerAutoWait               */
    /*  - Oversampling parameters         Init.Oversampling                   */
    tmp_adc_is_conversion_on_going_regular = LL_ADC_REG_IsConversionOngoing(hadc->Instance);
 8001ca4:	687b      	ldr	r3, [r7, #4]
 8001ca6:	681b      	ldr	r3, [r3, #0]
 8001ca8:	4618      	mov	r0, r3
 8001caa:	f7ff fed2 	bl	8001a52 <LL_ADC_REG_IsConversionOngoing>
 8001cae:	6138      	str	r0, [r7, #16]
    tmp_adc_is_conversion_on_going_injected = LL_ADC_INJ_IsConversionOngoing(hadc->Instance);
 8001cb0:	687b      	ldr	r3, [r7, #4]
 8001cb2:	681b      	ldr	r3, [r3, #0]
 8001cb4:	4618      	mov	r0, r3
 8001cb6:	f7ff fedf 	bl	8001a78 <LL_ADC_INJ_IsConversionOngoing>
 8001cba:	60f8      	str	r0, [r7, #12]
    if ((tmp_adc_is_conversion_on_going_regular == 0UL)
 8001cbc:	693b      	ldr	r3, [r7, #16]
 8001cbe:	2b00      	cmp	r3, #0
 8001cc0:	d14a      	bne.n	8001d58 <HAL_ADC_Init+0x2b8>
        && (tmp_adc_is_conversion_on_going_injected == 0UL)
 8001cc2:	68fb      	ldr	r3, [r7, #12]
 8001cc4:	2b00      	cmp	r3, #0
 8001cc6:	d147      	bne.n	8001d58 <HAL_ADC_Init+0x2b8>
                    ADC_CFGR_AUTOWAIT((uint32_t)hadc->Init.LowPowerAutoWait)        |
                    ADC_CFGR_DMACONTREQ((uint32_t)hadc->Init.ConversionDataManagement));
      }
#else
      tmpCFGR = (
                  ADC_CFGR_AUTOWAIT((uint32_t)hadc->Init.LowPowerAutoWait)        |
 8001cc8:	687b      	ldr	r3, [r7, #4]
 8001cca:	7d1b      	ldrb	r3, [r3, #20]
 8001ccc:	039a      	lsls	r2, r3, #14
                  ADC_CFGR_DMACONTREQ((uint32_t)hadc->Init.ConversionDataManagement));
 8001cce:	687b      	ldr	r3, [r7, #4]
 8001cd0:	6adb      	ldr	r3, [r3, #44]	; 0x2c
      tmpCFGR = (
 8001cd2:	4313      	orrs	r3, r2
 8001cd4:	61bb      	str	r3, [r7, #24]
#endif

      MODIFY_REG(hadc->Instance->CFGR, ADC_CFGR_FIELDS_2, tmpCFGR);
 8001cd6:	687b      	ldr	r3, [r7, #4]
 8001cd8:	681b      	ldr	r3, [r3, #0]
 8001cda:	68da      	ldr	r2, [r3, #12]
 8001cdc:	4b2f      	ldr	r3, [pc, #188]	; (8001d9c <HAL_ADC_Init+0x2fc>)
 8001cde:	4013      	ands	r3, r2
 8001ce0:	687a      	ldr	r2, [r7, #4]
 8001ce2:	6812      	ldr	r2, [r2, #0]
 8001ce4:	69b9      	ldr	r1, [r7, #24]
 8001ce6:	430b      	orrs	r3, r1
 8001ce8:	60d3      	str	r3, [r2, #12]

      if (hadc->Init.OversamplingMode == ENABLE)
 8001cea:	687b      	ldr	r3, [r7, #4]
 8001cec:	f893 3038 	ldrb.w	r3, [r3, #56]	; 0x38
 8001cf0:	2b01      	cmp	r3, #1
 8001cf2:	d11b      	bne.n	8001d2c <HAL_ADC_Init+0x28c>
#endif
        assert_param(IS_ADC_RIGHT_BIT_SHIFT(hadc->Init.Oversampling.RightBitShift));
        assert_param(IS_ADC_TRIGGERED_OVERSAMPLING_MODE(hadc->Init.Oversampling.TriggeredMode));
        assert_param(IS_ADC_REGOVERSAMPLING_MODE(hadc->Init.Oversampling.OversamplingStopReset));

        if ((hadc->Init.ExternalTrigConv == ADC_SOFTWARE_START)
 8001cf4:	687b      	ldr	r3, [r7, #4]
 8001cf6:	6a5b      	ldr	r3, [r3, #36]	; 0x24
 8001cf8:	2b00      	cmp	r3, #0
        /*  - Oversampling Ratio                                               */
        /*  - Right bit shift                                                  */
        /*  - Left bit shift                                                   */
        /*  - Triggered mode                                                   */
        /*  - Oversampling mode (continued/resumed)                            */
        MODIFY_REG(hadc->Instance->CFGR2, ADC_CFGR2_FIELDS,
 8001cfa:	687b      	ldr	r3, [r7, #4]
 8001cfc:	681b      	ldr	r3, [r3, #0]
 8001cfe:	691a      	ldr	r2, [r3, #16]
 8001d00:	4b27      	ldr	r3, [pc, #156]	; (8001da0 <HAL_ADC_Init+0x300>)
 8001d02:	4013      	ands	r3, r2
 8001d04:	687a      	ldr	r2, [r7, #4]
 8001d06:	6bd2      	ldr	r2, [r2, #60]	; 0x3c
 8001d08:	3a01      	subs	r2, #1
 8001d0a:	0411      	lsls	r1, r2, #16
 8001d0c:	687a      	ldr	r2, [r7, #4]
 8001d0e:	6c12      	ldr	r2, [r2, #64]	; 0x40
 8001d10:	4311      	orrs	r1, r2
 8001d12:	687a      	ldr	r2, [r7, #4]
 8001d14:	6c52      	ldr	r2, [r2, #68]	; 0x44
 8001d16:	4311      	orrs	r1, r2
 8001d18:	687a      	ldr	r2, [r7, #4]
 8001d1a:	6c92      	ldr	r2, [r2, #72]	; 0x48
 8001d1c:	430a      	orrs	r2, r1
 8001d1e:	431a      	orrs	r2, r3
 8001d20:	687b      	ldr	r3, [r7, #4]
 8001d22:	681b      	ldr	r3, [r3, #0]
 8001d24:	f042 0201 	orr.w	r2, r2, #1
 8001d28:	611a      	str	r2, [r3, #16]
 8001d2a:	e007      	b.n	8001d3c <HAL_ADC_Init+0x29c>

      }
      else
      {
        /* Disable ADC oversampling scope on ADC group regular */
        CLEAR_BIT(hadc->Instance->CFGR2, ADC_CFGR2_ROVSE);
 8001d2c:	687b      	ldr	r3, [r7, #4]
 8001d2e:	681b      	ldr	r3, [r3, #0]
 8001d30:	691a      	ldr	r2, [r3, #16]
 8001d32:	687b      	ldr	r3, [r7, #4]
 8001d34:	681b      	ldr	r3, [r3, #0]
 8001d36:	f022 0201 	bic.w	r2, r2, #1
 8001d3a:	611a      	str	r2, [r3, #16]
      }

      /* Set the LeftShift parameter: it is applied to the final result with or without oversampling */
      MODIFY_REG(hadc->Instance->CFGR2, ADC_CFGR2_LSHIFT, hadc->Init.LeftBitShift);
 8001d3c:	687b      	ldr	r3, [r7, #4]
 8001d3e:	681b      	ldr	r3, [r3, #0]
 8001d40:	691b      	ldr	r3, [r3, #16]
 8001d42:	f023 4170 	bic.w	r1, r3, #4026531840	; 0xf0000000
 8001d46:	687b      	ldr	r3, [r7, #4]
 8001d48:	6b5a      	ldr	r2, [r3, #52]	; 0x34
 8001d4a:	687b      	ldr	r3, [r7, #4]
 8001d4c:	681b      	ldr	r3, [r3, #0]
 8001d4e:	430a      	orrs	r2, r1
 8001d50:	611a      	str	r2, [r3, #16]
        /* Configure the BOOST Mode */
        ADC_ConfigureBoostMode(hadc);
      }
#else
      /* Configure the BOOST Mode */
      ADC_ConfigureBoostMode(hadc);
 8001d52:	6878      	ldr	r0, [r7, #4]
 8001d54:	f000 fb58 	bl	8002408 <ADC_ConfigureBoostMode>
    /*   Note: Scan mode is not present by hardware on this device, but       */
    /*   emulated by software for alignment over all STM32 devices.           */
    /* - if scan mode is enabled, regular channels sequence length is set to  */
    /*   parameter "NbrOfConversion".                                         */

    if (hadc->Init.ScanConvMode == ADC_SCAN_ENABLE)
 8001d58:	687b      	ldr	r3, [r7, #4]
 8001d5a:	68db      	ldr	r3, [r3, #12]
 8001d5c:	2b01      	cmp	r3, #1
 8001d5e:	d121      	bne.n	8001da4 <HAL_ADC_Init+0x304>
    {
      /* Set number of ranks in regular group sequencer */
      MODIFY_REG(hadc->Instance->SQR1, ADC_SQR1_L, (hadc->Init.NbrOfConversion - (uint8_t)1));
 8001d60:	687b      	ldr	r3, [r7, #4]
 8001d62:	681b      	ldr	r3, [r3, #0]
 8001d64:	6b1b      	ldr	r3, [r3, #48]	; 0x30
 8001d66:	f023 010f 	bic.w	r1, r3, #15
 8001d6a:	687b      	ldr	r3, [r7, #4]
 8001d6c:	699b      	ldr	r3, [r3, #24]
 8001d6e:	1e5a      	subs	r2, r3, #1
 8001d70:	687b      	ldr	r3, [r7, #4]
 8001d72:	681b      	ldr	r3, [r3, #0]
 8001d74:	430a      	orrs	r2, r1
 8001d76:	631a      	str	r2, [r3, #48]	; 0x30
 8001d78:	e01c      	b.n	8001db4 <HAL_ADC_Init+0x314>
 8001d7a:	bf00      	nop
 8001d7c:	20000000 	.word	0x20000000
 8001d80:	053e2d63 	.word	0x053e2d63
 8001d84:	40022000 	.word	0x40022000
 8001d88:	40022100 	.word	0x40022100
 8001d8c:	58026000 	.word	0x58026000
 8001d90:	40022300 	.word	0x40022300
 8001d94:	58026300 	.word	0x58026300
 8001d98:	fff0c003 	.word	0xfff0c003
 8001d9c:	ffffbffc 	.word	0xffffbffc
 8001da0:	fc00f81e 	.word	0xfc00f81e
    }
    else
    {
      CLEAR_BIT(hadc->Instance->SQR1, ADC_SQR1_L);
 8001da4:	687b      	ldr	r3, [r7, #4]
 8001da6:	681b      	ldr	r3, [r3, #0]
 8001da8:	6b1a      	ldr	r2, [r3, #48]	; 0x30
 8001daa:	687b      	ldr	r3, [r7, #4]
 8001dac:	681b      	ldr	r3, [r3, #0]
 8001dae:	f022 020f 	bic.w	r2, r2, #15
 8001db2:	631a      	str	r2, [r3, #48]	; 0x30
    }

    /* Initialize the ADC state */
    /* Clear HAL_ADC_STATE_BUSY_INTERNAL bit, set HAL_ADC_STATE_READY bit */
    ADC_STATE_CLR_SET(hadc->State, HAL_ADC_STATE_BUSY_INTERNAL, HAL_ADC_STATE_READY);
 8001db4:	687b      	ldr	r3, [r7, #4]
 8001db6:	6d5b      	ldr	r3, [r3, #84]	; 0x54
 8001db8:	f023 0303 	bic.w	r3, r3, #3
 8001dbc:	f043 0201 	orr.w	r2, r3, #1
 8001dc0:	687b      	ldr	r3, [r7, #4]
 8001dc2:	655a      	str	r2, [r3, #84]	; 0x54
 8001dc4:	e007      	b.n	8001dd6 <HAL_ADC_Init+0x336>
  }
  else
  {
    /* Update ADC state machine to error */
    SET_BIT(hadc->State, HAL_ADC_STATE_ERROR_INTERNAL);
 8001dc6:	687b      	ldr	r3, [r7, #4]
 8001dc8:	6d5b      	ldr	r3, [r3, #84]	; 0x54
 8001dca:	f043 0210 	orr.w	r2, r3, #16
 8001dce:	687b      	ldr	r3, [r7, #4]
 8001dd0:	655a      	str	r2, [r3, #84]	; 0x54

    tmp_hal_status = HAL_ERROR;
 8001dd2:	2301      	movs	r3, #1
 8001dd4:	77fb      	strb	r3, [r7, #31]
  }

  /* Return function status */
  return tmp_hal_status;
 8001dd6:	7ffb      	ldrb	r3, [r7, #31]
}
 8001dd8:	4618      	mov	r0, r3
 8001dda:	3724      	adds	r7, #36	; 0x24
 8001ddc:	46bd      	mov	sp, r7
 8001dde:	bd90      	pop	{r4, r7, pc}

08001de0 <HAL_ADC_ConfigChannel>:
  * @param hadc ADC handle
  * @param sConfig Structure of ADC channel assigned to ADC group regular.
  * @retval HAL status
  */
HAL_StatusTypeDef HAL_ADC_ConfigChannel(ADC_HandleTypeDef *hadc, ADC_ChannelConfTypeDef *sConfig)
{
 8001de0:	b590      	push	{r4, r7, lr}
 8001de2:	b099      	sub	sp, #100	; 0x64
 8001de4:	af00      	add	r7, sp, #0
 8001de6:	6078      	str	r0, [r7, #4]
 8001de8:	6039      	str	r1, [r7, #0]
  HAL_StatusTypeDef tmp_hal_status = HAL_OK;
 8001dea:	2300      	movs	r3, #0
 8001dec:	f887 305f 	strb.w	r3, [r7, #95]	; 0x5f
  uint32_t tmpOffsetShifted;
  uint32_t tmp_config_internal_channel;
  __IO uint32_t wait_loop_index = 0;
 8001df0:	2300      	movs	r3, #0
 8001df2:	60bb      	str	r3, [r7, #8]
  /* if ROVSE is set, the value of the OFFSETy_EN bit in ADCx_OFRy register is
     ignored (considered as reset) */
  assert_param(!((sConfig->OffsetNumber != ADC_OFFSET_NONE) && (hadc->Init.OversamplingMode == ENABLE)));

  /* Verification of channel number */
  if (sConfig->SingleDiff != ADC_DIFFERENTIAL_ENDED)
 8001df4:	683b      	ldr	r3, [r7, #0]
 8001df6:	68db      	ldr	r3, [r3, #12]
 8001df8:	4a99      	ldr	r2, [pc, #612]	; (8002060 <HAL_ADC_ConfigChannel+0x280>)
 8001dfa:	4293      	cmp	r3, r2
    }
#endif
  }

  /* Process locked */
  __HAL_LOCK(hadc);
 8001dfc:	687b      	ldr	r3, [r7, #4]
 8001dfe:	f893 3050 	ldrb.w	r3, [r3, #80]	; 0x50
 8001e02:	2b01      	cmp	r3, #1
 8001e04:	d101      	bne.n	8001e0a <HAL_ADC_ConfigChannel+0x2a>
 8001e06:	2302      	movs	r3, #2
 8001e08:	e2e6      	b.n	80023d8 <HAL_ADC_ConfigChannel+0x5f8>
 8001e0a:	687b      	ldr	r3, [r7, #4]
 8001e0c:	2201      	movs	r2, #1
 8001e0e:	f883 2050 	strb.w	r2, [r3, #80]	; 0x50
  /* Parameters update conditioned to ADC state:                              */
  /* Parameters that can be updated when ADC is disabled or enabled without   */
  /* conversion on going on regular group:                                    */
  /*  - Channel number                                                        */
  /*  - Channel rank                                                          */
  if (LL_ADC_REG_IsConversionOngoing(hadc->Instance) == 0UL)
 8001e12:	687b      	ldr	r3, [r7, #4]
 8001e14:	681b      	ldr	r3, [r3, #0]
 8001e16:	4618      	mov	r0, r3
 8001e18:	f7ff fe1b 	bl	8001a52 <LL_ADC_REG_IsConversionOngoing>
 8001e1c:	4603      	mov	r3, r0
 8001e1e:	2b00      	cmp	r3, #0
 8001e20:	f040 82cb 	bne.w	80023ba <HAL_ADC_ConfigChannel+0x5da>
      /* ADC channels preselection */
      hadc->Instance->PCSEL_RES0 |= (1UL << (__LL_ADC_CHANNEL_TO_DECIMAL_NB((uint32_t)sConfig->Channel) & 0x1FUL));
    }
#else
    /* ADC channels preselection */
    hadc->Instance->PCSEL |= (1UL << (__LL_ADC_CHANNEL_TO_DECIMAL_NB((uint32_t)sConfig->Channel) & 0x1FUL));
 8001e24:	683b      	ldr	r3, [r7, #0]
 8001e26:	681b      	ldr	r3, [r3, #0]
 8001e28:	f3c3 0313 	ubfx	r3, r3, #0, #20
 8001e2c:	2b00      	cmp	r3, #0
 8001e2e:	d108      	bne.n	8001e42 <HAL_ADC_ConfigChannel+0x62>
 8001e30:	683b      	ldr	r3, [r7, #0]
 8001e32:	681b      	ldr	r3, [r3, #0]
 8001e34:	0e9b      	lsrs	r3, r3, #26
 8001e36:	f003 031f 	and.w	r3, r3, #31
 8001e3a:	2201      	movs	r2, #1
 8001e3c:	fa02 f303 	lsl.w	r3, r2, r3
 8001e40:	e00f      	b.n	8001e62 <HAL_ADC_ConfigChannel+0x82>
 8001e42:	683b      	ldr	r3, [r7, #0]
 8001e44:	681b      	ldr	r3, [r3, #0]
 8001e46:	64bb      	str	r3, [r7, #72]	; 0x48
  uint32_t result;

#if ((defined (__ARM_ARCH_7M__      ) && (__ARM_ARCH_7M__      == 1)) || \
     (defined (__ARM_ARCH_7EM__     ) && (__ARM_ARCH_7EM__     == 1)) || \
     (defined (__ARM_ARCH_8M_MAIN__ ) && (__ARM_ARCH_8M_MAIN__ == 1))    )
   __ASM volatile ("rbit %0, %1" : "=r" (result) : "r" (value) );
 8001e48:	6cbb      	ldr	r3, [r7, #72]	; 0x48
 8001e4a:	fa93 f3a3 	rbit	r3, r3
 8001e4e:	647b      	str	r3, [r7, #68]	; 0x44
    result |= value & 1U;
    s--;
  }
  result <<= s;                        /* shift when v's highest bits are zero */
#endif
  return result;
 8001e50:	6c7b      	ldr	r3, [r7, #68]	; 0x44
 8001e52:	fab3 f383 	clz	r3, r3
 8001e56:	b2db      	uxtb	r3, r3
 8001e58:	f003 031f 	and.w	r3, r3, #31
 8001e5c:	2201      	movs	r2, #1
 8001e5e:	fa02 f303 	lsl.w	r3, r2, r3
 8001e62:	687a      	ldr	r2, [r7, #4]
 8001e64:	6812      	ldr	r2, [r2, #0]
 8001e66:	69d1      	ldr	r1, [r2, #28]
 8001e68:	687a      	ldr	r2, [r7, #4]
 8001e6a:	6812      	ldr	r2, [r2, #0]
 8001e6c:	430b      	orrs	r3, r1
 8001e6e:	61d3      	str	r3, [r2, #28]
#endif /* ADC_VER_V5_V90 */

    /* Set ADC group regular sequence: channel on the selected scan sequence rank */
    LL_ADC_REG_SetSequencerRanks(hadc->Instance, sConfig->Rank, sConfig->Channel);
 8001e70:	687b      	ldr	r3, [r7, #4]
 8001e72:	6818      	ldr	r0, [r3, #0]
 8001e74:	683b      	ldr	r3, [r7, #0]
 8001e76:	6859      	ldr	r1, [r3, #4]
 8001e78:	683b      	ldr	r3, [r7, #0]
 8001e7a:	681b      	ldr	r3, [r3, #0]
 8001e7c:	461a      	mov	r2, r3
 8001e7e:	f7ff fd0b 	bl	8001898 <LL_ADC_REG_SetSequencerRanks>
    /* Parameters update conditioned to ADC state:                              */
    /* Parameters that can be updated when ADC is disabled or enabled without   */
    /* conversion on going on regular group:                                    */
    /*  - Channel sampling time                                                 */
    /*  - Channel offset                                                        */
    tmp_adc_is_conversion_on_going_regular = LL_ADC_REG_IsConversionOngoing(hadc->Instance);
 8001e82:	687b      	ldr	r3, [r7, #4]
 8001e84:	681b      	ldr	r3, [r3, #0]
 8001e86:	4618      	mov	r0, r3
 8001e88:	f7ff fde3 	bl	8001a52 <LL_ADC_REG_IsConversionOngoing>
 8001e8c:	65b8      	str	r0, [r7, #88]	; 0x58
    tmp_adc_is_conversion_on_going_injected = LL_ADC_INJ_IsConversionOngoing(hadc->Instance);
 8001e8e:	687b      	ldr	r3, [r7, #4]
 8001e90:	681b      	ldr	r3, [r3, #0]
 8001e92:	4618      	mov	r0, r3
 8001e94:	f7ff fdf0 	bl	8001a78 <LL_ADC_INJ_IsConversionOngoing>
 8001e98:	6578      	str	r0, [r7, #84]	; 0x54
    if ((tmp_adc_is_conversion_on_going_regular == 0UL)
 8001e9a:	6dbb      	ldr	r3, [r7, #88]	; 0x58
 8001e9c:	2b00      	cmp	r3, #0
 8001e9e:	f040 80b3 	bne.w	8002008 <HAL_ADC_ConfigChannel+0x228>
        && (tmp_adc_is_conversion_on_going_injected == 0UL)
 8001ea2:	6d7b      	ldr	r3, [r7, #84]	; 0x54
 8001ea4:	2b00      	cmp	r3, #0
 8001ea6:	f040 80af 	bne.w	8002008 <HAL_ADC_ConfigChannel+0x228>
       )
    {
      /* Set sampling time of the selected ADC channel */
      LL_ADC_SetChannelSamplingTime(hadc->Instance, sConfig->Channel, sConfig->SamplingTime);
 8001eaa:	687b      	ldr	r3, [r7, #4]
 8001eac:	6818      	ldr	r0, [r3, #0]
 8001eae:	683b      	ldr	r3, [r7, #0]
 8001eb0:	6819      	ldr	r1, [r3, #0]
 8001eb2:	683b      	ldr	r3, [r7, #0]
 8001eb4:	689b      	ldr	r3, [r3, #8]
 8001eb6:	461a      	mov	r2, r3
 8001eb8:	f7ff fd1a 	bl	80018f0 <LL_ADC_SetChannelSamplingTime>
        tmpOffsetShifted = ADC3_OFFSET_SHIFT_RESOLUTION(hadc, (uint32_t)sConfig->Offset);
      }
      else
#endif /* ADC_VER_V5_V90 */
      {
        tmpOffsetShifted = ADC_OFFSET_SHIFT_RESOLUTION(hadc, (uint32_t)sConfig->Offset);
 8001ebc:	4b69      	ldr	r3, [pc, #420]	; (8002064 <HAL_ADC_ConfigChannel+0x284>)
 8001ebe:	681b      	ldr	r3, [r3, #0]
 8001ec0:	f003 4370 	and.w	r3, r3, #4026531840	; 0xf0000000
 8001ec4:	f1b3 5f80 	cmp.w	r3, #268435456	; 0x10000000
 8001ec8:	d10b      	bne.n	8001ee2 <HAL_ADC_ConfigChannel+0x102>
 8001eca:	683b      	ldr	r3, [r7, #0]
 8001ecc:	695a      	ldr	r2, [r3, #20]
 8001ece:	687b      	ldr	r3, [r7, #4]
 8001ed0:	681b      	ldr	r3, [r3, #0]
 8001ed2:	68db      	ldr	r3, [r3, #12]
 8001ed4:	089b      	lsrs	r3, r3, #2
 8001ed6:	f003 0307 	and.w	r3, r3, #7
 8001eda:	005b      	lsls	r3, r3, #1
 8001edc:	fa02 f303 	lsl.w	r3, r2, r3
 8001ee0:	e01d      	b.n	8001f1e <HAL_ADC_ConfigChannel+0x13e>
 8001ee2:	687b      	ldr	r3, [r7, #4]
 8001ee4:	681b      	ldr	r3, [r3, #0]
 8001ee6:	68db      	ldr	r3, [r3, #12]
 8001ee8:	f003 0310 	and.w	r3, r3, #16
 8001eec:	2b00      	cmp	r3, #0
 8001eee:	d10b      	bne.n	8001f08 <HAL_ADC_ConfigChannel+0x128>
 8001ef0:	683b      	ldr	r3, [r7, #0]
 8001ef2:	695a      	ldr	r2, [r3, #20]
 8001ef4:	687b      	ldr	r3, [r7, #4]
 8001ef6:	681b      	ldr	r3, [r3, #0]
 8001ef8:	68db      	ldr	r3, [r3, #12]
 8001efa:	089b      	lsrs	r3, r3, #2
 8001efc:	f003 0307 	and.w	r3, r3, #7
 8001f00:	005b      	lsls	r3, r3, #1
 8001f02:	fa02 f303 	lsl.w	r3, r2, r3
 8001f06:	e00a      	b.n	8001f1e <HAL_ADC_ConfigChannel+0x13e>
 8001f08:	683b      	ldr	r3, [r7, #0]
 8001f0a:	695a      	ldr	r2, [r3, #20]
 8001f0c:	687b      	ldr	r3, [r7, #4]
 8001f0e:	681b      	ldr	r3, [r3, #0]
 8001f10:	68db      	ldr	r3, [r3, #12]
 8001f12:	089b      	lsrs	r3, r3, #2
 8001f14:	f003 0304 	and.w	r3, r3, #4
 8001f18:	005b      	lsls	r3, r3, #1
 8001f1a:	fa02 f303 	lsl.w	r3, r2, r3
 8001f1e:	653b      	str	r3, [r7, #80]	; 0x50
      }
      
      if (sConfig->OffsetNumber != ADC_OFFSET_NONE)
 8001f20:	683b      	ldr	r3, [r7, #0]
 8001f22:	691b      	ldr	r3, [r3, #16]
 8001f24:	2b04      	cmp	r3, #4
 8001f26:	d027      	beq.n	8001f78 <HAL_ADC_ConfigChannel+0x198>
      {
        /* Set ADC selected offset number */
        LL_ADC_SetOffset(hadc->Instance, sConfig->OffsetNumber, sConfig->Channel, tmpOffsetShifted);
 8001f28:	687b      	ldr	r3, [r7, #4]
 8001f2a:	6818      	ldr	r0, [r3, #0]
 8001f2c:	683b      	ldr	r3, [r7, #0]
 8001f2e:	6919      	ldr	r1, [r3, #16]
 8001f30:	683b      	ldr	r3, [r7, #0]
 8001f32:	681a      	ldr	r2, [r3, #0]
 8001f34:	6d3b      	ldr	r3, [r7, #80]	; 0x50
 8001f36:	f7ff fc5b 	bl	80017f0 <LL_ADC_SetOffset>
        else
#endif /* ADC_VER_V5_V90 */
        {
          assert_param(IS_FUNCTIONAL_STATE(sConfig->OffsetSignedSaturation));
          /* Set ADC selected offset signed saturation */
          LL_ADC_SetOffsetSignedSaturation(hadc->Instance, sConfig->OffsetNumber, (sConfig->OffsetSignedSaturation == ENABLE) ? LL_ADC_OFFSET_SIGNED_SATURATION_ENABLE : LL_ADC_OFFSET_SIGNED_SATURATION_DISABLE);
 8001f3a:	687b      	ldr	r3, [r7, #4]
 8001f3c:	6818      	ldr	r0, [r3, #0]
 8001f3e:	683b      	ldr	r3, [r7, #0]
 8001f40:	6919      	ldr	r1, [r3, #16]
 8001f42:	683b      	ldr	r3, [r7, #0]
 8001f44:	7e5b      	ldrb	r3, [r3, #25]
 8001f46:	2b01      	cmp	r3, #1
 8001f48:	d102      	bne.n	8001f50 <HAL_ADC_ConfigChannel+0x170>
 8001f4a:	f04f 4300 	mov.w	r3, #2147483648	; 0x80000000
 8001f4e:	e000      	b.n	8001f52 <HAL_ADC_ConfigChannel+0x172>
 8001f50:	2300      	movs	r3, #0
 8001f52:	461a      	mov	r2, r3
 8001f54:	f7ff fc85 	bl	8001862 <LL_ADC_SetOffsetSignedSaturation>

          assert_param(IS_FUNCTIONAL_STATE(sConfig->OffsetRightShift));
          /* Set ADC selected offset right shift */
          LL_ADC_SetDataRightShift(hadc->Instance, sConfig->OffsetNumber, (sConfig->OffsetRightShift == ENABLE) ? LL_ADC_OFFSET_RSHIFT_ENABLE : LL_ADC_OFFSET_RSHIFT_DISABLE);
 8001f58:	687b      	ldr	r3, [r7, #4]
 8001f5a:	6818      	ldr	r0, [r3, #0]
 8001f5c:	683b      	ldr	r3, [r7, #0]
 8001f5e:	6919      	ldr	r1, [r3, #16]
 8001f60:	683b      	ldr	r3, [r7, #0]
 8001f62:	7e1b      	ldrb	r3, [r3, #24]
 8001f64:	2b01      	cmp	r3, #1
 8001f66:	d102      	bne.n	8001f6e <HAL_ADC_ConfigChannel+0x18e>
 8001f68:	f44f 6300 	mov.w	r3, #2048	; 0x800
 8001f6c:	e000      	b.n	8001f70 <HAL_ADC_ConfigChannel+0x190>
 8001f6e:	2300      	movs	r3, #0
 8001f70:	461a      	mov	r2, r3
 8001f72:	f7ff fc5d 	bl	8001830 <LL_ADC_SetDataRightShift>
 8001f76:	e047      	b.n	8002008 <HAL_ADC_ConfigChannel+0x228>
          }
        }
        else
#endif /* ADC_VER_V5_V90 */
        {
          if (((hadc->Instance->OFR1) & ADC_OFR1_OFFSET1_CH) == ADC_OFR_CHANNEL(sConfig->Channel))
 8001f78:	687b      	ldr	r3, [r7, #4]
 8001f7a:	681b      	ldr	r3, [r3, #0]
 8001f7c:	6e1b      	ldr	r3, [r3, #96]	; 0x60
 8001f7e:	f003 42f8 	and.w	r2, r3, #2080374784	; 0x7c000000
 8001f82:	683b      	ldr	r3, [r7, #0]
 8001f84:	681b      	ldr	r3, [r3, #0]
 8001f86:	069b      	lsls	r3, r3, #26
 8001f88:	429a      	cmp	r2, r3
 8001f8a:	d107      	bne.n	8001f9c <HAL_ADC_ConfigChannel+0x1bc>
          {
            CLEAR_BIT(hadc->Instance->OFR1, ADC_OFR1_SSATE);
 8001f8c:	687b      	ldr	r3, [r7, #4]
 8001f8e:	681b      	ldr	r3, [r3, #0]
 8001f90:	6e1a      	ldr	r2, [r3, #96]	; 0x60
 8001f92:	687b      	ldr	r3, [r7, #4]
 8001f94:	681b      	ldr	r3, [r3, #0]
 8001f96:	f022 4200 	bic.w	r2, r2, #2147483648	; 0x80000000
 8001f9a:	661a      	str	r2, [r3, #96]	; 0x60
          }
          if (((hadc->Instance->OFR2) & ADC_OFR2_OFFSET2_CH) == ADC_OFR_CHANNEL(sConfig->Channel))
 8001f9c:	687b      	ldr	r3, [r7, #4]
 8001f9e:	681b      	ldr	r3, [r3, #0]
 8001fa0:	6e5b      	ldr	r3, [r3, #100]	; 0x64
 8001fa2:	f003 42f8 	and.w	r2, r3, #2080374784	; 0x7c000000
 8001fa6:	683b      	ldr	r3, [r7, #0]
 8001fa8:	681b      	ldr	r3, [r3, #0]
 8001faa:	069b      	lsls	r3, r3, #26
 8001fac:	429a      	cmp	r2, r3
 8001fae:	d107      	bne.n	8001fc0 <HAL_ADC_ConfigChannel+0x1e0>
          {
            CLEAR_BIT(hadc->Instance->OFR2, ADC_OFR2_SSATE);
 8001fb0:	687b      	ldr	r3, [r7, #4]
 8001fb2:	681b      	ldr	r3, [r3, #0]
 8001fb4:	6e5a      	ldr	r2, [r3, #100]	; 0x64
 8001fb6:	687b      	ldr	r3, [r7, #4]
 8001fb8:	681b      	ldr	r3, [r3, #0]
 8001fba:	f022 4200 	bic.w	r2, r2, #2147483648	; 0x80000000
 8001fbe:	665a      	str	r2, [r3, #100]	; 0x64
          }
          if (((hadc->Instance->OFR3) & ADC_OFR3_OFFSET3_CH) == ADC_OFR_CHANNEL(sConfig->Channel))
 8001fc0:	687b      	ldr	r3, [r7, #4]
 8001fc2:	681b      	ldr	r3, [r3, #0]
 8001fc4:	6e9b      	ldr	r3, [r3, #104]	; 0x68
 8001fc6:	f003 42f8 	and.w	r2, r3, #2080374784	; 0x7c000000
 8001fca:	683b      	ldr	r3, [r7, #0]
 8001fcc:	681b      	ldr	r3, [r3, #0]
 8001fce:	069b      	lsls	r3, r3, #26
 8001fd0:	429a      	cmp	r2, r3
 8001fd2:	d107      	bne.n	8001fe4 <HAL_ADC_ConfigChannel+0x204>
          {
            CLEAR_BIT(hadc->Instance->OFR3, ADC_OFR3_SSATE);
 8001fd4:	687b      	ldr	r3, [r7, #4]
 8001fd6:	681b      	ldr	r3, [r3, #0]
 8001fd8:	6e9a      	ldr	r2, [r3, #104]	; 0x68
 8001fda:	687b      	ldr	r3, [r7, #4]
 8001fdc:	681b      	ldr	r3, [r3, #0]
 8001fde:	f022 4200 	bic.w	r2, r2, #2147483648	; 0x80000000
 8001fe2:	669a      	str	r2, [r3, #104]	; 0x68
          }
          if (((hadc->Instance->OFR4) & ADC_OFR4_OFFSET4_CH) == ADC_OFR_CHANNEL(sConfig->Channel))
 8001fe4:	687b      	ldr	r3, [r7, #4]
 8001fe6:	681b      	ldr	r3, [r3, #0]
 8001fe8:	6edb      	ldr	r3, [r3, #108]	; 0x6c
 8001fea:	f003 42f8 	and.w	r2, r3, #2080374784	; 0x7c000000
 8001fee:	683b      	ldr	r3, [r7, #0]
 8001ff0:	681b      	ldr	r3, [r3, #0]
 8001ff2:	069b      	lsls	r3, r3, #26
 8001ff4:	429a      	cmp	r2, r3
 8001ff6:	d107      	bne.n	8002008 <HAL_ADC_ConfigChannel+0x228>
          {
            CLEAR_BIT(hadc->Instance->OFR4, ADC_OFR4_SSATE);
 8001ff8:	687b      	ldr	r3, [r7, #4]
 8001ffa:	681b      	ldr	r3, [r3, #0]
 8001ffc:	6eda      	ldr	r2, [r3, #108]	; 0x6c
 8001ffe:	687b      	ldr	r3, [r7, #4]
 8002000:	681b      	ldr	r3, [r3, #0]
 8002002:	f022 4200 	bic.w	r2, r2, #2147483648	; 0x80000000
 8002006:	66da      	str	r2, [r3, #108]	; 0x6c

    /* Parameters update conditioned to ADC state:                              */
    /* Parameters that can be updated only when ADC is disabled:                */
    /*  - Single or differential mode                                           */
    /*  - Internal measurement channels: Vbat/VrefInt/TempSensor                */
    if (LL_ADC_IsEnabled(hadc->Instance) == 0UL)
 8002008:	687b      	ldr	r3, [r7, #4]
 800200a:	681b      	ldr	r3, [r3, #0]
 800200c:	4618      	mov	r0, r3
 800200e:	f7ff fd0d 	bl	8001a2c <LL_ADC_IsEnabled>
 8002012:	4603      	mov	r3, r0
 8002014:	2b00      	cmp	r3, #0
 8002016:	f040 81d9 	bne.w	80023cc <HAL_ADC_ConfigChannel+0x5ec>
    {
      /* Set mode single-ended or differential input of the selected ADC channel */
      LL_ADC_SetChannelSingleDiff(hadc->Instance, sConfig->Channel, sConfig->SingleDiff);
 800201a:	687b      	ldr	r3, [r7, #4]
 800201c:	6818      	ldr	r0, [r3, #0]
 800201e:	683b      	ldr	r3, [r7, #0]
 8002020:	6819      	ldr	r1, [r3, #0]
 8002022:	683b      	ldr	r3, [r7, #0]
 8002024:	68db      	ldr	r3, [r3, #12]
 8002026:	461a      	mov	r2, r3
 8002028:	f7ff fc8e 	bl	8001948 <LL_ADC_SetChannelSingleDiff>

      /* Configuration of differential mode */
      if (sConfig->SingleDiff == ADC_DIFFERENTIAL_ENDED)
 800202c:	683b      	ldr	r3, [r7, #0]
 800202e:	68db      	ldr	r3, [r3, #12]
 8002030:	4a0b      	ldr	r2, [pc, #44]	; (8002060 <HAL_ADC_ConfigChannel+0x280>)
 8002032:	4293      	cmp	r3, r2
 8002034:	f040 8101 	bne.w	800223a <HAL_ADC_ConfigChannel+0x45a>
      {
        /* Set sampling time of the selected ADC channel */
        /* Note: ADC channel number masked with value "0x1F" to ensure shift value within 32 bits range */
        LL_ADC_SetChannelSamplingTime(hadc->Instance,
 8002038:	687b      	ldr	r3, [r7, #4]
 800203a:	6818      	ldr	r0, [r3, #0]
                                      (uint32_t)(__LL_ADC_DECIMAL_NB_TO_CHANNEL((__LL_ADC_CHANNEL_TO_DECIMAL_NB((uint32_t)sConfig->Channel) + 1UL) & 0x1FUL)),
 800203c:	683b      	ldr	r3, [r7, #0]
 800203e:	681b      	ldr	r3, [r3, #0]
 8002040:	f3c3 0313 	ubfx	r3, r3, #0, #20
 8002044:	2b00      	cmp	r3, #0
 8002046:	d10f      	bne.n	8002068 <HAL_ADC_ConfigChannel+0x288>
 8002048:	683b      	ldr	r3, [r7, #0]
 800204a:	681b      	ldr	r3, [r3, #0]
 800204c:	0e9b      	lsrs	r3, r3, #26
 800204e:	3301      	adds	r3, #1
 8002050:	f003 031f 	and.w	r3, r3, #31
 8002054:	2b09      	cmp	r3, #9
 8002056:	bf94      	ite	ls
 8002058:	2301      	movls	r3, #1
 800205a:	2300      	movhi	r3, #0
 800205c:	b2db      	uxtb	r3, r3
 800205e:	e016      	b.n	800208e <HAL_ADC_ConfigChannel+0x2ae>
 8002060:	47ff0000 	.word	0x47ff0000
 8002064:	5c001000 	.word	0x5c001000
 8002068:	683b      	ldr	r3, [r7, #0]
 800206a:	681b      	ldr	r3, [r3, #0]
 800206c:	643b      	str	r3, [r7, #64]	; 0x40
   __ASM volatile ("rbit %0, %1" : "=r" (result) : "r" (value) );
 800206e:	6c3b      	ldr	r3, [r7, #64]	; 0x40
 8002070:	fa93 f3a3 	rbit	r3, r3
 8002074:	63fb      	str	r3, [r7, #60]	; 0x3c
  return result;
 8002076:	6bfb      	ldr	r3, [r7, #60]	; 0x3c
 8002078:	fab3 f383 	clz	r3, r3
 800207c:	b2db      	uxtb	r3, r3
 800207e:	3301      	adds	r3, #1
 8002080:	f003 031f 	and.w	r3, r3, #31
 8002084:	2b09      	cmp	r3, #9
 8002086:	bf94      	ite	ls
 8002088:	2301      	movls	r3, #1
 800208a:	2300      	movhi	r3, #0
 800208c:	b2db      	uxtb	r3, r3
        LL_ADC_SetChannelSamplingTime(hadc->Instance,
 800208e:	2b00      	cmp	r3, #0
 8002090:	d064      	beq.n	800215c <HAL_ADC_ConfigChannel+0x37c>
                                      (uint32_t)(__LL_ADC_DECIMAL_NB_TO_CHANNEL((__LL_ADC_CHANNEL_TO_DECIMAL_NB((uint32_t)sConfig->Channel) + 1UL) & 0x1FUL)),
 8002092:	683b      	ldr	r3, [r7, #0]
 8002094:	681b      	ldr	r3, [r3, #0]
 8002096:	f3c3 0313 	ubfx	r3, r3, #0, #20
 800209a:	2b00      	cmp	r3, #0
 800209c:	d107      	bne.n	80020ae <HAL_ADC_ConfigChannel+0x2ce>
 800209e:	683b      	ldr	r3, [r7, #0]
 80020a0:	681b      	ldr	r3, [r3, #0]
 80020a2:	0e9b      	lsrs	r3, r3, #26
 80020a4:	3301      	adds	r3, #1
 80020a6:	069b      	lsls	r3, r3, #26
 80020a8:	f003 42f8 	and.w	r2, r3, #2080374784	; 0x7c000000
 80020ac:	e00e      	b.n	80020cc <HAL_ADC_ConfigChannel+0x2ec>
 80020ae:	683b      	ldr	r3, [r7, #0]
 80020b0:	681b      	ldr	r3, [r3, #0]
 80020b2:	63bb      	str	r3, [r7, #56]	; 0x38
   __ASM volatile ("rbit %0, %1" : "=r" (result) : "r" (value) );
 80020b4:	6bbb      	ldr	r3, [r7, #56]	; 0x38
 80020b6:	fa93 f3a3 	rbit	r3, r3
 80020ba:	637b      	str	r3, [r7, #52]	; 0x34
  return result;
 80020bc:	6b7b      	ldr	r3, [r7, #52]	; 0x34
 80020be:	fab3 f383 	clz	r3, r3
 80020c2:	b2db      	uxtb	r3, r3
 80020c4:	3301      	adds	r3, #1
 80020c6:	069b      	lsls	r3, r3, #26
 80020c8:	f003 42f8 	and.w	r2, r3, #2080374784	; 0x7c000000
 80020cc:	683b      	ldr	r3, [r7, #0]
 80020ce:	681b      	ldr	r3, [r3, #0]
 80020d0:	f3c3 0313 	ubfx	r3, r3, #0, #20
 80020d4:	2b00      	cmp	r3, #0
 80020d6:	d109      	bne.n	80020ec <HAL_ADC_ConfigChannel+0x30c>
 80020d8:	683b      	ldr	r3, [r7, #0]
 80020da:	681b      	ldr	r3, [r3, #0]
 80020dc:	0e9b      	lsrs	r3, r3, #26
 80020de:	3301      	adds	r3, #1
 80020e0:	f003 031f 	and.w	r3, r3, #31
 80020e4:	2101      	movs	r1, #1
 80020e6:	fa01 f303 	lsl.w	r3, r1, r3
 80020ea:	e010      	b.n	800210e <HAL_ADC_ConfigChannel+0x32e>
 80020ec:	683b      	ldr	r3, [r7, #0]
 80020ee:	681b      	ldr	r3, [r3, #0]
 80020f0:	633b      	str	r3, [r7, #48]	; 0x30
   __ASM volatile ("rbit %0, %1" : "=r" (result) : "r" (value) );
 80020f2:	6b3b      	ldr	r3, [r7, #48]	; 0x30
 80020f4:	fa93 f3a3 	rbit	r3, r3
 80020f8:	62fb      	str	r3, [r7, #44]	; 0x2c
  return result;
 80020fa:	6afb      	ldr	r3, [r7, #44]	; 0x2c
 80020fc:	fab3 f383 	clz	r3, r3
 8002100:	b2db      	uxtb	r3, r3
 8002102:	3301      	adds	r3, #1
 8002104:	f003 031f 	and.w	r3, r3, #31
 8002108:	2101      	movs	r1, #1
 800210a:	fa01 f303 	lsl.w	r3, r1, r3
 800210e:	ea42 0103 	orr.w	r1, r2, r3
 8002112:	683b      	ldr	r3, [r7, #0]
 8002114:	681b      	ldr	r3, [r3, #0]
 8002116:	f3c3 0313 	ubfx	r3, r3, #0, #20
 800211a:	2b00      	cmp	r3, #0
 800211c:	d10a      	bne.n	8002134 <HAL_ADC_ConfigChannel+0x354>
 800211e:	683b      	ldr	r3, [r7, #0]
 8002120:	681b      	ldr	r3, [r3, #0]
 8002122:	0e9b      	lsrs	r3, r3, #26
 8002124:	3301      	adds	r3, #1
 8002126:	f003 021f 	and.w	r2, r3, #31
 800212a:	4613      	mov	r3, r2
 800212c:	005b      	lsls	r3, r3, #1
 800212e:	4413      	add	r3, r2
 8002130:	051b      	lsls	r3, r3, #20
 8002132:	e011      	b.n	8002158 <HAL_ADC_ConfigChannel+0x378>
 8002134:	683b      	ldr	r3, [r7, #0]
 8002136:	681b      	ldr	r3, [r3, #0]
 8002138:	62bb      	str	r3, [r7, #40]	; 0x28
   __ASM volatile ("rbit %0, %1" : "=r" (result) : "r" (value) );
 800213a:	6abb      	ldr	r3, [r7, #40]	; 0x28
 800213c:	fa93 f3a3 	rbit	r3, r3
 8002140:	627b      	str	r3, [r7, #36]	; 0x24
  return result;
 8002142:	6a7b      	ldr	r3, [r7, #36]	; 0x24
 8002144:	fab3 f383 	clz	r3, r3
 8002148:	b2db      	uxtb	r3, r3
 800214a:	3301      	adds	r3, #1
 800214c:	f003 021f 	and.w	r2, r3, #31
 8002150:	4613      	mov	r3, r2
 8002152:	005b      	lsls	r3, r3, #1
 8002154:	4413      	add	r3, r2
 8002156:	051b      	lsls	r3, r3, #20
        LL_ADC_SetChannelSamplingTime(hadc->Instance,
 8002158:	430b      	orrs	r3, r1
 800215a:	e069      	b.n	8002230 <HAL_ADC_ConfigChannel+0x450>
                                      (uint32_t)(__LL_ADC_DECIMAL_NB_TO_CHANNEL((__LL_ADC_CHANNEL_TO_DECIMAL_NB((uint32_t)sConfig->Channel) + 1UL) & 0x1FUL)),
 800215c:	683b      	ldr	r3, [r7, #0]
 800215e:	681b      	ldr	r3, [r3, #0]
 8002160:	f3c3 0313 	ubfx	r3, r3, #0, #20
 8002164:	2b00      	cmp	r3, #0
 8002166:	d107      	bne.n	8002178 <HAL_ADC_ConfigChannel+0x398>
 8002168:	683b      	ldr	r3, [r7, #0]
 800216a:	681b      	ldr	r3, [r3, #0]
 800216c:	0e9b      	lsrs	r3, r3, #26
 800216e:	3301      	adds	r3, #1
 8002170:	069b      	lsls	r3, r3, #26
 8002172:	f003 42f8 	and.w	r2, r3, #2080374784	; 0x7c000000
